:100000000C9407090C9424090C9424090C942409D9
:100010000C9424090C9424090C9424090C942409AC
:100020000C9424090C9424090C9422360C94F43674
:100030000C94772D0C9424090C9424090C94240915
:100040000C9424090C9424090C9424090C9424097C
:100050000C9424090C94D02D0C9424090C9424099C
:100060000C9424090C9424090C9424090C9424095C
:100070000C9424090C9424090C9424090C9424094C
:100080000C9424090C9424090C9424090C9424093C
:100090000C9424090C9424090C9424090C9424092C
:1000A0000C9424090C9424090C942409280A2B0A82
:1000B0002E0A310A340A370A3A0AED0CF20CFC0C0B
:1000C000F00CF50CFA0CF80C171A1A1A221A271A47
:1000D0002C1A311A361A3B1A401A451A4A1A4F1A64
:1000E000511A541A571A5A1A5D1A601A621A671A64
:1000F000A021A021D221D2211B22C5236023C52308
:100100003D22D822EA22EA225723C523C523BF2352
:100110006C238D237423772380237C2385238C24D5
:100120008C249E249E2495249E249E249E248C24EC
:100130008C249A249E249E249A24E22FD02FE92FE7
:100140006E2EBE30BE30CD2FBE30BE301630BE302B
:100150002A309E30BE30BE30BE30BE305A30BE3047
:10016000BE304730BE300230BE30BE30B830B8305E
:10017000B830B830B830B830B830B830B830BA303D
:10018000BE30E22FC52FBE30BE30BE30BE30BE30D6
:10019000BE30BE30BE30BE30BE30BA30BE30BE30F3
:1001A000CD2FBE30B630B630B630B630B630B63001
:1001B000B630B630B630BA306137883780388837D5
:1001C0008038D437F73780384E385D380A0025300C
:1001D000313662003A200025303258000A722F630F
:1001E0002030313233343536373839414243444593
:1001F000460A006C656674207369646520617474D6
:1002000061636865640A006C65667420736964657F
:10021000206E6F7420726573706F6E64696E670A0A
:1002200000747279696E6720746F207265736574EB
:10023000206D637032333031380A00696E69742082
:10024000693263006572676F646F785F657A2F64E7
:10025000656661756C7420402076302E342D3239FD
:100260002D673762323633332D6469727479002E0C
:10027000004C002A00E100354100001E001400047B
:10028000001D6134004D001F001A0016001B00E124
:10029000042A00200008000700060050002C00215E
:1002A000001500090019004F004A00220017000A3B
:1002B00000050000006564500001530000006F005D
:1002C00000E3004F000153000000670000E200233C
:1002D000001C000B00110000002961240018000D13
:1002E00000100052004B0025000C000E003600519B
:1002F000002800260012000F0037002F002B0027D7
:100300000013003342386130004E002D00310034BC
:1003100068E50001580000085D010001000100DEF1
:100320005C00003A001E0220022202010001003B94
:10033000001F02210223020100C95C3C002F02269B
:10034000022F000100CA5C3D00300227023000018C
:100350000001003E003102350035020000C35C019F
:100360000001000000010000000100010001000088
:100370000001000000C25C3F005200510024020056
:1003800000095D4000240021001E00010001004121
:1003900000250022001F003700C55C420026002314
:1003A0000020002700C65C430025022E0231002EEB
:1003B00000010044004500010001000100000001AF
:1003C0000001000100010001000000010001000126
:1003D0000001000100010001000100F20001000124
:1003E0000001000100F000F1000100F40001000133
:1003F000000100F3000100F500010001000100010F
:1004000000010000000100010001000000010000E7
:1004100000010001000100000001000000010001D6
:1004200000010001000100000001000100010001C5
:10043000000100A9000100010001000100AC00AAB8
:1004400000B600010001000100AB00A8000100019E
:10045000000100010001000100010001000100AEE7
:100460000001000100000044454255473A206469FC
:100470007361626C65642E0A0044454255473A2018
:10048000656E61626C65642E0A0000000000000069
:1004900000002A2B280000000000000000000000DF
:1004A000000000000029000000002C1E3420212242
:1004B00024342627252E362D3738271E1F202122AB
:1004C000232425263333362E37381F040506070824
:1004D000090A0B0C0D0E0F10111213141516171814
:1004E000191A1B1C1D2F3130232D35040506070852
:1004F000090A0B0C0D0E0F101112131415161718F4
:10050000191A1B1C1D2F3130354C00000000000053
:1005100000000000000000000000000000007E0F4E
:1005200000D4FFFFFFC7000000787267626C696744
:1005300068742074696D65722064697361626C65AA
:100540002E0A007267626C696768742074696D6551
:100550007220656E61626C65642E0A007267626C5F
:10056000696768742073657420687376205B4E4FEA
:10057000454550524F4D5D3A2025752C25752C254B
:10058000750A007267626C6967687420736574200D
:10059000687376205B454550524F4D5D3A20257576
:1005A0002C25752C25750A007267626C6967687462
:1005B000207261696E626F7720736574206873764C
:1005C0003A2025642C25642C25642C25750A00729C
:1005D00067626C696768742064697361626C652026
:1005E0005B454550524F4D5D3A207267626C6967BA
:1005F00068745F636F6E6669672E656E61626C65B5
:10060000203D2025750A007267626C696768742056
:10061000656E61626C65205B454550524F4D5D3A99
:10062000207267626C696768745F636F6E66696782
:100630002E656E61626C65203D2025750A0072672B
:10064000626C6967687420746F67676C65205B45CE
:100650004550524F4D5D3A207267626C696768740D
:100660005F636F6E6669672E656E61626C65203DC3
:100670002025750A007267626C69676874206D6F67
:100680006465205B4E4F454550524F4D5D3A2025E5
:10069000750A007267626C69676874206D6F6465C3
:1006A000205B454550524F4D5D3A2025750A00723A
:1006B00067626C696768745F696E697420726762EB
:1006C0006C696768745F636F6E6669672E6D6F64CF
:1006D00065203D20302E2057726974652064656660
:1006E00061756C742076616C75657320746F20453C
:1006F0004550524F4D2E0A007267626C69676874EC
:100700005F696E6974206565636F6E6669672069ED
:1007100073206E6F7420656E61626C65642E0A00D2
:100720007267626C696768745F696E69742073745C
:10073000617274210A007267626C696768745F692C
:100740006E69742063616C6C65642E0A0072676266
:100750006C696768745F636F6E6669672E73706536
:100760006564203D2025640A007267626C696768D1
:10077000745F636F6E6669672E76616C203D20251D
:10078000640A007267626C696768745F636F6E66A3
:1007900069672E736174203D2025640A00726762C8
:1007A0006C696768745F636F6E6669672E687565EC
:1007B000203D2025640A007267686C696768745F71
:1007C000636F6E6669672E6D6F6465203D202564DA
:1007D0000A007267626C696768745F636F6E66694E
:1007E000672E656E61626C65203D2025640A00728B
:1007F00067626C696768745F636F6E6669672045DE
:100800004550524F4D3A0A0032190A00047F3F1FEB
:10081000643214643214783C1E1E140A0522232507
:100820002628292A2C2D2F3032333536383A3B3DB5
:100830003E4042434547494A4C4E50515355575903
:100840005A5C5E6062646668696B6D6F7173757720
:10085000797B7D7F81838587898A8C8E909294961F
:10086000989A9C9E9FA1A3A5A7A8AAACAEAFB1B32E
:10087000B4B6B8B9BBBCBEBFC1C2C3C5C6C7C9CA7E
:10088000CBCCCDCED0D1D2D2D3D4D5D6D7D7D8D940
:10089000D9DADADBDBDBDCDCDCDCDCDDDDDDDDDC9E
:1008A000DCDCDCDCDBDBDBDADAD9D9D8D7D7D6D5B0
:1008B000D4D3D2D2D1D0CECDCCCBCAC9C7C6C5C372
:1008C000C2C1BFBEBCBBB9B8B6B4B3B1AFAEACAABF
:1008D000A8A7A5A3A19F9E9C9A98969492908E8C6F
:1008E0008A89878583817F7D7B79777573716F6D49
:1008F0006B6968666462605E5C5A59575553515023
:100900004E4C4A4947454342403E3D3B3A383635D6
:100910003332302F2D2C2A292826252322FFAA7F87
:100920005540000101010101010101010202020221
:100930000202020202030303030303030304040489
:100940000404040405050505050606060606070752
:1009500007070708080808090909090A0A0A0B0B0A
:100960000B0C0C0C0D0D0D0E0E0E0F0F0F101011A9
:10097000111112121313141415151616171718182F
:1009800019191A1A1B1B1C1D1D1E1E1F2020212297
:1009900022232424252626272829292A2B2C2D2DDD
:1009A0002E2F30313232333435363738393A3B3CFA
:1009B0003D3E3F404142434445464748494A4C4DED
:1009C0004E4F50515354555658595A5B5D5E5F61B6
:1009D0006264656668696B6C6D6F70727375777849
:1009E0007A7B7D7E8082838587888A8C8E8F9193A7
:1009F0009596989A9C9EA0A2A3A5A7A9ABADAFB1CE
:100A0000B3B5B7BABCBEC0C2C4C6C9CBCDCFD1D4B2
:100A1000D6D8DBDDDFE2E4E7E9EBEEF0F3F5F8FA58
:100A2000FDFF556E69636F646520696E7075742093
:100A30006D6F64652073657420746F3A2025750AA4
:100A400000556E69636F646520696E707574206D02
:100A50006F646520696E697420746F3A2025750A89
:100A6000000A002530325820006B6579626F617290
:100A7000645F7265706F72743A20000A002530322C
:100A800058006B6579626F6172645F7365745F6C47
:100A900065643A200064656C5F6B65795F626974B8
:100AA0003A2063616E27742064656C3A20253032E9
:100AB000580A006164645F6B65795F6269743A200B
:100AC00063616E2774206164643A20253032580ACD
:100AD000003F00433E20004C25640A0074696D65A8
:100AE000725F72656164333228293A202530346C94
:100AF000580A006B65796D61705F636F6E66696738
:100B00002E6E6B726F3A2025580A006B6579626F02
:100B10006172645F69646C653A2025580A006B65F0
:100B200079626F6172645F70726F746F636F6C3A39
:100B30002025580A00686F73745F6B6579626F6176
:100B400072645F6C65647328293A2025580A000A8C
:100B5000092D20537461747573202D0A0047434397
:100B60003A20352E342E30204156522D4C494243E6
:100B70003A20322E302E30204156525F41524348A7
:100B80003A20617672350A004F5054494F4E533A1D
:100B9000204C5546412045585452414B455920431D
:100BA0004F4E534F4C4520434F4D4D414E44204EE8
:100BB0004B524F203531320A004255494C443A20BD
:100BC0002276302E342D32392D6737623236333368
:100BD0002D646972747922202832303A33313A33E5
:100BE00033204175672031312032303230290A00FC
:100BF0005649443A20307846454544285A534120C6
:100C0000546563686E6F6C6F6779204C6162732006
:100C1000496E6329205049443A20307831333037C7
:100C200028466F75726963204B6579626F617264E3
:100C300029205645523A203078303030310A000AA7
:100C4000092D2056657273696F6E202D0A000A09FE
:100C50002D20436F6E736F6C65202D0A4553432F13
:100C6000713A09717569740A000A092D204D61678E
:100C70006963202D0A443A094465627567204D6511
:100C8000737361676520546F67676C650A583A092A
:100C90004D6174726978204465627567204D6F6498
:100CA0006520546F67676C65202D2053686F77202F
:100CB0006B65797072657373657320696E206D6101
:100CC0007472697820677269640A4B3A094B6579D6
:100CD000626F61726420446562756720546F676754
:100CE0006C65202D2053686F77206B657970726575
:100CF0007373207265706F72740A4D3A09446562AD
:100D00007567204D6F75736520546F67676C650A52
:100D1000563A0956657273696F6E0A533A095374ED
:100D2000617475730A433A09416374697661746545
:100D300020436F6E736F6C65204D6F64650A46319A
:100D40002D4631303A0953776974636820746F20F7
:100D50004C6179657220302D392028463130203D94
:100D6000204C30290A302D393A0953776974636869
:100D700020746F204C6179657220302D390A4752FA
:100D80004156453A0953776974636820746F204C63
:100D90006179657220302028616C7465726E6174AF
:100DA00065290A423A094A756D7020746F20426FB6
:100DB0006F746C6F616465720A4553433A094A75F2
:100DC0006D7020746F20426F6F746C6F6164657218
:100DD0002028616C7465726E617465290A453A0950
:100DE0005072696E7420454550524F4D20536574C2
:100DF00074696E67730A4253504143453A09436C24
:100E000065617220454550524F4D0A4E3A094E4B8E
:100E1000524F20546F67676C650A000A0025750001
:100E20002E6E6B726F3A20000A002575002E7377C4
:100E300061705F6261636B736C6173685F62616351
:100E40006B73706163653A20000A002575002E738C
:100E50007761705F67726176655F6573633A2000E2
:100E60000A002575002E6E6F5F6775693A20000ACB
:100E7000002575002E737761705F72616C745F720C
:100E80006775693A20000A002575002E7377617036
:100E90005F6C616C745F6C6775693A20000A0025AD
:100EA00075002E737761705F7263746C5F72677523
:100EB000693A20000A002575002E737761705F6C17
:100EC00063746C5F6C6775693A20000A00257500D1
:100ED0002E636170736C6F636B5F746F5F636F6EB3
:100EE00074726F6C3A20000A002575002E737761CA
:100EF000705F636F6E74726F6C5F636170736C6F41
:100F0000636B3A20000A0025303258006B65796D1A
:100F100061705F636F6E6669672E7261773A200059
:100F20000A002575002E6D6F7573653A20000A0062
:100F30002575002E6B6579626F6172643A20000A34
:100F4000002575002E6D61747269783A20000A00E0
:100F50002575002E656E61626C653A20000A0025D9
:100F60003032580064656275675F636F6E666967EB
:100F70002E7261773A20000A00257500646566616B
:100F8000756C745F6C617965723A20003F004E4B5E
:100F9000524F3A206F66660A004E4B524F3A206F0E
:100FA0006E0A000A6D6F7573653A206F66660A00F7
:100FB0000A6D6F7573653A206F6E0A000A6B65796A
:100FC000626F6172643A206F66660A000A6B657927
:100FD000626F6172643A206F6E0A000A6D6174720A
:100FE00069783A206F66660A000A6D6174726978E2
:100FF0003A206F6E0A000A64656275673A206F6670
:10100000660A000A64656275673A206F6E0A000A14
:101010000A4A756D70696E6720746F20626F6F7415
:101020006C6F616465722E2E2E2000433E200043BB
:101030006C656172696E6720454550524F4D0A00DC
:101040006565636F6E6669673A0A005B735D004BA6
:101050006579626F6172642073746172742E0A0024
:101060005B575D005B535D005B525D005B445D0060
:101070005B435D00040330000000200346006F0066
:10108000750072006900630020004B006500790064
:1010900062006F00610072006400000030035A00BB
:1010A00053004100200054006500630068006E009A
:1010B0006F006C006F006700790020004C00610039
:1010C00062007300200049006E006300000004030A
:1010D000090409025B00030100A0FA0904000001F1
:1010E00003010100092111010001224000070581CF
:1010F0000308000A0904010001030000000921118E
:10110000010001226D000705820320000A09040284
:101110000002030000000921110100012222000742
:1011200005830320000107050303200001120110BD
:101130000100000008EDFE07130100010203010693
:1011400031FF0974A1010975150026FF009520756E
:101150000881020976150026FF0095207508910286
:10116000C005010980A101850319012AB7001501F5
:1011700026B700950175108100C0050C0901A10179
:10118000850419012AA002150126A00295017510F7
:101190008100C005010906A1018505050719E0299F
:1011A000E715002501950875018102050719002939
:1011B000EF1500250195F075018102050819012937
:1011C00005950575019102950175039101C0050111
:1011D0000906A101050719E029E715002501950871
:1011E000750181029501750881010507190029FF24
:1011F000150026FF009506750881000508190129CC
:1012000005950575019102950175039101C01124A1
:101210001FBECFEFDAE0DEBFCDBF12E0A0E0B1E04D
:10122000E4E6F6E702C005900D92A037B107D9F7C2
:1012300024E0A0E7B2E001C01D92A033B207E1F7BD
:101240000E9448330C94303B0C940000FF93EF93C2
:10125000E0917002F0917102309709F00995EF91D9
:10126000FF910895FC018591803011F0EFDFFBCFF5
:101270000895FF27E0E230E247FF0CC0419597FF59
:1012800009C0EDE26095709580959095611D711D86
:10129000811D911D27FF02C0219530E350E2AA274E
:1012A000660F771F881F991FAA1FA41710F0A41B91
:1012B00063955A95A9F7AA3008F0A95FA05DAF938E
:1012C000F395611571058105910541F7ED3211F432
:1012D000EF93F395F21718F43F93F395FBCF8F91AB
:1012E000B5DFFA95E1F70895E991F991859180309C
:1012F00021F0853219F0AADFF9CF089520E0E894B3
:1013000055915532C1F3503311F4689455915A33C5
:1013100048F4505390F3220F022E220F220F200D7B
:10132000250FF4CF0EF4219589919991533619F335
:10133000533729F1533559F1BC0188279927E8948F
:101340005C3621F48991999168945591543639F419
:1013500046EF7EF077FF0DC08FEF9FEF0AC0553745
:101360004AE039F0583540E121F0523642E009F0C8
:101370000895FF93EF937DDFEF91FF91B7CFFF9338
:10138000EF93FC0181918030B9F360DFFBCFFF93D5
:10139000EF9368DFF1CFDF93CF93CDB7DEB725961C
:1013A000A3DFCF91DF91089580B38C7080BB81B3B0
:1013B000836F81BB089584B1807F84B985B1807FBC
:1013C00085B98AB1837F8AB98BB1837F8BB93E9807
:1013D00046980895CF93E82F873080F580910A01D1
:1013E00090910B01892B09F047C0CE2F64E670E085
:1013F00080E40E94811D90930B0180930A01892B48
:10140000D1F464E670E082E10E94D81D90930B0154
:1014100080930A01892B79F481E090E001C0880F64
:10142000CA95EAF764E670E080950E94D81D909313
:101430000B0180930A01CF910C942D1E90E0FC01CA
:101440003797E730F105C0F4EA5AFF4F0C94F538AE
:10145000209A289811C0219A29980EC0229A2A9879
:101460000BC0239A2B9808C0529A5A9805C0539AD9
:101470005B9802C03E9A4698CF910895CF938730EB
:1014800040F580910A0190910B01892B59F564E692
:1014900070E081E40E94811D90930B0180930A010A
:1014A000892B11F0C0E011C084E690E00E94081E74
:1014B00097FF05C090930B0180930A01F3CFC82FCB
:1014C000C09510920B0110920A010E942D1E8C2FC4
:1014D0000AC09FB18FB1807F869586959370892BC6
:1014E000809501C080E0CF91089508950C94750A0D
:1014F0000C94750A0E94260C90E090930B01809347
:101500000A010E94DB090E94D409E3E7F2E0A1E8A6
:10151000B2E011921D9282E0E138F807D1F78EE037
:101520000E942C110C94720E0E94260C90E0909355
:101530000B0180930A010E94DB090E94D409E3E7B2
:10154000F2E0119282E0E138F807D9F70895EF92BE
:10155000FF920F931F93CF93DF9380910A01909195
:101560000B01892BF9F0809172028F5F80937202D8
:10157000811118C081E292E00E9432090E94260C7B
:1015800090E090930B0180930A01892B29F087E06A
:1015900092E00E94320906C083EF91E00E94320976
:1015A0000E94980B01E812E0C0E0F12C87E0E82EE1
:1015B000EC0E8C2F0E94EA098E2D0E94EA098C2FD6
:1015C0000E943E0AF8019081891719F08083D1E0CA
:1015D00001C0D0E08E2D0E943E0AF8019781891744
:1015E00019F0878381E001C080E0D82BFD2A0E949A
:1015F000DB09CF5F0F5F1F4FC730C1F62F2D4EE0C5
:1016000063E772E081E892E00E94A5110E947C0EDF
:1016100081E0DF91CF911F910F91FF90EF9008959E
:10162000E82FF0E0ED58FD4F80810895CF92DF92D2
:10163000EF92FF920F931F93CF93DF938CED91E086
:101640000E94320983E7E82E82E0F82EC0E0D0E065
:1016500097EDC92E91E0D92E0EEC11E0DF93CF93D8
:10166000DF92CF920E94CB0984ED91E00E94320973
:10167000F70181917F0190E00E948B2B9F938F93C4
:101680001F930F930E94CB098CEC91E00E943209CA
:1016900021968DB79EB708960FB6F8949EBF0FBEE1
:1016A0008DBFCE30D105D1F6DF91CF911F910F9133
:1016B000FF90EF90DF90CF900895CF92DF92EF925E
:1016C000FF920F931F93CF93DF936C01062F0E941D
:1016D0007B1D64E670E084E80E94811DCC2DDD2D29
:1016E000E12CF12C10E0E016F106A4F464E670E0C1
:1016F00088810E94D81D64E670E089810E94D81D0F
:1017000064E670E08A810E94D81D8FEFE81AF80A1B
:101710002396E9CF0E942D1EB801C601DF91CF911B
:101720001F910F91FF90EF90DF90CF900C94711A62
:1017300056985E9825982D9826982E9827982F9839
:101740008FEF90E0909389008093880090938B00B6
:1017500080938A0090938D0080938C00259A2D9A17
:101760002FEF80E792E0215080409040E1F700C0E9
:101770000000269A2E9A2FEF80E792E021508040B9
:101780009040E1F700C00000279A2F9A2FEF80E7E2
:1017900092E0215080409040E1F700C00000259881
:1017A0002D982FEF80E792E0215080409040E1F7A4
:1017B00000C0000026982E982FEF80E792E021507D
:1017C00080409040E1F700C0000027982F9856987D
:1017D0005E9825982D9826982E9827982F980895EA
:1017E00089EA8093800089E08093810024982C9876
:1017F0003F988AB18F7C8AB96E98479A8BB1806383
:101800008BB9769A0E94CF2B6093DE037093DF032F
:101810008093E0039093E10367708FEF689FB001BE
:10182000112475956795759567957727709389004D
:101830006093880070938B0060938A0070938D0092
:1018400060938C000E94980B0C94760A80E290E0E2
:1018500090930B0180930A0180918F02811112C035
:101860008BE392E00E9432090E947B1D81E080930D
:101870008F022FEF83ED90E3215080409040E1F7FD
:1018800000C0000064E670E080E40E94811D909337
:101890000B0180930A01892B09F04EC064E670E0C9
:1018A00080E00E94D81D90930B0180930A01892B40
:1018B00009F042C064E670E080E00E94D81D909379
:1018C0000B0180930A01892BB9F564E670E08FE380
:1018D0000E94D81D90930B0180930A01892B61F51A
:1018E0000E942D1E64E670E080E40E94811D9093AA
:1018F0000B0180930A01892BF9F464E670E08CE017
:101900000E94D81D90930B0180930A01892BA1F4AA
:1019100064E670E080E00E94D81D90930B018093F4
:101920000A01892B49F464E670E08FE30E94D81D18
:1019300090930B0180930A010E942D1E80910A0151
:1019400008951092DE031092DF031092E0031092CC
:10195000E10384E080618093DE036091DE03709197
:10196000DF038091E0039091E1030E94D32B0C945C
:10197000DF2B9C01FB018281882391F02830FDE55B
:101980003F0721F029303D4531F0089584E492E08D
:101990000E946F0E03C081E00E946B1880E00895E2
:1019A00081E008950895CF92DF92EF92FF926B014C
:1019B0007C0156985E9825982D9826982E98279801
:1019C0002F980E94292B90E0FC013197E730F10518
:1019D000A8F4E35AFF4F0C94F538259A2D9A0EC0BF
:1019E000259A2D9A269A2E9A09C0259A2D9A04C0D6
:1019F000259A2D9A269A2E9A279A2F9AC701B601D0
:101A0000FF90EF90DF90CF9008959C013A952115BB
:101A10003F4138F5DC01AA27B270AC01442754706D
:101A20009C012227387094FF0FC090FF02C080E114
:101A300001C080E0AB2B09F08062452B09F0806487
:101A4000232B69F080680BC0892F8170AB2B09F0C4
:101A50008260452B09F08460232B09F08860FB012C
:101A600009940895CF93DF93EC01805E9109089764
:101A700010F0209719F463E571E202C066E574E2A4
:101A8000CE010E94050D8C2FDF91CF910C943A204E
:101A9000CF93DF93EC010E94E120CE01805E91099B
:101AA000089710F0209719F46AE571E202C06DE51D
:101AB00074E2CE01DF91CF910C94050DCF93DF93AB
:101AC000EC010E94320DCE01DF91CF910C94480DB4
:101AD00081E008950C94B90C08950C946C0D1F933B
:101AE000CF93DF9300D000D01F92CDB7DEB74983EC
:101AF0005A836B833091150389819A81311114C007
:101B0000662359F0222349F00E94C729182F682F15
:101B100089819A810E946E2903C00E949A29182FF8
:101B200069817A81812F04C00E94C72969817A81E5
:101B30000F900F900F900F900F90DF91CF911F910A
:101B40000C94160FFC01262F408151816281738114
:101B500084810C946F0DCF93DF93EC0160E00E94C1
:101B6000A20DBE01DF91CF910C946D0DFF920F93EA
:101B70001F93CF93DF93E82FF0E0E657FB4FF490ED
:101B8000C82FC695C695C695D0E0FE01E65EFA4F11
:101B90000491877010E0082E02C0159507950A94ED
:101BA000E2F701701127FE01E65FFA4FC491D0E021
:101BB00002C0D595C7958A95E2F7C170DD2701155A
:101BC000110519F081EE0E943A20209719F086EE57
:101BD0000E943A208F2D0E944021CD2B19F086EED5
:101BE0000E94E120012B41F081EEDF91CF911F9106
:101BF0000F91FF900C94E120DF91CF911F910F91F5
:101C0000FF900895EF92FF920F931F93CF93DF936E
:101C10008C01F62E8AE0E82EF8018491882309F4DD
:101C200057C0813009F042C0E8012196FE0184913D
:101C3000813031F42196FE0184910E94402139C007
:101C4000823039F4E8012296FE0184910E943A2004
:101C500030C0833039F4E8012296FE0184910E945D
:101C6000E12027C0843029F5E8012296FE01249165
:101C700080E090E030E0205331092A30310560F4F3
:101C8000E89EA001E99E500D1124C901840F951F03
:101C90002196FE012491EECF009759F0EFE9FFE085
:101CA0003197F1F700C000000197F6CF0E94B60D02
:101CB000E8018E010F5F1F4F8F2D882309F4ACCFF1
:101CC000EFE9FFE03197F1F700C000008150F5CF58
:101CD000DF91CF911F910F91FF90EF90089560E0F9
:101CE0000C94020E0E949E2B811102C00E943B2C7C
:101CF0000E94B11A0C94F00B0C94780A282F2F70C4
:101D000041F0822F90E02A3010F44D960895069706
:101D1000089587E290E0089508950C948C0E81E078
:101D200008950C948F0ECF93C82F0E948D0E8C2F88
:101D30000E94910ECF91089508950E947A240E94E6
:101D40009C0E2FEF84E39CE0215080409040E1F70F
:101D500000C000000C94F62D0F931F93CF93DF93D8
:101D6000EC0161E00E94A20D8C01BE010E946A0D8F
:101D7000882309F450C0BE01C8010E944E1B88236D
:101D800009F449C0BE01C8010E94DE1B882309F482
:101D900042C0BE01C8010E941F1C8823E1F1BE01A0
:101DA000C8010E944A1D8823B1F1BE01C8010E94EA
:101DB000001A882381F18A81882331F101308CE572
:101DC000180751F00E3D8CE51807D9F001151C4598
:101DD000D9F40E949D0E1FC08091B503C82FC095F5
:101DE000C170C0FB80F98093B503CC2329F089E74B
:101DF00094E00E9432090FC087E694E00E94320905
:101E00000BC00E943B2C07C0CE01DF91CF911F91E8
:101E10000F910C94680DC0E08C2FDF91CF911F9132
:101E20000F91089580E090E00895089524E5829F41
:101E3000C0011124FC0126E0729FE00DF11D112468
:101E4000E60FF11DEE0FFF1FE159FD4F85919491B3
:101E50000895880F991FFC01E65DFA4F85919491D2
:101E60000895CF93DF930E94160F0E945510EC0146
:101E7000811521E59207E8F5811540E5940708F002
:101E8000BCC0883E910500F5803E910508F009C16F
:101E9000883A910570F4853A910508F088C0813040
:101EA000910509F4FEC008F4FAC0049708F0F9C0DF
:101EB000F6C08F3B910508F482C0803C910508F480
:101EC000EEC0805C910988C0C11580E3D80758F442
:101ED000C11520E2D20708F07DC0C11541E0D4074A
:101EE00008F0DFC0DCC0C11580E4D80708F082C06C
:101EF00077C0811526E5920770F5811545E59407B1
:101F000008F0B1C0C11583E5D80750F4C11522E52A
:101F1000D20708F08DC0DC2FCC27C16FD06AC1C0BA
:101F2000C11544E5D40708F099C0CE018370992704
:101F300021E030E002C0220F331F8A95E2F78C2F98
:101F40008695869540E2849FC0011124E901C82B43
:101F5000D92BDA68A6C0C1158AE5D80778F4C1156F
:101F600029E5D20708F088C0C11548E5D40708F470
:101F700096C0DC2FCC27C06FD06A93C0C1158BE50B
:101F8000D80708F48CC0C1152CE5D20708F484C02A
:101F9000CE0190568115904208F081C08D2F8F712F
:101FA0000E94E910DD27D0628F71D82B7AC0C55A04
:101FB000D0E0CF5FDD4FC881D0E0D06472C0C85A96
:101FC000D0E0CC0FDD1FCD52DE4F0990D881C02D5F
:101FD000D46467C0CE019F700E94290FEC0161C0DC
:101FE000CE019927D3FF03C0EC01D86C5AC0EC0195
:101FF000D06C57C0DF70D06A54C074E09695879556
:102000007A95E1F783709C2F937021E030E002C055
:10201000220F331F9A95E2F73C68382BCF70C69594
:10202000C69580E2C89FE0011124C22BD32B39C092
:10203000CE018370992721E030E002C0220F331FC8
:102040008A95E2F78C2F8695869540E2849FC001A1
:102050001124E901C82BD92BDC6823C0DC2FCC2745
:10206000C46FD06A1EC00E94E9108F71C82FD0E0E3
:10207000DC2FCC27D06215C08C2F8F700E94E91006
:1020800094E0D695C7959A95E1F7CF70D0E0DC2F14
:10209000CC27D069C82B05C0DD27D06602C0C0E0C0
:1020A000D0E0CE01DF91CF9108958238910569F19A
:1020B000B0F48133910509F46DC048F4893291057B
:1020C00009F463C08A32910509F469C00895853323
:1020D000910509F455C089339105B9F00895833EFF
:1020E000910569F138F4803E9105B1F0823E910589
:1020F00009F10895863E9105A9F1873E9105B9F150
:10210000843E910509F064C023C020911D0420FD88
:102110004FC021FD4DC0089580911D0480FD44C035
:1021200080911E0480FF44C080911D0484FD42C044
:1021300083EE4DC080911D0482FF38C0F5CF8091A1
:102140001D0482FD33C080911E0480FD31C0ECCFA0
:1021500080911E0481FF32C080911D0484FD2AC03D
:1021600087EE35C080911D0483FF26C0F5CF809196
:102170001D0483FD21C080911E0481FD1FC0ECCF92
:1021800080911D0485FD1CC01DC080911D0485FD2E
:1021900019C016C080911D0486FD16C017C080911D
:1021A0001D0486FD13C010C089E311C082EE0FC06C
:1021B00080EE0DC080E00BC086EE09C084EE07C043
:1021C00089E205C085E303C08AE201C081E390E0B3
:1021D000089590911D0492FF0DC0282F287128307A
:1021E00019F4877F846006C0282F2471243011F4ED
:1021F0008B7F886093FF0DC0282F2871283119F438
:10220000877E846106C0282F2471243111F48B7ECF
:10221000886120911E0420FF0DC0382F387138309E
:1022200019F4877F816006C0382F3171313011F485
:102230008E7F886021FF0DC0282F2871283119F466
:10224000877E816106C0282F2171213111F48E7E95
:10225000886194FD877E0895CF93C82F90E00E94F7
:10226000FB388093940290939502282FFC019BEFFA
:102270008E2F821B8C1710F49193FACFCF91089573
:102280000F931F93CF93DF93A62F10929302309159
:102290009402E32FF091950220E0C62FD0E0BBEF2F
:1022A0000BEF10E09E2F931B981700F590819B3F3A
:1022B000D9F0492F50E0A91728F0BE01641B750B17
:1022C000AB0106C0B801641B750BAB014C0F5D1F61
:1022D000052E000C660B770B4E315105610571051B
:1022E00010F0B08301C021E03196DCCF209393023F
:1022F000DF91CF911F910F910895CF93DF931092AB
:1023000096025091940230919302DB01EC01E52F8B
:10231000F091950290E08E2F851B841778F48991B7
:102320006C91681741F060816B3F21F420838C939E
:1023300031E001C091E031961196EDCF30939302D8
:1023400090939602DF91CF910895DF92EF92FF92E2
:102350000F931F93CF93DF93EC018B01E42ED22ECA
:102360000E94A92DAC01609191027091920290930C
:1023700092028093910290919002292F30E0261BC7
:10238000370BC901840F951F6BEF70E00E94CD38A9
:10239000F82E8093900280919302882319F16F2D7B
:1023A0008E2D0E944011DD2069F02F2D4E2DB80199
:1023B000CE01DF91CF911F910F91FF90EF90DF90B1
:1023C0000C947D1180919302882379F38091960279
:1023D0008111EBCFDF91CF911F910F91FF90EF9083
:1023E000DF900895D110E1CFF1CFEF92FF920F93DC
:1023F0001F93CF93DF93F62E472FE82FF0E0711154
:1024000006C0EE5DF64F6491762F862F72C0272F9F
:1024100030E0EE5DF64FE4910E2F10E056E0659F40
:10242000C0011124CFEFD0E0BE010E94CD385BEA9D
:102430005603C001579F900D11248F0D911D8F0DD4
:10244000911D982F990F890F7E01E21AF30AE09EE1
:10245000D001E19EB00DF09EB00D1124489FA00167
:102460001124452F55277E01E41AF50AE09EA001AC
:10247000E19E500DF09E500D11247E01E81AF108E6
:10248000E29EC001E39E900DF29E900D1124892FD3
:102490009927C81BD90BC09FC001C19F900DD09F29
:1024A000900D11246230710591F048F461157105A9
:1024B000E1F061307105A9F48B2F752F19C06430DC
:1024C000710561F038F06630710579F00AC0892F26
:1024D0007B2F0EC08E2F7B2FE52F0AC08E2F792FDA
:1024E00002C0852F7E2FEB2F03C08B2F7E2FE92F6D
:1024F0006E2FDF91CF911F910F91FF90EF90089574
:102500000895CF93DF93762FE901682F842F0E94DF
:10251000F511798368838A83DF91CF910895809143
:10252000E203282F269530E02115310519F481703A
:10253000826005C02B32310524F081708465809360
:10254000E203089588E090E00C948D3ACF92DF92F8
:10255000EF92FF926B017C010E948F12B701A601DE
:1025600088E090E0FF90EF90DF90CF900C94AB3A32
:10257000E2EEF3E083E0808311828FEF8283838336
:10258000148260817181828193810C94A612809162
:10259000B50380FF08C08FEE97E09F938F930E9452
:1025A000CB090F900F908091B50380FF0FC08091F1
:1025B000E20381701F928F9382ED97E09F938F9338
:1025C0000E94CB090F900F900F900F908091B50350
:1025D00080FF0FC08091E20386951F928F9387EB57
:1025E00097E09F938F930E94CB090F900F900F90CD
:1025F0000F908091B50380FF0EC08091E3031F927E
:102600008F938DE997E09F938F930E94CB090F9052
:102610000F900F900F908091B50380FF0EC08091B6
:10262000E4031F928F9383E897E09F938F930E9418
:10263000CB090F900F900F900F908091B50380FF02
:102640000EC08091E5031F928F9389E697E09F93D8
:102650008F930E94CB090F900F900F900F90809155
:10266000B50380FF0EC08091E6031F928F938DE427
:1026700097E09F938F930E94CB090F900F900F903C
:102680000F9008958091E20380FF02C0869508951F
:1026900080E008958091E603833018F48F5F809383
:1026A000E6036091E2037091E3038091E40390916B
:1026B000E5030C94A6128091E603882319F081505B
:1026C0008093E6036091E2037091E3038091E40359
:1026D0009091E5030C94A61260910F018091E203A2
:1026E00080FF0AC080910E0123E0829FC001112467
:1026F00089519C4F0C945D0B8091100190911101B8
:10270000891780F7E82FF0E09F01220F331FE20FB7
:10271000F31FE951FC4F1182108212828F5FF0CFBC
:102720009091E20390FF16C0909110012091110149
:10273000921770F4E92FF0E0DF01AA0FBB1FEA0F38
:10274000FB1FE951FC4F8183608342839F5FF0CF81
:102750000C946C130895CF93DF9300D01F92CDB7E4
:10276000DEB79091E20390FF0AC09E012F5F3F4FBA
:102770000E9481124B8169818A810E9490130F907F
:102780000F900F90DF91CF910895CF93DF93EC01DD
:10279000EC81F0E0E35EF74F4491E2EEF3E062811A
:1027A00081810E94AB138C818F5F8C83DF91CF91ED
:1027B0000895CF93DF93EC01E2EEF3E04381628171
:1027C0008C810E94AB138C818F5F8C83DF91CF91C2
:1027D00008950F931F93CF93DF9300D01F92CDB72F
:1027E000DEB78C018091970281110AC09E012F5F94
:1027F0003F4F4FEF6FEF0E9481128A8180939702C3
:10280000F8018481813051F028F0823061F44091E8
:1028100097020AC08091970240E007C0609197023A
:1028200040E080E003C040E080E060E00E94901360
:10283000F801848190E0019663E070E00E94E13845
:1028400084830F900F900F90DF91CF911F910F9184
:1028500008954F925F926F927F928F929F92AF9264
:10286000BF92CF92DF92EF92FF920F931F93CF937D
:10287000DF9300D01F92CDB7DEB7F82EB62EE42E30
:10288000622E9091E20390FFB4C0E92FE695AE2F3F
:10289000B0E0AC5FBD4F8C918093EC029E7F923094
:1028A00061F49E012F5F3F4F8F2D0E9481124B815B
:1028B00069818A810E94901362C0823019F4E0908D
:1028C000E5035DC0863019F4F090E30358C0893009
:1028D000D9F3893109F053C0E9518E2F8170782ED8
:1028E00081E0A72CA826E695F0E0E35EF64FC590C0
:1028F000D490412CDD2498EA892E95E0992E6091A0
:1029000012014616D0F5042D10E00C9DC0010D9D5E
:10291000900D1C9D900D112470E00E94CD385F2C0D
:10292000711002C0560E01C0561A8091B50380FF87
:1029300011C0DF92CF921F92AF921F925F921F92AF
:102940004F929F928F920E94CB090FB6F894DEBFF0
:102950000FBECDBF80911001080F111D9801220FED
:10296000331F020F131F980129513C4F4E2D6B2D21
:10297000852D0E9481124394C2CF0E946C13F09265
:10298000E303B092E403E092E5036620E9F060918E
:10299000E2037091E3038091E4039091E5030E94C8
:1029A000A6128091B50380FF24C08091E5031F9299
:1029B0008F938091E4031F928F938091E3031F9282
:1029C0008F9383E895E00CC08091B50380FF11C020
:1029D0001F92EF921F92BF921F92FF928CE595E09B
:1029E0009F938F930E94CB090FB6F894DEBF0FBE62
:1029F000CDBF0F900F900F90DF91CF911F910F914E
:102A0000FF90EF90DF90CF90BF90AF909F908F900E
:102A10007F906F905F904F900895E2EEF3E0918188
:102A2000282F438162818CE0890F0C94291481E066
:102A30000C940D15E2EEF3E09181282F4381628121
:102A400084EF890F0C94291481E00C941A15E2EE9E
:102A5000F3E062812FEF620F08F46FEF282F4381BC
:102A600081810C94291481E00C942715E2EEF3E0A7
:102A700062812FEF621B08F460E0282F438181817F
:102A80000C94291481E00C943615E2EEF3E04381B6
:102A90002CE0420F08F44FEF282F628181810C94C3
:102AA000291481E00C944515E2EEF3E043812CE01B
:102AB000421B08F440E0282F628181810C94291484
:102AC00081E00C94541520E00C942914FF920F938C
:102AD0001F93CF93DF93EC01F12C0FEF10E0609187
:102AE0001201F616F0F4809110012F2D30E0280F1E
:102AF000311DC901880F991F280F391F29513C4FDB
:102B000070E0C8010E94E138962F8C814091E50366
:102B10006091E403F99E800D11240E948112F394C8
:102B2000DECF0E946C139A818C8190FF02C08F5F70
:102B300001C081508C83DF91CF911F910F91FF9045
:102B40000895AF92BF92CF92DF92EF92FF920F93D0
:102B50001F93CF93DF93FC01828180FF02C00FEFB0
:102B600001C001E010E04FE0A42E8091120118177F
:102B700008F043C080911001C12ED12CE601C80F8E
:102B8000D11DCE01880F991FC80FD91FC951DC4F25
:102B9000198218821A8234E0E32EF12CB12C809134
:102BA00099028B0D80312CF06A2D0E94BF38892F3D
:102BB00005C087FF03C090911201890F082E000CF9
:102BC000990BC816D90691F48091E5038E9DA0015A
:102BD0008F9D500D112455954795559547959E010C
:102BE0006091E4038091E3030E948112B00EF1E052
:102BF000EF1AF108A1F61F5FB8CF0E946C13809105
:102C00009902013031F4811102C08091120181508A
:102C100007C090E001966091120170E00E94E138D7
:102C200080939902DF91CF911F910F91FF90EF90C8
:102C3000DF90CF90BF90AF900895CF938091100117
:102C400090911101891770F4E82FF0E09F01220F95
:102C5000331FE20FF31FE951FC4F118210821282E1
:102C60008F5FF0CFC0E060911201C617C0F5EC2F66
:102C7000F0E070E0CF010E94E13820911001820F56
:102C800020919802022E000C330B90E0E217F3071C
:102C9000CCF020910D01022E000C330B2E173F07B4
:102CA0008CF09C01220F331F820F931F9C0129512E
:102CB0003C4F4091E5036091E4038091E3030E945F
:102CC00081120BC0FC01EE0FFF1F8E0F9F1FFC0136
:102CD000E951FC4F118210821282CF5FC4CF0E9453
:102CE0006C1320910C0180919802820F80939802BE
:102CF00090910D01920F90930D0119165CF4082E1E
:102D0000000C990B4091120150E041505109841779
:102D100095071CF0219520930C01CF9108950F93F6
:102D20001F93CF93DF938C01FC01848195810196E1
:102D30008170992795838483C0E0D5E58091120145
:102D4000C81700F5809110012C2F30E0280F311D9D
:102D5000C901880F991F280F391F29513C4F4C2F4B
:102D60004695F80184819581840F911D8170409171
:102D7000E5036091E4038D9F802D11240E94811250
:102D8000CF5FDCCFDF91CF911F910F910C946C132B
:102D90000F931F93CF93DF93EC0100E010E080913D
:102DA0001201282F30E00217130724F5909110012B
:102DB0009801290F311DA901440F551F240F351FFC
:102DC00029513C4F869590E04C81081719071CF457
:102DD000442331F002C0411103C04091E50301C01A
:102DE00040E06091E4038091E3030E9481120F5F51
:102DF0001F4FD5CF0E946C138C8190E0019681709B
:102E000099278C83DF91CF911F910F9108958F9215
:102E10009F92AF92BF92CF92DF92EF92FF920F9369
:102E20001F93CF93DF93FC01B280948081E0848371
:102E300000E015E05BE4A52E88248394EE24EA9458
:102E4000F12C7BE4C72ED12C80911201081708F0D9
:102E50008FC0C02FD0E01C9FF0011D9FF00D1124EA
:102E6000E656FD4F911003C01382128267C0238182
:102E7000222389F1215023833481332319F09A2DA1
:102E8000921B01C0922F8091E5031C9FF0011D9FB2
:102E9000F00D1124E656FD4F899FC0011124B601A3
:102EA0000E94CD386283211104C0332311F01482B3
:102EB000A38222E02B1508F441C01C9FF0011D9F46
:102EC000F00D1124E656FD4F8091E303808380913D
:102ED000E403818333C00E94683A8230914074F5E4
:102EE00082E08B1530F40E94683AB7010E94E13805
:102EF00002C08091E3031C9FF0011D9FF00D11247F
:102F0000E656FD4F808322E02B1558F40E94683A64
:102F10002091E4032695622F70E00E94E138820F31
:102F200002C08091E4031C9FF0011D9FF00D11244D
:102F3000E656FD4F81831282A38284828091100124
:102F40009E01280F311DC901880F991F280F391FB5
:102F500029513C4F1C9FF0011D9FF00D1124E65696
:102F6000FD4F4281618180810E9481120F5F6CCF91
:102F7000DF91CF911F910F91FF90EF90DF90CF9055
:102F8000BF90AF909F908F900C946C136091E20370
:102F9000669570E04BE050E083E191E00E94783A62
:102FA000892B19F481E08093ED020E94A92D909362
:102FB000E6028093E5028091B50380FF08C083E4B8
:102FC00095E09F938F930E94CB090F900F900895E7
:102FD0001092ED028091B50380FF08C08AE295E06F
:102FE0009F938F930E94CB090F900F90089590911B
:102FF000E20390FF54C09170811102C0926006C03C
:103000008B3210F0946502C0880F982B9093E203E6
:103010006623B1F06091E2037091E3038091E403D1
:103020009091E5030E94A6128091B50380FF1BC01A
:103030008091E20386951F928F9383E996E00BC0FF
:103040008091B50380FF0FC08091E20386951F92A7
:103050008F9385E796E09F938F930E94CB090F9003
:103060000F900F900F906091E203669570E04BE037
:1030700050E083E191E00E94783A892B19F00E9498
:10308000E81702C00E94C61781E08093E8024091D1
:10309000E5036091E4038091E3030C9463150895C4
:1030A000682F9091E203969581E0890F8B3208F0AA
:1030B00081E00C94F71781E00C945018682F9091E0
:1030C000E20396958FEF890F09F48AE20C94F717C3
:1030D00081E00C945E1861E00C94F7178091E20394
:1030E00081608093E2038091B50380FF0DC01F9241
:1030F00081E08F9387E096E09F938F930E94CB09A6
:103100000F900F900F900F908091E20386950C9492
:103110006B1860E00C94F7178091EB02811160C08E
:103120008091B50380FF08C086E397E09F938F935B
:103130000E94CB090F900F908091B50380FF08C0CB
:1031400080E297E09F938F930E94CB090F900F909E
:103150000E949E2B811110C08091B50380FF08C092
:1031600088EF96E09F938F930E94CB090F900F906A
:103170000E943B2C0E94B8120E94A2126093E203AC
:103180007093E3038093E4039093E5036E7FC1F4AF
:103190008091B50380FF08C08FEA96E09F938F93DC
:1031A0000E94CB090F900F900E94B8120E94A212A9
:1031B0006093E2037093E3038093E4039093E50349
:1031C0000E948F120E94C7121092ED028091E203BA
:1031D00080FF03C086950E94891881E08093EB02EE
:1031E00008958091E2038E7F8093E2036091E20371
:1031F0007091E3038091E4039091E5030E94A6128D
:103200008091B50380FF0FC08091E20381701F920F
:103210008F938FEC95E09F938F930E94CB090F9033
:103220000F900F900F900E94E8172FEF80E792E029
:10323000215080409040E1F700C000000C946C13D6
:103240008091B50380FF10C08091E203809581706A
:103250001F928F938EE396E09F938F930E94CB09EA
:103260000F900F900F900F908091E20380FD0C94CF
:10327000F1180C946E180F931F93CF93DF938091E6
:10328000ED02882309F49CC08091EC02E091E203F6
:10329000E695E81BE093E702823049F4F0E0E75E50
:1032A000F74FE491CE2FD0E005EC13E159C0863002
:1032B00049F4F0E0EA5EF74FE491CE2FD0E009ED5B
:1032C00013E14EC0893051F4E695F0E0ED5EF74F22
:1032D000E491CE2FD0E006E615E142C08F3051F4E4
:1032E000E695F0E0E05FF74FE491CE2FD0E001EA01
:1032F00015E136C0853149F4F0E0E35FF74FE49122
:10330000CE2FD0E00DE116E12BC08831D9F0833209
:1033100039F4EBE0F8E0C591D49109EE13E120C057
:103320008432A9F08532C1F48E2F63E00E94B33855
:10333000E92FF0E0E85FF74FE491CE2FD0E007E00F
:1033400017E10EC0C8EED3E00FE816E109C0C4EFE4
:10335000D1E008EC16E104C0C0EDD7E000E812E1CE
:103360008091E802882389F01092E8020E94A92D3A
:103370009E0120953095820F931F9093E6028093D3
:10338000E5021092EA021092E9028091E502909122
:10339000E6020E94C12D8C179D0790F0E091E50296
:1033A000F091E602CE0FDF1FD093E602C093E50254
:1033B00085EE92E0F801DF91CF911F910F91099472
:1033C000DF91CF911F910F910895882311F0FA0199
:1033D00001C0FB010994CF93DF93C82FD62F0E9421
:1033E00042138C1740F00E9442138D1720F4DF9196
:1033F000CF910C945B188C2FDF91CF910C946B18AC
:103400000F931F93CF93FB01C281CC2309F463C0B8
:103410008C010E94702A8272F801E25CFC45E43162
:10342000F10508F059C0EC59FF4F0C94F5380E9493
:10343000201906C048E658E16BE578E10E94E519DD
:10344000C0E04AC04BE558E168E678E1F7CF44E2D6
:1034500055E167E175E1F2CF47E155E164E275E1DD
:10346000EDCF42E455E163E375E1E8CF43E355E195
:1034700062E475E1E3CF40E655E161E575E1DECF59
:1034800041E555E160E675E1D9CF4BE553E16AE4EA
:1034900073E1D4CF4AE453E16BE573E1CFCF81E030
:1034A00017C065E082E010C068E086E00DC06EE005
:1034B00089E00AC064E18FE007C067E185E104C0EC
:1034C00088E106C062E289E10E94EB19B9CF83E28C
:1034D0000E946B18B5CFC1E08C2FCF911F910F9137
:1034E0000895579A2BB12F773BB130684FB7F894B6
:1034F000FC01CB01880F991F680F791F6E0F7F1F8A
:10350000E617F70789F0819198E03BB9000000C009
:1035100087FF2BB9880F000000C000C000C02BB986
:1035200000C09A9591F7ECCF4FBF8FE594E00197DB
:10353000F1F700C000000895CF93DF9397FF0DC00F
:10354000FB012281222349F0EC010E94F01ACE01F6
:103550009F770E94311B0E941A1B81E0DF91CF915F
:1035600008958CE090E00E94853A90E0A0E0B0E001
:103570008093140490931504A0931604B093170439
:103580008091B50380FF0EC0809114041F928F9329
:1035900081E49AE09F938F930E94CB090F900F9044
:1035A0000F900F900895609114048CE090E00C94BB
:1035B000993A809314040E94D31A8091B50380FF36
:1035C0000EC0809114041F928F9382E29AE09F9321
:1035D0008F930E94CB090F900F900F900F9008953A
:1035E0000E94702A809318040E94832A80911404F8
:1035F000813071F048F0823081F08430A1F486EEA1
:103600000E94402188E10DC082EE0E943A200BC04A
:1036100088E193E00E945E0D06C082EE0E943A208F
:1036200087E50E9440218FE39CE90197F1F700C0F4
:103630000000089580911404813039F040F0823008
:1036400031F0843051F488E206C08CE204C082EE8E
:103650000E94E12002C00E944021809118040C9435
:10366000802A0F931F93CF93DF938C01CCE0D0E09F
:10367000C8010C2E02C0969587950A94E2F78F70C8
:103680000E947E0E0E9440212497CC3F8FEFD807E6
:1036900079F7DF91CF911F910F9108950F931F93A9
:1036A000CF93DF93EC018B01FB018281882351F0E2
:1036B0000E94702ACE01815E9C458530910510F4F0
:1036C0000E94D91AB801CE01DF91CF911F910F91BD
:1036D0000C949C1A0F931F93CF93DF93C62FD42F74
:1036E000122FFC0182818823C9F06093F0020E94AE
:1036F000A92D9093EF028093EE0280E28C0F883028
:1037000008F057C0C77081E001C0880FCA95EAF77A
:10371000DF91CF911F910F910C9453218091F00272
:10372000681330C08091EE029091EF020E94C12D8B
:10373000883C910538F500E20D0FCD17B9F080E215
:103740008C0F883040F4C77081E001C0880FCA95A3
:10375000EAF70E945A21083028F581E09D2F9770E2
:1037600001C0880F9A95EAF70E945321812F0E9489
:1037700040210830F0F4D77081E001C0880FDA955D
:10378000EAF70AC080E28C0F883098F4C77081E0B5
:1037900001C0880FCA95EAF7DF91CF911F910F9171
:1037A0000C945A21812FDF91CF911F910F910C948E
:1037B0004021DF91CF911F910F9108959C01CB0182
:1037C000233F4CE53407F9F078F4283DFCE53F074A
:1037D000B9F0293D4CE5340711F1273D3C4531F561
:1037E00026E241EE61EE1EC0253FFCE53F0799F061
:1037F00070F0263F3C45D1F427E245EE66EE12C05C
:1038000027E245EE0EC026E241EE60EE0BC027E255
:1038100045EE64EE07C026E241EE62EE03C028E208
:1038200041E065EE0E946A1B80E00895FC01828100
:10383000882319F01092F002089581E00895CF9343
:10384000DF93EC01FB018281882309F41FC1C230A0
:10385000FCE5DF0708F41BC1C6319CE5D90738F049
:103860009E012A5F3C452930310508F010C10E94B5
:10387000B12B90931E0480931D04C031ECE5DE074C
:1038800009F4C3C008F041C0C8308CE5D80709F47A
:103890009AC0F0F4C430ECE5DE0709F487C068F4A0
:1038A000C2308CE5D80709F477C0C330DC4509F095
:1038B000E3C080911D04826076C0C630ECE5DE076F
:1038C00009F46EC008F07BC080911D0488606BC055
:1038D000CC308CE5D80709F485C068F4CA30ECE533
:1038E000DE0709F474C008F079C00E947A24809140
:1038F0001D04806858C0CE308CE5D80709F476C026
:1039000008F07FC080911D048BC0CB3FECE5DE0743
:1039100009F44FC018F5C3318CE5D80709F47DC010
:1039200078F4C131ECE5DE0709F473C0C231DC453F
:1039300009F0A2C00E947A2480911D048F7733C0C1
:10394000C5318CE5D80709F472C008F486C0CA3FB7
:10395000DC4509F091C080911E043EC0CF3FFCE5DC
:10396000DF0709F45FC058F4CD3F9CE5D90709F49F
:1039700044C008F43FC080911E0482602DC0C13055
:10398000FDE5DF0709F475C008F45DC0C230DD4510
:1039900009F072C080E06EC080911D04816003C098
:1039A00080911D04806180931D0466C080911D0478
:1039B00011C080911E04826080931E045DC08091BE
:1039C0001D048062F0CF80911D048064ECCF809153
:1039D0001D0488608460E7CF8160EECF80911D0474
:1039E0008E7FE1CF80911D048D7FDDCF80911D04FE
:1039F000877FD9CF80911E0418C080911E048D7FCF
:103A0000DBCF80911D048F7ECECF80911D048F7DF2
:103A1000CACF80911D048F7BC6CF80911D04877F04
:103A20008B7FC1CF80911E048D7F8E7FC5CF80910B
:103A30001D0482FB222720F991E0922790FB82F956
:103A400090FB83F9B0CF80911E04982F90959170D0
:103A50008E7F892B90FB81F9AFCF0E947A248091D1
:103A60001D0487FB222720F991E0922790FB87F91C
:103A70009ACF81E00E943D2C80911D0490911E04FC
:103A80000E94C22B0E947A2480E001C081E0DF9175
:103A9000CF910895CF93DF9386319C4541F5EB019B
:103AA0000E94702A982F8A8120911E0130911F0157
:103AB000882379F09A7A81E009F480E08093F1021A
:103AC000911102C069E201C065E3C9010E94FA2CAC
:103AD0000AC08091F102811102C069E201C065E370
:103AE000C9010E94052D0E94C12A80E001C081E029
:103AF000DF91CF9108951092B90088E48093B800C7
:103B00000895EF92FF920F931F93CF93DF93182F97
:103B1000EB011092BC0084EA8093BC000E94A92DA6
:103B20007C018091BC0087FD0EC0CF3F8FEFD8078E
:103B3000C1F30E94A92D8E199F098C179D0788F348
:103B40008EEF9FEF2EC08091B900887F883041F0C2
:103B50008091B900887F803119F08FEF9FEF21C0ED
:103B60001093BB0084E88093BC000E94A92D8C01B7
:103B70008091BC0087FD0CC0CF3F8FEFD807C1F309
:103B80000E94A92D801B910B8C179D0788F3D8CF1D
:103B90008091B900887F883111F08034F1F680E09F
:103BA00090E0DF91CF911F910F91FF90EF900895DA
:103BB0000F931F93CF93DF93EB018093BB0084E8B7
:103BC0008093BC000E94A92D8C018091BC0087FDD0
:103BD0000EC0CF3F8FEFD807C1F30E94A92D801BE5
:103BE000910B8C179D0788F38EEF9FEF0CC02091EF
:103BF000B900287F81E090E0283211F480E090E065
:103C0000919581959109DF91CF911F910F91089521
:103C10000F931F93CF93DF93EC0184E88093BC0054
:103C20000E94A92D8C018091BC0087FD0EC0CF3F62
:103C30008FEFD807C1F30E94A92D801B910B8C1721
:103C40009D0788F38EEF9FEF03C08091BB0090E04B
:103C5000DF91CF911F910F91089584E98093BC006B
:103C600008959093F7028093F6020895E091F6028A
:103C7000F091F702309721F00190F081E02D099446
:103C800080E00895EF92FF921F93CF93DF93FC01A2
:103C9000A091F602B091F702109709F442C080910A
:103CA0002A01882341F080911D0487FF04C0808190
:103CB000818385E08083EF011296ED91FC9113974B
:103CC000CE0109958091B50382FF2BC080FF04C00F
:103CD00089E69AE00E94320918E083E6E82E8AE03D
:103CE000F82E8091B50380FF0BC088811F928F93BF
:103CF000FF92EF920E94CB090F900F900F900F90C0
:103D0000115021961111EDCF8091B50380FF09C0AC
:103D100081E69AE0DF91CF911F91FF90EF900C9494
:103D20003209DF91CF911F91FF90EF90089520917C
:103D3000F4023091F5022817390771F09093F502DB
:103D40008093F402E091F602F091F702309721F0AF
:103D50000680F781E02D099408952091F2023091B8
:103D6000F3022817390771F09093F3028093F2025F
:103D7000E091F602F091F702309721F00084F1858E
:103D8000E02D0994089585B7806885BF85B7806860
:103D900085BF089508950C94CA1E0C94CB1E0C94F4
:103DA000CA1E0C94D20C0E94C31E0E94CF1E0C94FB
:103DB000CD1E81E008950C94D91E0E94A02D0E9472
:103DC0007A0A0E94282E0E948C180C94D11ECF9340
:103DD000C82F8091B50382FF1EC080FF04C082E817
:103DE0009AE00E9432098091B50380FF0CC01F92B7
:103DF000CF938DE79AE09F938F930E94CB090F900A
:103E00000F900F900F908091B50380FF04C08BE757
:103E10009AE00E9432098C2FCF910C94930EAF92AE
:103E2000BF92CF92DF92EF92FF920F931F93CF93A7
:103E3000DF93CDB7DEB72A970FB6F894DEBF0FBE7B
:103E4000CDBF0E94A70A0E94DB1E811111C08FEF17
:103E500089838A831B820E94A92D8160782F9D838C
:103E60008C8349815A816B818D810E94E31F40C000
:103E700089EFA82E82E0B82E00E010E0C02E802F3F
:103E80000E94100BE82EF501D1905F01D82631F485
:103E90000F5F1F4F0E30110589F7D9CF8091B50301
:103EA00081FD0E94160B80E0FF24F3949D2D9F213D
:103EB000D1F08E83CF82EF2081E009F480E0888703
:103EC0000E94A92D8160782F9A8789874E815F8112
:103ED00068858A850E94E31FF801E750FD4F8081C5
:103EE000F826F08205C08F5FFF0C8630F9F6D0CF40
:103EF0000E943B190E94361E9091F8028917B1F07A
:103F00000E94361E8093F8022A960FB6F894DEBF00
:103F10000FBECDBFDF91CF911F910F91FF90EF901A
:103F2000DF90CF90BF90AF900C94E71E2A960FB60B
:103F3000F894DEBF0FBECDBFDF91CF911F910F91DF
:103F4000FF90EF90DF90CF90BF90AF900895DC018D
:103F500011962C9111978C91682F70E041E050E000
:103F600001C0440F8A95EAF712968C91129730E0BF
:103F7000882329F0809117038823E9F006C0F9010E
:103F8000E95FFC4F90819423B1F086E0829FF001BD
:103F9000839FF00D1124E60FF71FEE0FFF1FE55D65
:103FA000FE4F808191818D939C93F901E95FFC4FD5
:103FB0008081482B06C0F901E95FFC4F4095808164
:103FC000482340830895CF93DF93CDB7DEB72B9777
:103FD0000FB6F894DEBF0FBECDBF942F4F83252FB1
:103FE000588769877A878B874A855B85452B31F0AF
:103FF0002F3F31F481E09F3F19F403C081E001C0FD
:1040000080E080FD04C0CE0107960E94A71FDE015C
:10401000119686E0FD0111928A95E9F785E0FE018F
:10402000379601900D928A95E1F749815A816B810B
:104030007C818D819E810E9433272B960FB6F89448
:10404000DEBF0FBECDBFDF91CF910895FC0180810F
:1040500091810E94092A92959F70963051F4863F73
:1040600041F08091170391E0892780931703909383
:1040700016030895CF93882309F4A1C0C82F82386E
:10408000C1F40E94361E81FD9AC069E380911E0131
:1040900090911F010E94FA2C0E94C12A2FEF81EEFD
:1040A00094E0215080409040E1F700C0000069E3B7
:1040B00019C0833801F50E94361E80FD80C063E57B
:1040C00080911E0190911F010E94FA2C0E94C12A2A
:1040D0002FEF81EE94E0215080409040E1F700C046
:1040E000000063E580911E0190911F010E94052D43
:1040F000CF910C94C12A8438C1F40E94361E82FDEF
:104100005EC067E480911E0190911F010E94FA2C0D
:104110000E94C12A2FEF81EE94E021508040904010
:10412000E1F700C0000067E4DDCF8CEF8C0F813A2F
:10413000F8F48C2F0E94CB30811141C06C2F8091FC
:104140001E0190911F010E94582C882349F06C2F6A
:1041500080911E0190911F010E94052D0E94C12A8D
:104160006C2F80911E0190911F010E94FA2CC0CFEC
:1041700080E28C0F883048F4C77081E001C0880F5E
:10418000CA95EAF70E94732AB3CFEBE5EC0FE33050
:1041900040F4F0E0E35AFD4F808190E0CF910C9421
:1041A000971EC85AC73158F4EC2FF0E0EE0FFF1FEE
:1041B000E15DFD4F80819181CF910C94AD1ECF9137
:1041C0000895882309F45BC0682F823879F40E942F
:1041D000361E81FF54C069E380911E0190911F013A
:1041E0000E94FA2C0E94C12A69E310C08338B1F4FE
:1041F0000E94361E80FF43C063E580911E019091AE
:104200001F010E94FA2C0E94C12A63E580911E01C1
:1042100090911F010E94052D0C94C12A843879F4D5
:104220000E94361E82FF2BC067E480911E01909190
:104230001F010E94FA2C0E94C12A67E4E7CF8CEF8D
:10424000860F813A18F380E2860F883048F4677051
:1042500081E001C0880F6A95EAF70E94792ADCCFD5
:104260008BE5860F833020F480E090E00C94971E5D
:10427000685A673120F480E090E00C94AD1E0895F8
:10428000CF93C82F0E943A20C93349F42FEF87EE0D
:1042900093E0215080409040E1F700C000008C2F57
:1042A000CF910C94E120882321F00E94732A0C9472
:1042B000C12A0895882321F00E94792A0C94C12AEA
:1042C00008956F927F928F929F92BF92CF92DF92CA
:1042D000EF92FF920F931F93CF93DF936C01C62F42
:1042E000172FFC01058102950F70D281D1110E9418
:1042F000932A0E94692A8823B9F0DD23A9F0812F2F
:10430000807F803441F090E29C0F983068F08036D6
:1043100011F4C63F49F082E00E940B2B0E94692AEB
:1043200091E0B82EB92601C0B12CE12EE2949FE0B5
:10433000E9228E2D90E0FC01E858FF4F0C94F538EF
:10434000012F0F70812F807F11F00295007FDD23F8
:1043500099F0002309F498C180E28C0F883010F0A6
:10436000C11104C0802F0E94732A03C0802F0E94B5
:10437000862A0E94C12A88C18C2F0E94E120002336
:1043800009F439C280E28C0F883010F0C11104C0EA
:10439000802F0E94792A03C0802F0E948C2A0E94BD
:1043A000C12A29C2912F9F70812F807FF92E8032E0
:1043B00019F0F29480EFF822CC2319F0C130C9F043
:1043C00021C0DD2371F0002341F0013031F40E945F
:1043D000A62A8F290E94AE2A09C20E94A62A8F29E6
:1043E00016C0002319F0013009F405C20E94B72A53
:1043F0001EC0DD2321F0023008F0F8C107C0011112
:10440000FAC115C0DD2331F001113EC18F2D0E948C
:104410005321ECC1002359F0C93309F044C1FFEF27
:1044200027EE83E0F15020408040E1F73AC18F2D24
:104430000E945A21E0C1812F86958695837019F0DC
:10444000813071F0A2C1DD2331F08C2F912F937058
:104450000E94971EA4C180E090E00E94971EA6C112
:10446000DD2331F08C2F912F93700E94AD1E97C1E8
:1044700080E090E00E94AD1E99C1812F837009F009
:1044800048C0D11186C12C2F229526952770220F66
:10449000220F6C2F6F70862F90E0A0E0B0E0022E0C
:1044A00004C0880F991FAA1FBB1F0A94D2F7C4FF2C
:1044B00010C04FE050E060E070E004C0440F551FB2
:1044C000661F771F2A95D2F7409550956095709595
:1044D00003C040E050E0BA01212F269526952370B5
:1044E0003A014B01682A792A8A2A9B2AC401B3011E
:1044F000223049F058F4213019F00E94842849C133
:104500000E94722846C10E94962843C10E947028CA
:1045100040C1DD2319F0812F817001C08695882369
:1045200009F437C12C2F229526952770220F220FD0
:104530006C2F6F70862F90E0A0E0B0E0022E04C0D8
:10454000880F991FAA1FBB1F0A94D2F7C4FF10C07F
:104550004FE050E060E070E004C0440F551F661F5C
:10456000771F2A95D2F7409550956095709503C0B6
:1045700040E050E0BA01212F2695269523703A019C
:104580004B01682A792A8A2A9B2AC401B301223066
:1045900049F058F4213019F00E944929FAC00E94CC
:1045A0003729F7C00E945B29F4C00E94AA28F1C0F5
:1045B000012F0F70DD2339F0802F0E94D0288C2F1F
:1045C0000E945321E6C08C2F0E945A21802F0E9406
:1045D000F128DFC0C23F61F128F4C03F41F0C13F84
:1045E000B9F01DC0C33F71F1C43FB1F118C0DD2364
:1045F00039F00111FBC0812F8F710E941629F6C07E
:10460000023008F0F8C0812F8F710E941629F3C084
:10461000DD2349F0812F8F710E94D028E7C0D1118E
:1046200031C0011135C0812F8F710E94F128E3C084
:10463000812F8F71DD2319F00E94F128D7C00E94CD
:10464000D028D9C0DD2329F0812F8F710E94BB288B
:10465000CDC00E94B628CFC0DD2351F0012F0F71CD
:10466000802F0E94D02863E0802F0E94F62ABEC0CF
:1046700081E00E940B2B023008F4BDC082E00E9452
:104680000B2BB9C0002331F28C2F0E943A20AEC010
:10469000C93349F42FEF87EE93E0215080409040DA
:1046A000E1F700C000008C2F0E94E120A4C0412F40
:1046B0004F706C2FC6010E94120F0E94E1276DC03F
:1046C0008C2F90E0FC01E05FF109E730F10578F50F
:1046D000E857FF4F0C94F538DD2309F450C0909152
:1046E000170381E0892705C0D093170348C081E0F4
:1046F0008D278093170343C0D11141C081E0F9CFCA
:10470000D1113DC0109217033AC0DD2319F00E9469
:10471000412A35C00E944D2A32C0DD2329F0809104
:1047200016038823E1F229C00023C9F228C0809132
:1047300016030023C1F0882341F09091170381E014
:10474000892780931703109216038C2FDD2319F00D
:104750000E943A2014C00E94E12086E0F6011192E6
:104760008A95E9F70CC0882351F0D11108C09091C7
:10477000170381E089278093170310921603412FB6
:104780004F706C2FC6010E94150F88EF8E0D84307C
:1047900020F40E94361E0E94930EDD2339F0107F14
:1047A000103611F4C63F11F00E945B2ABB2041F184
:1047B0000E943D2A80FD24C0F60112820E94372A01
:1047C0000E94D028C6010E9426240E94372ADF9129
:1047D000CF911F910F91FF90EF90DF90CF90BF90FE
:1047E0009F908F907F906F900C94F12888EF8E0DA2
:1047F0008430A8F6CECF88EF8E0D8430B8F6C9CFBE
:10480000DF91CF911F910F91FF90EF90DF90CF90AC
:10481000BF909F908F907F906F9008950F931F93FC
:10482000CF93DF93EC01688179818A810E94142AF9
:104830008C010E946D290E945E28B801CE010E9461
:104840006121DF91CF911F910F910895CF93DF9355
:10485000EC01988189812B813C81232B31F08F3FA2
:1048600031F481E09F3F19F403C081E001C080E092
:1048700080FD19C0CE010E94AC0E81110CC00E94B7
:10488000692A882381F08A81882369F082E0DF9198
:10489000CF910C940B2BCE010E940E24CE01DF9100
:1048A000CF910C94AB0DDF91CF910895882321F027
:1048B0000E94862A0C94C12A0895882321F00E9420
:1048C0008C2A0C94C12A08950E94932A0E94A32A3C
:1048D0000E94C12A80E090E00E94971E80E090E054
:1048E0000C94AD1E80911E0190911F010E94102D0D
:1048F0000C9464240E94832A0C947224E92FE2957C
:10490000EF704E2F50E0FA013297EE30F105B0F41F
:10491000E157FF4F0C94F538803F91F018F4883E32
:1049200068F40EC0843F51F40BC0883E48F0813FCC
:1049300029F406C093FB882780F9089580E0089544
:1049400081E008950E94092A0E947E240895CF9351
:10495000DF9300D000D01F92CDB7DEB70F900F903D
:104960000F900F900F90DF91CF910895CF93DF9329
:1049700000D000D000D0CDB7DEB726960FB6F894A1
:10498000DEBF0FBECDBFDF91CF9108951F93CF93B0
:10499000DF93C091180316E080911903C81799F0AE
:1049A000D0E01C9FF0011D9FF00D1124E65EFC4F2E
:1049B0004081518162817381848195810E94B624F6
:1049C0002196C770E9CFDF91CF911F910895409153
:1049D0004A0350914B0360914C0370914D038091B9
:1049E0004E0390914F030C94B6240F931F93CF93D3
:1049F000DF9380914F0382958F7009F05DC08091A5
:104A00004C03882309F458C08091180310911903AE
:104A100060914A0370914B03C0914D03D0914E03B6
:104A200091E06F3F09F090E0292F06E0811709F42B
:104A300043C0209721F07F3F21F030E003C031E0F8
:104A400001C0322F90E030FD34C0089FF001099F73
:104A5000F00D1124DF01A65EBC4F11963C91119719
:104A6000371327C03C91361324C012963C911297FD
:104A700031111FC013964D915C9114974C1B5D0B27
:104A8000483C5105B0F480914F038F708061809352
:104A90004F03E15EFC4F80818F70806180838AE4E8
:104AA00093E00E942624DF91CF911F910F910C94E7
:104AB000C62401968770BACFDF91CF911F910F91D5
:104AC00008959F92AF92BF92CF92DF92EF92FF92A2
:104AD0000F931F93CF93DF93CDB7DEB761970FB6D8
:104AE000F894DEBF0FBECDBF8C0185E0F801DE017A
:104AF0001D9601900D928A95E1F7F8014081518150
:104B0000E28090914A0360914B0320914D033091D4
:104B10004E032115310531F06F3F31F481E09F3FA5
:104B200019F403C081E001C080E0F82FF1709F2EDE
:104B300080FD46C1F801A380B4808AE4C82E83E0DA
:104B4000D82EF0904C03F501E21BF30BFF2009F483
:104B5000DFC080914F03E83CF10508F09BC0282F8F
:104B6000207F09F052C0561313C0491311C0FE2C08
:104B7000E1100EC08F70806180934F030E94E72484
:104B8000C6010E94262480914F03F801858358C1F5
:104B9000AB2831F05F3F31F481E04F3F19F403C09F
:104BA00081E001C080E080FD03C081E08E2502C06D
:104BB00080E090E0F82FF170FF2E80FF1CC0809104
:104BC00018032091190336E0821709F417C190E009
:104BD000389FF001399FF00D1124E65EFC4F618192
:104BE000561306C06081461303C06281E61203C0FB
:104BF00001968770E9CFFE2CEE2009F421C1809147
:104C00004F03816080934F035AC0561306C0491367
:104C100004C0E11002C0F8019FC04D875E878D85FA
:104C20009E850E94A224882379F1EE2069F12091CB
:104C30004F03822F82958F7090E0029774F08091DD
:104C40004A0390914B0398878F831986BB86AA8667
:104C50002C87CE0107960E94262486E0F801AAE45C
:104C6000B3E001900D928A95E1F70E94F5240E942D
:104C7000E7240DC0561729F14D875E878D859E85E7
:104C80000E94A22481112CC0C8010E942624FF2466
:104C9000F394D6C0282F207F69F77A2DB98AA88A85
:104CA0006E2D89890E94A7248AE493E00E9426241D
:104CB00086E0F60111928A95E9F70E94E724F12C2B
:104CC000BFC04913D9CFE110D7CFF8018583C80100
:104CD0000E94262486E0F60111928A95E9F7B0C079
:104CE000EE2091F220914F03822F82958F7090E0F9
:104CF00002970CF4B2CF80914A0390914B039A83B0
:104D000089831B82BD82AC822E83CE010196A3CF04
:104D1000E83CF10508F047C0FE2CEE2009F4B4CFC2
:104D2000561330C049132EC020914F0320FD21C0DF
:104D3000822F82958F70482F50E041155105C9F0A0
:104D4000F80125834F30510541F08F5F982F9295E0
:104D5000907F822F8F70892B8583C8010E94262423
:104D600086E0F801AAE4B3E001900D928A95E1F79C
:104D700042C086E0F801AAE4B3E001900D928A9562
:104D8000E1F75EC04D875E878D859E850E94A224D7
:104D9000811163CF80914F03816080934F03C801DD
:104DA0000E9426244DC07A2DB98AA88A6E2D898941
:104DB0000E94A72486E0F60111928A95E9F71BC0AC
:104DC000EE2009F461CF4D875E878D859E850E9418
:104DD000A224F82E882309F457CF86E0F801AAE42C
:104DE000B3E001900D928A95E1F78AE493E00E9486
:104DF00026200E94F5240E94E72422C04D875E876A
:104E00008D859E850E94092A292F22952F70223098
:104E100028F49F7039F0811105C00BC0243028F4AC
:104E20009F7049F4805E883020F0C8010E942624DB
:104E30009F2CF92C05C0F8019581907F99F7F9CF47
:104E40008F2D61960FB6F894DEBF0FBECDBFDF91F8
:104E5000CF911F910F91FF90EF90DF90CF90BF9077
:104E6000AF909F9008951F93CF93DF93CDB7DEB798
:104E70002C970FB6F894DEBF0FBECDBF4F83588777
:104E800069877A878B879C87CE0107960E94612568
:104E90008823D1F09F8188852A853B85232B31F09B
:104EA0008F3F31F481E09F3F19F403C081E001C0DE
:104EB00080E080FD47C04F81588569857A858B8564
:104EC0009C850E94B6243EC086E0FE013796DE0136
:104ED000119601900D928A95E1F7FF81E8856A8528
:104EE0007B856115710531F0EF3F31F481E0FF3FC3
:104EF00019F403C081E001C080E080FD23C020914F
:104F0000190330E0C9010196877099274091180371
:104F100050E084179507F1F1F983EA837D836C8370
:104F200096E0929FD001939FB00D1124A65EBC4FD6
:104F3000FE01319601900D929A95E1F78093190345
:104F40000E94C62416E080911803909119038917D6
:104F500071F1189FC0011124865E9C4F0E9461254B
:104F6000882329F1E09118031E9FF0011124E65EC9
:104F7000FC4F4081518162817381848195810E94BF
:104F8000B6248091180390E001968770992780934A
:104F90001803D9CF0E947A24109219031092180393
:104FA000EAE4F3E086E0DF011D928A95E9F72C96AA
:104FB0000FB6F894DEBF0FBECDBFDF91CF911F912A
:104FC0000895EF92FF920F931F93CF93DF938C017D
:104FD000892B09F46CC0F12CEE24E394E8012196AE
:104FE000F8018491843740F4843008F051C0813056
:104FF00081F0823019F15BC0853709F444C0A8F113
:105000009CE7980F903708F052C08F770E94E120FC
:1050100041C00E5F1F4FFE01849190E2980F9830BF
:1050200050F48770FE2D01C0FF0F8A95EAF78F2F8D
:105030000E94962A14C00E943A202DC00E5F1F4F76
:10504000FE01849190E2980F983060F48770FE2DF5
:1050500001C0FF0F8A95EAF78F2F0E949C2A0E94B9
:10506000C12A19C00E94E12016C00E5F1F4FFE0129
:10507000C491CC2381F08FE99FE00197F1F700C044
:105080000000C150F6CF0E5F1F4FFE01F49003C029
:105090000E943A208E018F2D882309F49FCFEFE9DB
:1050A000FFE03197F1F700C000008150F5CFDF91AC
:1050B000CF911F910F91FF90EF900895089508955B
:1050C0000C945F280C9460280E94622860938B03E4
:1050D00070938C0380938D0390938E030C946424BF
:1050E0000C9464280F931F9300918B0310918C03F1
:1050F00020918D0330918E03602B712B822B932B8B
:105100001F910F910C9464280F931F9300918B03B0
:1051100010918C0320918D0330918E0360237123B5
:10512000822393231F910F910C9464280F931F9354
:1051300000918B0310918C0320918D0330918E038D
:1051400060277127822793271F910F910C94642861
:105150000C94D30C0E94A828609387037093880353
:105160008093890390938A030C94642460E070E038
:10517000CB010C94AA280F931F9341E050E060E00C
:1051800070E08A019B0104C0000F111F221F331F12
:105190008A95D2F7C901B8011F910F910C94AA28E2
:1051A0000F931F9341E050E060E070E004C0440FB3
:1051B000551F661F771F8A95D2F7809187039091BC
:1051C0008803A0918903B0918A038A019B01082B6F
:1051D000192B2A2B3B2BC901B8011F910F910C945D
:1051E000AA280F931F9341E050E060E070E004C0F4
:1051F000440F551F661F771F8A95D2F7409550952B
:10520000609570958091870390918803A0918903A0
:10521000B0918A038A019B01082319232A233B2387
:10522000C901B8011F910F910C94AA280F931F93E5
:1052300041E050E060E070E004C0440F551F661F7D
:10524000771F8A95D2F78091870390918803A09168
:105250008903B0918A038A019B01082719272A270D
:105260003B27C901B8011F910F910C94AA280F93F5
:105270001F93009187031091880320918903309137
:105280008A03602B712B822B932B1F910F910C940F
:10529000AA280F931F9300918703109188032091F0
:1052A000890330918A0360237123822393231F9102
:1052B0000F910C94AA280F931F93009187031091CC
:1052C00088032091890330918A0360277127822700
:1052D00093271F910F910C94AA280895292F220F2C
:1052E000920F990F890FE82FE695E695E69587705E
:1052F00051E001C0550F8A95EAF785E0E89FF0017B
:105300001124E05BFC4F20E030E070E04081CB01F5
:10531000022E02C0969587950A94E2F781708195D6
:1053200084278523842781932F5F3F4F25303105C4
:1053300069F70895292F220F920F990F890F682F6F
:10534000669566956695982F977085E0689FB00181
:10535000112440E050E080E0FB01E40FF51FE05B2A
:10536000FC4F208130E0092E02C0369527950A9423
:10537000E2F721703327042E01C0220F0A94EAF7C6
:10538000822B4F5F5F4F4530510531F70895BF9233
:10539000CF92DF92EF92FF920F931F93CF93DF9301
:1053A0008C01C0908703D0908803E0908903F0902F
:1053B0008A0380918B0390918C03A0918D03B0910F
:1053C0008E03C82AD92AEA2AFB2ACFE1D0E0D701E6
:1053D000C6010C2E04C0B695A795979587950A949B
:1053E000D2F780FD04C0219790F7B12C07C0BC2EE6
:1053F000B8018C2F0E94310F0197A9F38B2DDF91FB
:10540000CF911F910F91FF90EF90DF90CF90BF90C1
:105410000895CF93DF93EC010E94C729BE010E943B
:10542000310FDF91CF9108951F93CF93DF93EB015D
:1054300090911503992321F0CB010E94092A13C0F2
:10544000882349F0CB010E94C729182F682FCE016D
:105450000E946E2904C0CB010E949A29182FBE0118
:10546000812F0E94310FDF91CF911F91089580917C
:105470009003859585958595089580919003877013
:10548000089582E080938F0381E08093170308954D
:1054900010928F0310921703089580918F0382302A
:1054A00019F481E080938F0380918F03833011F48E
:1054B0000C94482A089580918F03823019F483E078
:1054C00080938F0380918F03813011F40C94482ACC
:1054D000089590919003977081E009F480E0089519
:1054E0008091B40308959091B403892B8093B40301
:1054F000089580959091B40389238093B40308950F
:105500008093B40308951092B40308959091B30367
:10551000892B8093B303089580959091B3038923D9
:105520008093B30308951092B30308959091B2034A
:10553000892B8093B203089580959091B2038923BB
:105540008093B20308951092B2030895809191035D
:10555000089508950C94A92A0C94AA2A9091910375
:10556000981721F0809391030C94AC2A08958091B0
:105570009103882329F01092910380E00C94AC2AC7
:105580000895E0911E01F0911F018091B403808382
:10559000E0911E01F0911F0190818091B303892B4E
:1055A0008083E0911E01F0911F0190818091B203F0
:1055B000892B808380919103882381F0E0911E01E3
:1055C000F0911F019081892B808380911E01909121
:1055D0001F010E94422C81110E94B72A80911E0156
:1055E00090911F010C94421E0C94A92A98E0899F67
:1055F00090011124262B209390030E94D0288091A3
:1056000090038595859585950C94F42A10929003C6
:1056100080E00C94F42A209190038095822380935B
:105620009003982F977079F430E0482F082E000CE3
:10563000550B2417350739F08595859585950E947A
:10564000F1280C94062B08959093710280937002B8
:105650000895CF92DF92EF92FF926C01EE24FF2427
:10566000C114D104E104F10421F0C701B60120E125
:1056700001C020E0C72ED82EE92EFF24C114D1048A
:10568000E104F10419F0285FC701B6016B017C0148
:1056900054E0F694E794D794C7945A95D1F7C1147F
:1056A000D104E104F10419F02C5FC701B6016B01CC
:1056B0007C0142E0F694E794D794C7944A95D1F7D9
:1056C000C114D104E104F10419F02E5FC701B60141
:1056D000DC01CB01B695A79597958795892B8A2BE9
:1056E0008B2B09F02F5F822FFF90EF90DF90CF90F0
:1056F00008958295982F937344E0949F900111240C
:105700008C7C86958695282B822F8575880F2A7A22
:105710002695822B0895CF93DF93D92F0E94792B62
:10572000C82F8D2F0E94792B2C2F30E0322F22276B
:10573000A901482BCA01DF91CF91089580E090E044
:105740000E94933A21E08C3E9E4F09F020E0822F88
:10575000089582E090E00C94853A83E090E00C9408
:10576000853ACF9384E090E00E94853AC82F81E289
:1057700090E00E94853A2C2F30E0A901582BCA01F5
:10578000CF910895CF93C92F682F84E090E00E94B5
:10579000993A6C2F81E290E0CF910C94993A8FE086
:1057A00090E00C948D3AAB01BC018FE090E00C943A
:1057B000AB3AAB01BC0183E190E00C94AB3A60E002
:1057C00070E0CB010C94D92B6CEE7EEF80E090E082
:1057D0000E94B73A60E082E090E00E94993A60E06F
:1057E00083E090E00E94993A10928B0310928C0310
:1057F00010928D0310928E0360E084E090E00E948E
:10580000993A60E081E290E00E94993A60E085E098
:1058100090E00E94993A60E086E090E00E94993A18
:105820006FEF87E090E00E94993A40E050E0BA01C3
:1058300088E090E00E94AB3A60E08DE090E00E944A
:10584000993A40E050E0BA0188E190E00E94AB3A1A
:1058500060E087E190E00E94993A40E050E0BA01B0
:105860008CE190E00E94AB3A60E080E290E00E9420
:10587000993A0C94A10C0C94E42B682F8EE090E0E4
:105880000C94993AFC01329680912A01882331F0D8
:1058900080911D0487FF02C09EE101C096E080E078
:1058A000915028F021912223D9F38F5FF9CF0895E9
:1058B000662351F120912A012223E9F020911D0451
:1058C00027FF19C0462F4695469546954E31E0F480
:1058D000677021E030E002C0220F331F6A95E2F7C3
:1058E000FC01E40FF11D828190E02823392381E03F
:1058F000232B69F409C0FC013296089621916217A6
:1059000029F0E817F907D1F780E0089581E00895BC
:105910009C01FC0132969FEF80E04191461789F08F
:105920009F3F19F4411101C0982F8F5F8630A9F76E
:105930009F3F39F0F901E90FF11D97FDFA95628358
:10594000089508959C012A5F3F4FFC014281461350
:1059500001C01282019682179307B9F70895262F86
:105960002695269526952E3170F4FC01E20FF11D47
:10597000677021E030E001C0220F6A95EAF782816A
:10598000282B228308958091B50380FF0CC01F92BD
:105990006F9383EB9AE09F938F930E94CB090F90B4
:1059A0000F900F900F900895262F269526952695F7
:1059B0002E3178F4FC01E20FF11D677021E030E038
:1059C00001C0220F6A95EAF720958281282322835D
:1059D00008958091B50380FF0CC01F926F9385E9F5
:1059E0009AE09F938F930E94CB090F900F900F9096
:1059F0000F90089520912A01222329F020911D045F
:105A000027FD0C94AF2C0C94882C20912A01222382
:105A100029F020911D0427FD0C94D42C0C94A22C69
:105A200020912A01FC013296222331F080911D043D
:105A300087FF02C08EE101C086E0DF011D928A95DA
:105A4000E9F7089508950C94222DCF930E94940AAB
:105A50000E94A70A0E94232DC0E08C2F0E94100BE9
:105A6000811104C0CF5FCE30C1F701C081E0CF917A
:105A700008950C94222D0C94392D0E943B2D809179
:105A80002304843049F11092B60320E488E190E0C9
:105A90000FB6F894A895809360000FBE2093600025
:105AA00080E00E94930E0E943B2D83B7817F84602B
:105AB00083BF83B7816083BF7894889583B78E7FD7
:105AC00083BF0FB6F894A895809160008861809399
:105AD0006000109260000FBE08950C94222D0E9469
:105AE0007A240E94361E0E94930E0C946D2D1F92F4
:105AF0000F920FB60F9211248F939F93AF93BF9382
:105B00008091B603811113C08091190490911A04F9
:105B1000A0911B04B0911C044196A11DB11D80935E
:105B2000190490931A04A0931B04B0931C04BF9112
:105B3000AF919F918F910F900FBE0F901F9018956E
:105B400082E084BD93E095BD9AEF97BD80936E008F
:105B500008952FB7F8948091190490911A04A09198
:105B60001B04B0911C042FBF08952FB7F8946091C7
:105B7000190470911A0480911B0490911C042FBF8A
:105B800008959C014FB7F8948091190490911A04DC
:105B9000A0911B04B0911C044FBF821B930B08956E
:105BA00078941F920F920FB60F9211248F939F93A8
:105BB000AF93BF938091190490911A04A0911B0494
:105BC000B0911C040196A11DB11D809319049093FE
:105BD0001A04A0931B04B0931C04BF91AF919F9132
:105BE0008F910F900FBE0F901F901895F89481E041
:105BF0008093E00080E28093D800E9ECF0E010822E
:105C00008FE19EE40197F1F700C000001DBA1092E9
:105C100068001CBC10BE1FBA10927A0010926E0071
:105C200010926F0010927100109272001082ECEBD3
:105C3000F0E0108214B817B81AB81DB810BA108264
:105C400015B818B81BB81EB811BA0C94003F0895C7
:105C50000E949E2B811102C00E943B2C0E94A92B06
:105C60008093B5030E94B12B90931E0480931D0472
:105C70000E94AD2B682F70E080E090E00C947028BB
:105C8000CF93C82F1F928F9387ED9AE09F938F93A6
:105C90000E94CB0981E090E0A0E0B0E0BC01CD0122
:105CA00004C0660F771F881F991FCA95D2F70E94FC
:105CB00070280F900F900F900F90CF910C947A2432
:105CC000CF93DF93482F50E0FA013597EF33F1057A
:105CD00008F054C2E356FF4F0C94F53880E490E18D
:105CE0000E9432098CE79FE00E9432090E94AD2B8E
:105CF0001F928F9389E79FE09F938F930E94CB0918
:105D000087E79FE00E9432090E94A92BC82F84E6F2
:105D10009FE00E9432091F92CF938FE59FE09F93EF
:105D20008F930E94CB098DE59FE00E94320983E5A5
:105D30009FE00E9432098C2F81701F928F9380E523
:105D40009FE09F938F930E94CB098EE49FE00E9477
:105D5000320984E49FE00E943209C1FB882780F960
:105D60001F928F9381E49FE09F938F930E94CB09B2
:105D70008FE39FE00E94320983E39FE00E94320993
:105D8000C2FB882780F91F928F9380E39FE09F9347
:105D90008F930E94CB098EE29FE00E94320985E238
:105DA0009FE00E943209C3FBCC27C0F91F92CF931A
:105DB00082E29FE09F938F930E94CB0980E29FE055
:105DC0000E9432090E94B12BEC018CE09FE00E94FE
:105DD0003209DF93CF9387E09FE09F938F930E94D8
:105DE000CB0985E09FE00E9432098CEE9EE00E9484
:105DF00032098C2F81701F928F9389EE9EE09F93C2
:105E00008F930E94CB098DB79EB780960FB6F894FA
:105E10009EBF0FBE8DBF87EE9EE00E94320980EDCF
:105E20009EE00E943209C1FB882780F91F928F9360
:105E30008DEC9EE09F938F930E94CB098BEC9EE0AC
:105E40000E94320989EB9EE00E9432098D2F8170F9
:105E50001F928F9386EB9EE09F938F930E94CB09B6
:105E600084EB9EE00E94320982EA9EE00E943209A1
:105E7000D695D1701F92DF938FE99EE09F938F9309
:105E80000E94CB098DE99EE00E9432098BE89EE0DA
:105E90000E943209C2FB882780F91F928F9388E8FD
:105EA0009EE09F938F930E94CB0986E89EE00E941C
:105EB000320984E79EE00E943209C3FB882780F9FB
:105EC0001F928F9381E79EE09F938F930E94CB094F
:105ED0008FE69EE00E94320985E69EE00E9432092C
:105EE000C4FB882780F91F928F9382E69EE09F93E0
:105EF0008F930E94CB0980E69EE00E9432098EE4D7
:105F00009EE00E943209C5FB882780F91F928F937B
:105F10008BE49EE09F938F930E94CB0989E49EE0DF
:105F20000E9432098DE29EE00E943209C6FB88275A
:105F300080F91F928F938AE29EE09F938F930E9435
:105F4000CB098DB79EB780960FB6F8949EBF0FBE53
:105F50008DBF88E29EE00E94320980E29EE00E94AE
:105F60003209C7FBCC27C0F91F92CF938DE19EE089
:105F70009F938F930E94CB098BE19EE00E94320990
:105F80000F900F900F900F9006C08FE290E10E944B
:105F900032090E943B2CC1E0F6C089E69CE074C047
:105FA0008091B503817F8E7F8093B5038EE49CE062
:105FB0000E9432098BE290E10E94320981E08093D5
:105FC000B703E9CF8FE090E10E9432090E949D0E55
:105FD000E2CF8091B503C82FC095C170C0FB80F996
:105FE0008093B503CC2319F083E090E1B9C086EF2C
:105FF0009FE00E9432098091B503897F877F80935B
:10600000B503C9CF9091B50391FBCC27C0F981E0CE
:10601000C827892FC0FB81F98093B503CC2319F0E1
:1060200089EE9FE027C08BED9FE02EC09091B503D5
:1060300092FBCC27C0F981E0C827892FC0FB82F9E9
:106040008093B503CC2319F08CEC9FE013C08CEB4C
:106050009FE01AC09091B50393FBCC27C0F981E073
:10606000C827892FC0FB83F98093B503CC2351F057
:1060700080EB9FE00E9432098091B503816080939C
:10608000B50381C083EA9FE00E94320984CF8FE389
:106090009CE00E94320980EF9BE00E94320989EB6C
:1060A0009BE00E94320988E89BE00E9432098DE55E
:1060B0009BE0EACF8FE49BE00E9432090E94361EEB
:1060C0001F928F9385E39BE09F938F930E94CB0950
:1060D00080912A011F928F938EE19BE09F938F9373
:1060E0000E94CB098091DC031F928F938BE09BE091
:1060F0009F938F930E94CB0980911D0487FB882773
:1061000080F91F928F9383EF9AE09F938F930E9461
:10611000CB090E94B52D9F938F937F936F938CED46
:106120009AE09F938F930E94CB098DB79EB74696B6
:106130000FB6F8949EBF0FBE8DBF2DCF0E947A245C
:1061400090911D0497FBCC27C0F981E0C827892FC7
:10615000C0FB87F980931D04CC2329F089E99FE0D7
:106160000E94320910C08EE89FE08ECF895303C091
:106170008D5101C080E00E94402E0DCF8CE89FE041
:106180000E943209C0E08C2FDF91CF91089580E00A
:1061900008950C94C730CF93C82F8091B7038823FC
:1061A00019F0813051F041C00E94702A813149F0CC
:1061B0000E94702A8232D9F504C00E94702A81316F
:1061C00049F48C2F0E94C930811109C08C2F0E9484
:1061D000602E29C00E94702A823221F4F2CF81E021
:1061E00090E021C08C2F0E94C73081111BC0C431A8
:1061F00089F018F4CB3029F010C0C93259F0C833F7
:1062000061F48EE49CE00E94320983ED9AE00E94E2
:10621000320908C01092B7030CC081ED9AE00E94C9
:10622000320907C081E0817006C01092B70380E098
:1062300002C080E0F8CFCF9108958091DB030895EC
:1062400008959FB7F8941092BA039FBF90912304CA
:10625000943009F057C09091E9009F703091EC00A4
:10626000232F217030FD20E8922B23E02093E900BA
:106270002091EB0020FF43C02091EE0027FF3FC09C
:106280002091B803222321F02091E80025FF37C098
:106290001092B80326E03091E80035FD15C030912A
:1062A0002304343061F53091EB0035FD28C02150D6
:1062B00021F481E08093B80322C0EFE9FFE0319739
:1062C000F1F700C00000E7CF8093F1008091E80073
:1062D00085FD0AC08091E80080FFFCCF8091E80036
:1062E0008E778093E80006C08FB7F89421E0209362
:1062F000BA038FBF9F709093E90080E008959F706C
:106300009093E9008FEF0895CF93DF9300D01F9211
:10631000CDB7DEB790912304943019F589837B8340
:106320006A8382E08093E9008FEF9091E8008150CA
:1063300095FD06C095ED9A95F1F700008111F5CF16
:106340008091E80085FF0DC040E050E063E070E020
:10635000CE0101960E9416348091E8008E778093DA
:10636000E8000F900F900F90DF91CF910895CF9399
:10637000DF93EC010E94F933823011F0843031F464
:10638000BE0184E0DF91CF910C948431DF91CF91F5
:106390000895BC0183E00C948431CF93DF93EC012A
:1063A0000E94F933823011F08430D9F580912A01AE
:1063B000882339F080911D0487FF03C060E282E0EA
:1063C00002C068E081E08093E9008FEF9091E800DF
:1063D000815095FD06C095ED9A95F1F70000811169
:1063E000F5CF8091E80085FF1CC080912A018111C2
:1063F00005C040E050E068E070E003C070E040E0BD
:1064000050E0CE010E9416348091E8008E77809390
:10641000E80080E2FE01ABEBB3E001900D928A95BB
:10642000E1F7DF91CF91089580E790E10E94320972
:1064300080912204811109C00E94A7350E94043670
:106440008091E20084608093E20008958CE690E100
:106450000E94320910922204089588E690E10C947B
:10646000320984E690E10C94320980E690E10E94C2
:1064700032090C946F2D2091B9032F5F822F62E3B4
:106480000E94B338992319F02093B903089510920C
:10649000B9038091BA03882371F180912304843079
:1064A00041F58091E9008F702091EC00922F91705E
:1064B00020FD90E8892B93E09093E9009091EB0008
:1064C00090FF14C09091EE0097FF10C09091E800EB
:1064D00095FF03C01092F100F9CF9091E80090FF72
:1064E00005C09091E8009E779093E8008F708093AC
:1064F000E9001092BA03089542E061EC81E00E9445
:10650000203542E261EC82E00E94203542E261ECFB
:1065100083E00C94203580912504833009F460C019
:1065200030F4813071F0823009F499C008958A30D6
:1065300009F485C08B3009F46BC0893009F0A7C01D
:1065400020C080912404813A09F0A1C08091E80024
:10655000877F8093E8008091280490912904892BFB
:1065600021F460E28BEB93E003C060E080E090E018
:1065700070E00E9461348091E8008B778093E8009E
:10658000089580912404813209F081C0809128040B
:1065900090912904029708F07AC08091E800877FE3
:1065A0008093E8008091E80082FD05C0809123047B
:1065B0008111F8CF6CC02091F3008091F20090E03F
:1065C000922B029729F48091F1008B7F813021F486
:1065D0008091F1008093DB038091E8008B7753C0BA
:1065E00080912404813A09F052C08091280490914E
:1065F0002904892B09F04BC08091E800877F8093A4
:10660000E8008091E80080FFFCCF80912A0136C02D
:10661000809124048132D9F5809128049091290435
:10662000892BA9F58091E800877F8093E8000E947C
:1066300055358091260480932A010C947A24809108
:106640002404813221F58091E800877F8093E8005F
:106650000E945535809127048093DC030895809132
:106660002404813AA1F48091E800877F8093E800B8
:106670008091E80080FFFCCF8091DC038093F100E3
:106680008091E8008E778093E8000C94553508954A
:1066900084B7877F84BF0FB6F894A8958091600077
:1066A000886180936000109260000FBE90E080E8E7
:1066B0000FB6F89480936100909361000FBE0E9422
:1066C000D31E0E94A7350E9404368091E2008460A8
:1066D0008093E20081E291E30E94242B78940E944F
:1066E00098380E94DD1E80E291E00E94311E8FE406
:1066F00090E10E94320980912304853089F48BE473
:1067000090E10E9432090E943D2D8091210488234E
:1067100091F30E94252D882371F30E940034EBCF62
:106720000E940F1FE8CF0C949533292F3327233075
:106730003105C9F060F42130310581F02230310596
:1067400009F047C08BE590E022ED30E146C02132F0
:10675000310511F12232310561F13BC082E190E057
:106760002DE231E13AC099278130910561F040F086
:106770008230910559F0039761F5E4E7F0E108C034
:10678000EEECF0E105C0ECE9F0E102C0EAE7F0E18F
:10679000849190E09F0121C063307105D0F4660FB1
:1067A000771FFB01E759FD4F2081318189E090E09F
:1067B00014C06330710568F4FB01EE0FFF1FED5943
:1067C000FD4F20813181FB01E05AFD4F808190E037
:1067D00004C080E090E020E030E0FA0131832083C3
:1067E000089580912304843011F081E0089582E0BF
:1067F00008958091DD03811102C00C94F133089556
:1068000080E189BD82E189BD09B400FEFDCF8091A0
:10681000D8008F7D8093D8008091E00082608093C3
:10682000E0008091E00081FDFCCF0895CF92DF92DF
:10683000EF92FF920F931F93CF93DF93EC018B01A5
:106840007A010E947435811133C0E114F10439F0EA
:10685000F70180819181081B190BC80FD91FC12C2A
:10686000D12C0115110519F18091E80085FD16C0A4
:106870008091E8008E778093E800E114F10449F0FC
:10688000F70180819181C80ED91ED182C08285E036
:106890000FC00E947435882321F30AC08991809328
:1068A000F10001501109FFEFCF1ADF0ADACF80E0C3
:1068B000DF91CF911F910F91FF90EF90DF90CF90DC
:1068C000089520912A0430912B042617370748F0A9
:1068D0006115710539F42091E8002E772093E800C6
:1068E00001C0B901FC0120E06115710579F18091C9
:1068F00023048823F1F18530F1F18091E80083FDD4
:106900003CC08091E80082FD2EC08091E80080FFAD
:10691000EBCF2091F3008091F20090E0922B611573
:10692000710551F08830910538F421912093F100E0
:10693000615071090196F3CF21E0089709F020E03A
:106940008091E8008E778093E800CECF2111CFCFE1
:106950000AC080912304882361F0853061F0809122
:10696000E80083FD0AC08091E80082FFF2CF80E05A
:10697000089582E0089583E0089581E008952091CC
:106980002A0430912B042617370748F0611571054A
:1069900039F42091E8002E772093E80001C0B90176
:1069A000FC0120E06115710591F180912304882399
:1069B00009F440C0853009F43FC08091E80083FDB0
:1069C0003DC08091E80082FD2FC08091E80080FFEB
:1069D000E9CF2091F3008091F20090E0922B6115B5
:1069E000710559F08830910540F424912093F1000D
:1069F0003196615071090196F2CF21E0089709F0B4
:106A000020E08091E8008E778093E800CBCF2111C1
:106A1000CCCF0AC080912304882361F0853061F0D7
:106A20008091E80083FD0AC08091E80082FFF2CFE8
:106A300080E0089582E0089583E0089581E008955C
:106A4000982F973068F59093E900981739F0709176
:106A5000EC002091ED005091F00003C0242F762F20
:106A600050E021FD02C09F5FECCF3091EB003E7FF4
:106A70003093EB003091ED003D7F3093ED0030918D
:106A8000EB0031603093EB007093EC002093ED004D
:106A90005093F0002091EE0027FDE5CF80E00895AF
:106AA0008F708093E90081E008958091240487FF2E
:106AB00011C08091E80082FD05C0809123048111FE
:106AC000F8CF11C08091E8008B770BC08091230430
:106AD000882349F08091E80080FFF8CF8091E8009A
:106AE0008E778093E80008952091E4003091E500CE
:106AF00095E64091EC00842F817040FF23C0809187
:106B0000E80080FD1DC080912304882399F0853022
:106B100099F08091EB0085FD11C04091E400509107
:106B2000E5002417350729F3915011F09A01E1CFC0
:106B300084E0089582E0089583E0089581E0089557
:106B400080E008954091E80042FFDDCF08950E9463
:106B500015360E941D36E0EEF0E080818160808372
:106B6000E8EDF0E080818F77808319BCA7EDB0E07D
:106B70008C918E7F8C9380818F7E808310922204F3
:106B800008950F931F93CF93DF930E9415360E94B1
:106B90001D36C8EDD0E088818F7788838881806832
:106BA000888388818F7D888319BC1092230410927A
:106BB0001F04109221041092200400EE10E0F8014E
:106BC00080818B7F808388818160888342E060E060
:106BD00080E00E942035E1EEF0E080818E7F8083AE
:106BE000E2EEF0E080818160808380818860808334
:106BF000F80180818E7F8083888180618883DF9126
:106C0000CF911F910F910895E8EDF0E080818F7E84
:106C10008083E7EDF0E080818160808384E082BF43
:106C200081E0809322040C94C135E8EDF0E080818E
:106C30008E7F80831092E20008951092DA00109205
:106C4000E10008951F920F920FB60F9211242F9317
:106C50003F934F935F936F937F938F939F93AF93E4
:106C6000BF93EF93FF938091E10082FF0BC080916F
:106C7000E20082FF07C08091E1008B7F8093E100FA
:106C80000E943B328091DA0080FF1FC08091D800C3
:106C900080FF1BC08091DA008E7F8093DA008091A4
:106CA000D90080FF0DC080E189BD82E189BD09B4B2
:106CB00000FEFDCF81E0809323040E94143205C0C2
:106CC00019BC109223040E9426328091E10080FFBB
:106CD00019C08091E20080FF15C08091E2008E7F94
:106CE0008093E2008091E20080618093E2008091D5
:106CF000D80080628093D80019BC85E0809323047B
:106D00000E9431328091E10084FF30C08091E20026
:106D100084FF2CC080E189BD82E189BD09B400FEF9
:106D2000FDCF8091D8008F7D8093D8008091E100C5
:106D30008F7E8093E1008091E2008F7E8093E2005D
:106D40008091E20081608093E20080911F0488239B
:106D500011F084E007C08091E30087FD02C081E06C
:106D600001C083E0809323040E9435328091E100CA
:106D700083FF29C08091E20083FF25C08091E1005C
:106D8000877F8093E10082E08093230410921F04A8
:106D90008091E1008E7F8093E1008091E2008E7F00
:106DA0008093E2008091E20080618093E20042E003
:106DB00060E080E00E9420358091F0008860809340
:106DC000F0000E942D32FF91EF91BF91AF919F9102
:106DD0008F917F916F915F914F913F912F910F9084
:106DE0000FBE0F901F9018951F920F920FB60F9223
:106DF00011242F933F934F935F936F937F938F93C0
:106E00009F93AF93BF93CF93DF93EF93FF93C09183
:106E1000E900CF708091EC00D82FD17080FDD0E8D0
:106E20001092E9008091F000877F8093F0007894C1
:106E30000E9438371092E9008091F00088608093BA
:106E4000F000CD2BCF70C093E900FF91EF91DF915F
:106E5000CF91BF91AF919F918F917F916F915F91F2
:106E60004F913F912F910F900FBE0F901F9018954B
:106E70001F93CF93DF93CDB7DEB7AA970FB6F894E1
:106E8000DEBF0FBECDBFE4E2F4E08091F10081935C
:106E900024E0EC32F207C9F70E948B328091E800BF
:106EA00083FF2EC18091240490912504492F50E046
:106EB0004A30510508F024C1FA01E452FF4F0C9406
:106EC000F538803821F0823809F01AC108C0809165
:106ED000200490912104992389F082600FC0809151
:106EE00028048F70873008F00BC18093E9008091EF
:106EF000EB0085FB882780F91092E9009091E8006B
:106F0000977F9093E8008093F1001092F100D1C038
:106F1000282F2D7F09F0F4C0882319F0823061F00A
:106F2000EFC080912604813009F0EAC0933009F067
:106F300080E0809321042EC08091260481112AC014
:106F4000809128048F702FEF280F263008F0D8C0CA
:106F50008093E9002091EB0020FF1CC0933021F4C6
:106F60008091EB00806214C09091EB00906190934F
:106F7000EB0021E030E0A90102C0440F551F8A95C3
:106F8000E2F74093EA001092EA008091EB008860FB
:106F90008093EB001092E9008091E800877F809356
:106FA000E8000E945535ACC08111AAC0109126049A
:106FB0001F778091E3008078812B8093E30080919C
:106FC000E800877F8093E8000E9455358091E800B3
:106FD00080FFFCCF8091E30080688093E300111173
:106FE00002C082E001C083E08093230489C08058FE
:106FF000823008F085C080912604909127048C3D52
:1070000053E0950779F583E08A838AE289834FB755
:10701000F894DE01139620E03EE051E2E32FF0E029
:1070200050935700E49120FF03C0E295EF703F5F5B
:10703000EF708E2F90E0EA3010F0C79601C0C09636
:107040008D939D932F5F243149F74FBF8091E800C6
:10705000877F8093E8006AE270E0CE0101960E948B
:10706000613416C06091280470912904AE014F5F0D
:107070005F4F0E949333BC01892B09F441C090916A
:10708000E800977F9093E80089819A810E94BF343D
:107090008091E8008B778093E80032C0803881F5DA
:1070A0008091E800877F8093E80080911F0480939F
:1070B000F1008091E8008E7772CF811121C080911C
:1070C00026049091270499270297D4F48091E80030
:1070D000877F8093E8008091260480931F040E949C
:1070E000553580911F04811106C08091E30087FD12
:1070F00002C081E001C084E0809323040E947C32BE
:107100008091E80083FF0AC08091E800877F809328
:10711000E8008091EB0080628093EB00AA960FB6A6
:10712000F894DEBF0FBECDBFDF91CF911F910895C0
:10713000CF93809123048823A1F0C091E900CF7000
:107140009091EC00892F817090FD80E8C82B1092FF
:10715000E9008091E80083FD0E943837CF70C0932A
:10716000E900CF910895991B79E004C0991F961703
:1071700008F0961B881F7A95C9F78095089587FBBC
:10718000082E062687FD819567FD61950E94B3381C
:107190000EF4919507FC81950895AA1BBB1B51E144
:1071A00007C0AA1FBB1FA617B70710F0A61BB70B77
:1071B000881F991F5A95A9F780959095BC01CD011C
:1071C000089597FB072E16F4009407D077FD09D099
:1071D0000E94CD3807FC05D03EF4909581959F4FD5
:1071E0000895709561957F4F0895EE0FFF1F0590EC
:1071F000F491E02D09940F931F93CF93DF93823086
:10720000910510F482E090E0E0912E04F0912F04BB
:1072100020E030E0A0E0B0E0309719F140815181EA
:107220000281138148175907C8F08417950769F43C
:10723000109731F012960C93129713961C9327C057
:1072400000932E0410932F0422C02115310519F04C
:107250004217530718F49A01BD01EF01DF01F8014D
:10726000DBCF21153105F9F0281B390B243031050E
:1072700080F48A819B816115710521F0FB01938364
:10728000828304C090932F0480932E04FE013296D3
:1072900044C0FE01E20FF31F819391932250310904
:1072A000398328833AC020912C0430912D04232B5C
:1072B00041F4209102013091030130932D04209379
:1072C0002C0420910001309101012115310541F478
:1072D0002DB73EB74091040150910501241B350B99
:1072E000E0912C04F0912D04E217F307A0F42E1B7B
:1072F0003F0B2817390778F0AC014E5F5F4F24171A
:10730000350748F04E0F5F1F50932D0440932C0417
:107310008193919302C0E0E0F0E0CF01DF91CF9143
:107320001F910F910895CF93DF93009709F481C0C7
:10733000FC01329713821282A0912E04B0912F0487
:10734000109781F420813181820F931F20912C04AA
:1073500030912D042817390751F5F0932D04E0934F
:107360002C0467C0ED0120E030E0CE17DF0740F4C9
:107370004A815B819E0141155105F1F0EA01F5CF8B
:10738000D383C28340815181840F951FC817D907C9
:1073900059F488819981840F951F02969183808387
:1073A0008A819B81938382832115310529F4F0938F
:1073B0002F04E0932E043DC0E901FB83EA83499149
:1073C0005991C40FD51FEC17FD0761F4808191819D
:1073D000840F951F0296E9019983888382819381A6
:1073E0009B838A83E0E0F0E012968D919C91139745
:1073F000009719F0FD01DC01F7CF8D919C91119759
:107400009D012E5F3F4F820F931F20912C043091DE
:107410002D042817390769F4309729F410922F04A6
:1074200010922E0402C013821282B0932D04A093F6
:107430002C04DF91CF9108958F929F92AF92BF92CB
:10744000CF92DF92EF92FF92CF93DF93EC016881AE
:1074500079818A819B81611571058105910521F4EE
:1074600064E279ED8BE597E02DE133EF41E050E008
:107470000E94CD3A49015A019B01AC01A7EAB1E44F
:107480000E94EC3A6B017C01ACEEB4EFA5019401D3
:107490000E94FA3ADC01CB018C0D9D1DAE1DBF1D73
:1074A000B7FF03C00197A109B04888839983AA83D5
:1074B000BB839F77DF91CF91FF90EF90DF90CF90CC
:1074C000BF90AF909F908F9008950E941C3A0895AE
:1074D00086E091E00E941C3A0895A0E0B0E080931D
:1074E000060190930701A0930801B0930901089544
:1074F000FC014150504030F001900616D1F7319711
:10750000CF010895882799270895F999FECF92BD54
:1075100081BDF89A992780B50895A6E1B0E044E0CE
:1075200050E00C94BF3AA8E1B0E042E050E00C9487
:10753000BF3A262FF999FECF92BD81BDF89A0197E7
:1075400000B4021639F01FBA20BD0FB6F894FA9AAB
:10755000F99A0FBE08950396272F0E949A3A0E9427
:10756000993A252F0E949A3A242F0C949A3A019620
:10757000272F0E949A3A0C94993ADC01CB01FC0126
:10758000F999FECF06C0F2BDE1BDF89A319600B47C
:107590000D9241505040B8F70895052E97FB1EF408
:1075A00000940E94E43A57FD07D00E94FF3A07FC7E
:1075B00003D04EF40C94E43A5095409530952195C3
:1075C0003F4F4F4F5F4F089590958095709561950F
:1075D0007F4F8F4F9F4F08950E94213BA59F900D95
:1075E000B49F900DA49F800D911D11240895B7FFA5
:1075F0000C94EC3A0E94EC3A821B930B0895A1E2A2
:107600001A2EAA1BBB1BFD010DC0AA1FBB1FEE1F1C
:10761000FF1FA217B307E407F50720F0A21BB30B67
:10762000E40BF50B661F771F881F991F1A9469F7E3
:1076300060957095809590959B01AC01BD01CF013F
:107640000895A29FB001B39FC001A39F700D811D3B
:107650001124911DB29F700D811D1124911D08955B
:04766000F894FFCFCC
:107664000000300420000100000020000102000F8F
:10767400000F0F01191A1B1C1D1E1F20212292032B
:107684001D31CD312031C931B73101000D010D0259
:107694000D030D040D050D000C010C020C030C046C
:1076A4000C050C000B010B020B030B040B050B0068
:1076B4000A010A020A030A040A050A000901090266
:1076C400090309040905090008010802080308045C
:1076D4000805080007010702070307040705070058
:1076E4000601060206030604060506000501050256
:1076F400050305040505050004010402040304044C
:107704000405040003010302030303040305030047
:107714000201020202030204020502000101010245
:10772400010301040105010000010002000300043B
:10773400000500E200E900EA00B500B600B700CD9C
:10774400008301CC008A01920194012102230224C6
:10775400022502260227022A02B300B4006F007039
:107764000081828300010202020206060609090959
:107774000909090F0F0F0F0F0F15151518191919EE
:10778400191919191919192324252525252525E23F
:1077940000E900EA00B500B600B700CD008301CCD3
:1077A400008A019201940121022302240225022667
:1077B4000227022A02B300B4006F007000818283A2
:1077C400406D22CE1161113F11E410FD101611001D
:00000001FF
