:100000000C949E080C94BB080C94BB080C94BB0881
:100010000C94BB080C94BB080C94BB080C94BB0854
:100020000C94BB080C94BB080C9481340C9453358D
:100030000C94D62B0C94BB080C94BB080C94BB08F6
:100040000C94BB080C94BB080C94BB080C94BB0824
:100050000C94BB080C942F2C0C94BB080C94BB087C
:100060000C94BB080C94BB080C94BB080C94BB0804
:100070000C94BB080C94BB080C94BB080C94BB08F4
:100080000C94BB080C94BB080C94BB080C94BB08E4
:100090000C94BB080C94BB080C94BB080C94BB08D4
:1000A0000C94BB080C94BB080C94BB08BF09C20994
:1000B000C509C809CB09CE09D109C618C918D11874
:1000C000D618DB18E018E518EA18EF18F418F91834
:1000D000FE1800190319061909190C190F1911191D
:1000E00016194F204F2081208120CA2074220F2210
:1000F0007422EC20872199219921062274227422EE
:100100006E221B223C22232226222F222B22342243
:100110003B233B234D234D2344234D234D234D238C
:100120003B233B2349234D234D234923412E2F2E8F
:10013000482ECD2C1D2F1D2F2C2E1D2F1D2F752E23
:100140001D2F892EFD2E1D2F1D2F1D2F1D2FB92E6A
:100150001D2F1D2FA62E1D2F612E1D2F1D2F172F7A
:10016000172F172F172F172F172F172F172F172F5F
:10017000192F1D2F412E242E1D2F1D2F1D2F1D2FFA
:100180001D2F1D2F1D2F1D2F1D2F1D2F192F1D2F13
:100190001D2F2C2E1D2F152F152F152F152F152F19
:1001A000152F152F152F152F192FC035E735DF36D1
:1001B000E735DF3633365636DF36AD36BC360A0025
:1001C0002530313662003A200025303258000A725C
:1001D0002F6320303132333435363738394142439A
:1001E0004445460A006C6566742073696465206145
:1001F000747461636865640A006C65667420736971
:100200006465206E6F7420726573706F6E64696EC2
:10021000670A00747279696E6720746F2072657363
:100220006574206D63703233303138200A002E2E11
:100230002E0A00696E697420693263002900140077
:100240001A000800150017002B0004001600070014
:1002500009000A00E1001D001B000600190005004E
:10026000000000002F00300001512C0000000000B1
:100270002A0035002B004A001C0018000C00120058
:1002800013002D000B000D000E000F003300340092
:1002900011001000360037003800310028000251EC
:1002A0002E022E00000000004D004C00E300E20092
:1002B000000000000000000000000000000000003E
:1002C000000000000000000000000000000000002E
:1002D000000000000000000000000000000000001E
:1002E000000000000100005C0100010001002F007F
:1002F00001005000520051004F0026020100010091
:1003000001000100010001000000000001000100E7
:1003100001000100000000000100010001000100D7
:1003200030000100530049004700A8002702AC003C
:10033000AE00AB000100A9000100010001000100B6
:100340000100AA00010001002E00010000000000D1
:100350000100010001000100000000000000000099
:10036000000000000000000000000000000000008D
:10037000000000000000000000000000000000007D
:10038000000000000000000000000000010001006B
:100390000100010001002F0001004A004B004E0047
:1003A0004D002602010001000100010001000100D2
:1003B00000000000010046000100010000000000F4
:1003C000010001000100010030005F0060006100D9
:1003D000005C2E0227025C005D005E002D003102F1
:1003E000010059005A005B002E002D02010001009F
:1003F0000100620000000000010001000100010096
:1004000000000000000000000000000000000000EC
:1004100000000000000000000000000000000000DC
:1004200000000000000000000000000000000000CC
:100430000000000044454255473A206469736162F8
:100440006C65642E0A0044454255473A20656E614A
:10045000626C65642E0A007267626C69676874205A
:1004600074696D65722064697361626C652E0A003F
:100470007267626C696768742074696D6572206563
:100480006E61626C65642E0A007267626C696768EF
:10049000742073657420687376205B4E4F45455019
:1004A000524F4D5D3A2025752C25752C25750A0077
:1004B0007267626C6967687420736574206873760C
:1004C000205B454550524F4D5D3A2025752C2575D2
:1004D0002C25750A007267626C6967687420726106
:1004E000696E626F7720736574206873763A202591
:1004F000642C25642C25642C25750A007267626CB7
:10050000696768742064697361626C65205B454546
:1005100050524F4D5D3A207267626C696768745F34
:10052000636F6E6669672E656E61626C65203D2043
:1005300025750A007267626C6967687420656E6170
:10054000626C65205B454550524F4D5D3A207267A5
:10055000626C696768745F636F6E6669672E656E4B
:1005600061626C65203D2025750A007267626C69C6
:1005700067687420746F67676C65205B45455052EF
:100580004F4D5D3A207267626C696768745F636F94
:100590006E6669672E656E61626C65203D2025750B
:1005A0000A007267626C69676874206D6F64652009
:1005B0005B4E4F454550524F4D5D3A2025750A0020
:1005C0007267626C69676874206D6F6465205B4553
:1005D0004550524F4D5D3A2025750A007267626C96
:1005E000696768745F696E6974207267626C6967B5
:1005F00068745F636F6E6669672E6D6F6465203D1A
:1006000020302E2057726974652064656661756CB0
:10061000742076616C75657320746F204545505267
:100620004F4D2E0A007267626C696768745F696E6D
:100630006974206565636F6E666967206973206EF3
:100640006F7420656E61626C65642E0A0072676269
:100650006C696768745F696E697420737461727421
:10066000210A007267626C696768745F696E6974F9
:100670002063616C6C65642E0A007267626C696746
:1006800068745F636F6E6669672E7370656564205A
:100690003D2025640A007267626C696768745F6355
:1006A0006F6E6669672E76616C203D2025640A00B6
:1006B0007267626C696768745F636F6E6669672EE4
:1006C000736174203D2025640A007267626C69675B
:1006D00068745F636F6E6669672E687565203D207C
:1006E00025640A007267686C696768745F636F6E7F
:1006F0006669672E6D6F6465203D2025640A00726F
:1007000067626C696768745F636F6E6669672E65A0
:100710006E61626C65203D2025640A007267626C20
:10072000696768745F636F6E6669672045455052FC
:100730004F4D3A0A0032190A00047F3F1F643214F9
:10074000643214783C1E1E140A052223252628290B
:100750002A2C2D2F3032333536383A3B3D3E40423D
:10076000434547494A4C4E5051535557595A5C5E80
:100770006062646668696B6D6F71737577797B7D94
:100780007F81838587898A8C8E90929496989A9C93
:100790009E9FA1A3A5A7A8AAACAEAFB1B3B4B6B8AB
:1007A000B9BBBCBEBFC1C2C3C5C6C7C9CACBCCCD0D
:1007B000CED0D1D2D2D3D4D5D6D7D7D8D9D9DADAE8
:1007C000DBDBDBDCDCDCDCDCDDDDDDDDDCDCDCDC68
:1007D000DCDBDBDBDADAD9D9D8D7D7D6D5D4D3D29C
:1007E000D2D1D0CECDCCCBCAC9C7C6C5C3C2C1BF7A
:1007F000BEBCBBB9B8B6B4B3B1AFAEACAAA8A7A5DE
:10080000A3A19F9E9C9A98969492908E8C8A898799
:100810008583817F7D7B79777573716F6D6B696877
:10082000666462605E5C5A5957555351504E4C4A4B
:100830004947454342403E3D3B3A383635333230F6
:100840002F2D2C2A292826252322FFAA7F55400058
:100850000101010101010101010202020202020281
:100860000202030303030303030304040404040454
:10087000040505050505060606060607070707071A
:1008800008080808090909090A0A0A0B0B0B0C0CCD
:100890000C0D0D0D0E0E0E0F0F0F10101111111269
:1008A0001213131414151516161717181819191AE8
:1008B0001A1B1B1C1D1D1E1E1F202021222223244B
:1008C00024252626272829292A2B2C2D2D2E2F308A
:1008D000313232333435363738393A3B3C3D3E3F9E
:1008E000404142434445464748494A4C4D4E4F508B
:1008F000515354555658595A5B5D5E5F6162646549
:100900006668696B6C6D6F7072737577787A7B7DD2
:100910007E8082838587888A8C8E8F919395969826
:100920009A9C9EA0A2A3A5A7A9ABADAFB1B3B5B742
:10093000BABCBEC0C2C4C6C9CBCDCFD1D4D6D8DB19
:10094000DDDFE2E4E7E9EBEEF0F3F5F8FAFDFF5561
:100950006E69636F646520696E707574206D6F6475
:10096000652073657420746F3A2025750A00556EF2
:1009700069636F646520696E707574206D6F64655E
:1009800020696E697420746F3A2025750A000A0088
:100990002530325820006B6579626F6172645F7236
:1009A00065706F72743A20000A0025303258006B6F
:1009B0006579626F6172645F7365745F6C65643AD8
:1009C000200064656C5F6B65795F6269743A2063CF
:1009D000616E27742064656C3A20253032580A0015
:1009E0006164645F6B65795F6269743A2063616E0C
:1009F0002774206164643A20253032580A003F0091
:100A0000433E20004C25640A0074696D65725F7274
:100A1000656164333228293A202530346C580A0045
:100A20006B65796D61705F636F6E6669672E6E6B63
:100A3000726F3A2025580A006B6579626F617264A3
:100A40005F69646C653A2025580A006B6579626FAE
:100A50006172645F70726F746F636F6C3A202558B7
:100A60000A00686F73745F6B6579626F6172645FAF
:100A70006C65647328293A2025580A000A092D203C
:100A8000537461747573202D0A004743433A20352F
:100A90002E342E30204156522D4C4942433A2032BA
:100AA0002E302E30204156525F415243483A206149
:100AB0007672350A004F5054494F4E533A204C55E8
:100AC00046412045585452414B455920434F4E53BF
:100AD0004F4C4520434F4D4D414E44204E4B524FBD
:100AE000203531320A004255494C443A20227630B2
:100AF0002E342D32392D673762323633332D646907
:100B000072747922202831353A34353A3032204116
:100B100075672020382032303230290A0056494487
:100B20003A20307846454544285A5341205465635D
:100B3000686E6F6C6F6779204C61627320496E63D9
:100B400029205049443A2030783133303728466FD5
:100B500075726963204B6579626F617264292056F2
:100B600045523A203078303030310A000A092D20C1
:100B700056657273696F6E202D0A000A092D204395
:100B80006F6E736F6C65202D0A4553432F713A09C0
:100B9000717569740A000A092D204D616769632027
:100BA0002D0A443A094465627567204D6573736187
:100BB000676520546F67676C650A583A094D617420
:100BC000726978204465627567204D6F64652054B2
:100BD0006F67676C65202D2053686F77206B657990
:100BE0007072657373657320696E206D61747269CC
:100BF0007820677269640A4B3A094B6579626F61C4
:100C0000726420446562756720546F67676C652065
:100C10002D2053686F77206B657970726573732030
:100C20007265706F72740A4D3A0944656275672087
:100C30004D6F75736520546F67676C650A563A0986
:100C400056657273696F6E0A533A0953746174750D
:100C5000730A433A09416374697661746520436F8E
:100C60006E736F6C65204D6F64650A46312D463199
:100C7000303A0953776974636820746F204C617946
:100C8000657220302D392028463130203D204C30EF
:100C9000290A302D393A0953776974636820746FD3
:100CA000204C6179657220302D390A4752415645F2
:100CB0003A0953776974636820746F204C617965D1
:100CC0007220302028616C7465726E617465290A27
:100CD000423A094A756D7020746F20426F6F746CD0
:100CE0006F616465720A4553433A094A756D702015
:100CF000746F20426F6F746C6F616465722028613D
:100D00006C7465726E617465290A453A095072699E
:100D10006E7420454550524F4D2053657474696E72
:100D200067730A4253504143453A09436C65617207
:100D300020454550524F4D0A4E3A094E4B524F20D6
:100D4000546F67676C650A000A002575002E6E6B8C
:100D5000726F3A20000A002575002E737761705F6C
:100D60006261636B736C6173685F6261636B737004
:100D70006163653A20000A002575002E7377617063
:100D80005F67726176655F6573633A20000A0025CC
:100D900075002E6E6F5F6775693A20000A00257531
:100DA000002E737761705F72616C745F7267756932
:100DB0003A20000A002575002E737761705F6C6120
:100DC0006C745F6C6775693A20000A002575002E07
:100DD000737761705F7263746C5F726775693A20D4
:100DE000000A002575002E737761705F6C63746C68
:100DF0005F6C6775693A20000A002575002E6361F3
:100E000070736C6F636B5F746F5F636F6E74726F20
:100E10006C3A20000A002575002E737761705F63BD
:100E20006F6E74726F6C5F636170736C6F636B3A3B
:100E300020000A0025303258006B65796D61705FC3
:100E4000636F6E6669672E7261773A20000A00252B
:100E500075002E6D6F7573653A20000A00257500C8
:100E60002E6B6579626F6172643A20000A00257505
:100E7000002E6D61747269783A20000A00257500B1
:100E80002E656E61626C653A20000A00253032588A
:100E90000064656275675F636F6E6669672E726175
:100EA000773A20000A0025750064656661756C74E8
:100EB0005F6C617965723A20003F004E4B524F3AA9
:100EC000206F66660A004E4B524F3A206F6E0A0042
:100ED0000A6D6F7573653A206F66660A000A6D6F5A
:100EE0007573653A206F6E0A000A6B6579626F61EF
:100EF00072643A206F66660A000A6B6579626F61F8
:100F000072643A206F6E0A000A6D61747269783AF1
:100F1000206F66660A000A6D61747269783A206F04
:100F20006E0A000A64656275673A206F66660A0099
:100F30000A64656275673A206F6E0A000A0A4A758C
:100F40006D70696E6720746F20626F6F746C6F6173
:100F50006465722E2E2E2000433E2000436C656196
:100F600072696E6720454550524F4D0A00656563B2
:100F70006F6E6669673A0A005B735D004B65796264
:100F80006F6172642073746172742E0A005B575D26
:100F9000005B535D005B525D005B445D005B435D45
:100FA00000040330000000200346006F007500724B
:100FB000006900630020004B006500790062006F4B
:100FC00000610072006400000030035A00530041C9
:100FD00000200054006500630068006E006F006C24
:100FE000006F006700790020004C00610062007310
:100FF00000200049006E006300000004030904099A
:10100000025B00030100A0FA0904000001030101D2
:101010000009211101000122400007058103080099
:101020000A09040100010300000009211101000167
:10103000226D000705820320000A09040200020352
:10104000000000092111010001222200070583038D
:101050002000010705030320000112011001000018
:101060000008EDFE07130100010203010631FF092C
:1010700074A1010975150026FF00952075088102ED
:101080000976150026FF00952075089102C005011C
:101090000980A101850319012AB700150126B700AF
:1010A000950175108100C0050C0901A10185041985
:1010B000012AA002150126A002950175108100C029
:1010C00005010906A1018505050719E029E71500B5
:1010D00025019508750181020507190029EF150002
:1010E000250195F07501810205081901290595056D
:1010F00075019102950175039101C005010906A1D1
:1011000001050719E029E7150025019508750181FA
:10111000029501750881010507190029FF150026B0
:10112000FF00950675088100050819012905950538
:1011300075019102950175039101C00011241FBE34
:10114000CFEFDAE0DEBFCDBF12E0A0E0B1E0EEED20
:10115000F8E702C005900D92A038B107D9F724E056
:10116000A0E8B2E001C01D92A634B207E1F70E94E8
:10117000A7310C946D3C0C940000FF93EF93E09129
:101180008002F0918102309709F00995EF91FF916B
:101190000895FC018591803011F0EFDFFBCF0895B9
:1011A000FF27E0E230E247FF0CC0419597FF09C0FE
:1011B000EDE26095709580959095611D711D811D82
:1011C000911D27FF02C0219530E350E2AA27660F48
:1011D000771F881F991FAA1FA41710F0A41B6395DF
:1011E0005A95A9F7AA3008F0A95FA05DAF93F395CF
:1011F000611571058105910541F7ED3211F4EF9309
:10120000F395F21718F43F93F395FBCF8F91B5DF69
:10121000FA95E1F70895E991F9918591803021F0EF
:10122000853219F0AADFF9CF089520E0E8945591AE
:101230005532C1F3503311F4689455915A3348F440
:10124000505390F3220F022E220F220F200D250F54
:10125000F4CF0EF4219589919991533619F35337B0
:1012600029F1533559F1BC0188279927E8945C3658
:1012700021F48991999168945591543639F446EF47
:101280007EF077FF0DC08FEF9FEF0AC055374AE021
:1012900039F0583540E121F0523642E009F0089526
:1012A000FF93EF937DDFEF91FF91B7CFFF93EF9324
:1012B000FC0181918030B9F360DFFBCFFF93EF93A6
:1012C00068DFF1CFDF93CF93CDB7DEB72596A3DFED
:1012D000CF91DF91089580B38C7080BB81B3836F11
:1012E00081BB089584B1807F84B985B1807F85B941
:1012F0008AB1837F8AB98BB1837F8BB93E98469838
:101300000895CF93E82F873080F580910A0190915E
:101310000B01892B09F047C0CE2F64E670E080E412
:101320000E94301C90930B0180930A01892BD1F409
:1013300064E670E082E10E94871C90930B01809329
:101340000A01892B79F481E090E001C0880FCA95E9
:10135000EAF764E670E080950E94871C90930B0189
:1013600080930A01CF910C94DC1C90E0FC0137972C
:10137000E730F105C0F4EA5AFF4F0C945437209A35
:10138000289811C0219A29980EC0229A2A980BC039
:10139000239A2B9808C0529A5A9805C0539A5B9882
:1013A00002C03E9A4698CF910895CF93873040F57A
:1013B00080910A0190910B01892B59F564E670E048
:1013C00081E40E94301C90930B0180930A01892BC9
:1013D00011F0C0E011C084E690E00E94B71C97FFB6
:1013E00005C090930B0180930A01F3CFC82FC095DD
:1013F00010920B0110920A010E94DC1C8C2F0AC073
:101400009FB18FB1807F869586959370892B80954B
:1014100001C080E0CF91089508950C940C0A0C94BB
:101420000C0A0E94DB0B90E090930B0180930A0161
:101430000E9472090E946B09E3E8F2E0A1E9B2E0C0
:1014400011921D9282E0E139F807D1F78EE00E94F7
:10145000DB0F0C94210D0E94DB0B282F30E0309322
:101460000B0120930A011F928F938BE291E09F93CF
:101470008F930E94E4380E9472090E946B09E3E88E
:10148000F2E00F900F900F900F90119282E0E139EF
:10149000F807D9F70895EF92FF920F931F93CF9318
:1014A000DF9380910A0190910B01892B81F180914A
:1014B00082028F5F80938202811129C08EE292E0C6
:1014C0000E94C9081F928AE08F938BE291E09F935C
:1014D0008F930E94E43883E192E00E94C9080E9441
:1014E000DB0B90E090930B0180930A010F900F901B
:1014F0000F900F90892B29F089EF91E00E94C90885
:1015000006C085EE91E00E94C9080E944D0B01E9DA
:1015100012E0C0E0F12C87E0E82EEC0E8C2F0E9448
:1015200081098E2D0E9481098C2F0E94D509F80116
:101530009081891719F08083D1E001C0D0E08E2D11
:101540000E94D509F8019781891719F0878381E0F6
:1015500001C080E0D82BFD2A0E947209CF5F0F5F87
:101560001F4FC730C1F62F2D4EE063E872E081E9CE
:1015700092E00E9454100E942B0D81E0DF91CF91E8
:101580001F910F91FF90EF900895E82FF0E0ED5735
:10159000FD4F80810895CF92DF92EF92FF920F93DB
:1015A0001F93CF93DF938EEC91E00E94C90883E8EC
:1015B000E82E82E0F82EC0E0D0E099ECC92E91E050
:1015C000D92E00EC11E0DF93CF93DF92CF920E94EF
:1015D000620986EC91E00E94C908F70181917F01C0
:1015E00090E00E94EA299F938F931F930F930E948C
:1015F00062098EEB91E00E94C90821968DB79EB7D3
:1016000008960FB6F8949EBF0FBE8DBFCE30D105A1
:10161000D1F6DF91CF911F910F91FF90EF90DF9066
:10162000CF900895CF92DF92EF92FF920F931F9386
:10163000CF93DF936C01062F0E942A1C64E670E0B2
:1016400084E80E94301CCC2DDD2DE12CF12C10E023
:10165000E016F106A4F464E670E088810E94871C1D
:1016600064E670E089810E94871C64E670E08A81EC
:101670000E94871C8FEFE81AF80A2396E9CF0E9490
:10168000DC1CB801C601DF91CF911F910F91FF9033
:10169000EF90DF90CF900C94201956985E98259883
:1016A0002D9826982E9827982F988FEF90E090935A
:1016B00089008093880090938B0080938A00909398
:1016C0008D0080938C00259A2D9A2FEF80E792E071
:1016D000215080409040E1F700C00000269A2E9AE9
:1016E0002FEF80E792E0215080409040E1F700C06A
:1016F0000000279A2F9A2FEF80E792E02150804038
:101700009040E1F700C0000025982D982FEF80E76A
:1017100092E0215080409040E1F700C00000269800
:101720002E982FEF80E792E0215080409040E1F723
:1017300000C0000027982F9856985E9825982D98FD
:1017400026982E9827982F98089589EA80938000EC
:1017500089E08093810024982C983F988AB18F7CEF
:101760008AB96E98479A8BB180638BB9769A0E943A
:101770002E2A6093EE037093EF038093F00390930F
:10178000F10367708FEF689FB0011124759567951D
:10179000759567957727709389006093880070939B
:1017A0008B0060938A0070938D0060938C000E9480
:1017B0004D0B0C940D0A80E290E090930B01809306
:1017C0000A0180919F02811112C083E392E00E947E
:1017D000C9080E942A1C81E080939F022FEF83EDAD
:1017E00090E3215080409040E1F700C0000064E6A3
:1017F00070E080E40E94301C90930B0180930A01FA
:10180000892B09F04EC064E670E080E00E94871CDE
:1018100090930B0180930A01892B09F042C064E682
:1018200070E080E00E94871C90930B0180930A0176
:10183000892BB9F564E670E08FE30E94871C9093D2
:101840000B0180930A01892B61F50E94DC1C64E680
:1018500070E080E40E94301C90930B0180930A0199
:10186000892BF9F464E670E08CE00E94871C909369
:101870000B0180930A01892BA1F464E670E080E0FB
:101880000E94871C90930B0180930A01892B49F4D5
:1018900064E670E08FE30E94871C90930B018093B5
:1018A0000A010E94DC1C80910A0108951092EE0347
:1018B0001092EF031092F0031092F10384E0806124
:1018C0008093EE036091EE037091EF038091F0033B
:1018D0009091F1030E94322A0C943E2A9C013A9581
:1018E00021153F4138F5DC01AA27B270AC0144272D
:1018F00054709C012227387094FF0FC090FF02C0E3
:1019000080E101C080E0AB2B09F08062452B09F03B
:101910008064232B69F080680BC0892F8170AB2B0A
:1019200009F08260452B09F08460232B09F0886060
:10193000FB0109940895CF93DF93EC01805E910938
:10194000089710F0209719F462E070E202C065E099
:1019500073E2CE010E946E0C8C2FDF91CF910C941C
:10196000E91ECF93DF93EC010E94901FCE01805EB1
:101970009109089710F0209719F469E070E202C00D
:101980006CE073E2CE01DF91CF910C946E0CCF939B
:10199000DF93EC010E949B0CCE01DF91CF910C9460
:1019A000B10C81E0089581E008950C94D30C089562
:1019B0000C94D70C1F93CF93DF9300D000D01F92CD
:1019C000CDB7DEB749835A836B8330912503898174
:1019D0009A81311114C0662359F0222349F00E94E4
:1019E0007628182F682F89819A810E941D2803C0AC
:1019F0000E944928182F69817A81812F04C00E9492
:101A0000762869817A810F900F900F900F900F9038
:101A1000DF91CF911F910C94C50DFC01262F4081C1
:101A200051816281738184810C94DA0CCF93DF93AE
:101A3000EC0160E00E940D0DBE01DF91CF910C948E
:101A4000D80C0E94FD29811102C00E949A2A0E948E
:101A500060190C94A50B0C940F0A282F2F7041F0DD
:101A6000822F90E02A3010F44D960895069708953D
:101A700087E290E0089508950C943B0D81E008956D
:101A80000C943E0DCF93C82F0E943C0D8C2F0E94CA
:101A9000400DCF91089508950E9429230E944B0D77
:101AA0002FEF84E39CE0215080409040E1F700C09C
:101AB00000000C94552C0F931F93CF93DF93EC01F0
:101AC00061E00E940D0D8C01BE010E94D50C88239F
:101AD00009F450C0BE01C8010E94FD19882309F411
:101AE00049C0BE01C8010E948D1A882309F442C072
:101AF000BE01C8010E94CE1A8823E1F1BE01C801CF
:101B00000E94F91B8823B1F1BE01C8010E94AF18E1
:101B1000882381F18A81882331F101308CE518070F
:101B200051F00E3D8CE51807D9F001151C45D9F48C
:101B30000E944C0D1FC08091C503C82FC095C17075
:101B4000C0FB80F98093C503CC2329F086E494E0A0
:101B50000E94C9080FC084E394E00E94C9080BC02A
:101B60000E949A2A07C0CE01DF91CF911F910F9159
:101B70000C94D10CC0E08C2FDF91CF911F910F916D
:101B8000089580E090E00895089524E5829FC001C3
:101B90001124FC0126E0729FE00DF11D1124E60FD7
:101BA000F11DEE0FFF1FE45CFD4F859194910895A8
:101BB000880F991FFC01E95AFB4F85919491089574
:101BC000CF93DF930E94C50D0E94040FEC01811595
:101BD00021E59207E8F5811540E5940708F0BCC0BF
:101BE000883E910500F5803E910508F009C1883ACC
:101BF000910570F4853A910508F088C0813091050F
:101C000009F4FEC008F4FAC0049708F0F9C0F6C061
:101C10008F3B910508F482C0803C910508F4EEC02A
:101C2000805C910988C0C11580E3D80758F4C115BC
:101C300020E2D20708F07DC0C11541E0D40708F0CA
:101C4000DFC0DCC0C11580E4D80708F082C077C0CF
:101C5000811526E5920770F5811545E5940708F092
:101C6000B1C0C11583E5D80750F4C11522E5D207EC
:101C700008F08DC0DC2FCC27C16FD06AC1C0C11560
:101C800044E5D40708F099C0CE018370992721E07C
:101C900030E002C0220F331F8A95E2F78C2F869521
:101CA000869540E2849FC0011124E901C82BD92BFD
:101CB000DA68A6C0C1158AE5D80778F4C11529E508
:101CC000D20708F088C0C11548E5D40708F496C0CB
:101CD000DC2FCC27C06FD06A93C0C1158BE5D80725
:101CE00008F48CC0C1152CE5D20708F484C0CE01DD
:101CF00090568115904208F081C08D2F8F710E94FF
:101D0000980FDD27D0628F71D82B7AC0C55AD0E0EA
:101D1000CE5EDD4FC881D0E0D06472C0C85AD0E03A
:101D2000CC0FDD1FCC51DE4F0990D881C02DD4647B
:101D300067C0CE019F700E94D80DEC0161C0CE013A
:101D40009927D3FF03C0EC01D86C5AC0EC01D06CCA
:101D500057C0DF70D06A54C074E0969587957A9525
:101D6000E1F783709C2F937021E030E002C0220FD6
:101D7000331F9A95E2F73C68382BCF70C695C6950D
:101D800080E2C89FE0011124C22BD32B39C0CE01C1
:101D90008370992721E030E002C0220F331F8A951B
:101DA000E2F78C2F8695869540E2849FC00111242E
:101DB000E901C82BD92BDC6823C0DC2FCC27C46FEA
:101DC000D06A1EC00E94980F8F71C82FD0E0DC2F00
:101DD000CC27D06215C08C2F8F700E94980F94E092
:101DE000D695C7959A95E1F7CF70D0E0DC2FCC2738
:101DF000D069C82B05C0DD27D06602C0C0E0D0E0A6
:101E0000CE01DF91CF9108958238910569F1B0F448
:101E10008133910509F46DC048F48932910509F4C4
:101E200063C08A32910509F469C00895853391052C
:101E300009F455C089339105B9F00895833E9105A1
:101E400069F138F4803E9105B1F0823E910509F1C7
:101E50000895863E9105A9F1873E9105B9F1843E2A
:101E6000910509F064C023C020912D0420FD4FC0CE
:101E700021FD4DC0089580912D0480FD44C08091C6
:101E80002E0480FF44C080912D0484FD42C083EE67
:101E90004DC080912D0482FF38C0F5CF80912D0474
:101EA00082FD33C080912E0480FD31C0ECCF809143
:101EB0002E0481FF32C080912D0484FD2AC087EE5C
:101EC00035C080912D0483FF26C0F5CF80912D046D
:101ED00083FD21C080912E0481FD1FC0ECCF809135
:101EE0002D0485FD1CC01DC080912D0485FD19C0E9
:101EF00016C080912D0486FD16C017C080912D0458
:101F000086FD13C010C089E311C082EE0FC080EEC1
:101F10000DC080E00BC086EE09C084EE07C089E2E8
:101F200005C085E303C08AE201C081E390E0089523
:101F300090912D0492FF0DC0282F2871283019F49C
:101F4000877F846006C0282F2471243011F48B7F92
:101F5000886093FF0DC0282F2871283119F4877EDF
:101F6000846106C0282F2471243111F48B7E88618E
:101F700020912E0420FF0DC0382F3871383019F40D
:101F8000877F816006C0382F3171313011F48E7F28
:101F9000886021FF0DC0282F2871283119F4877E11
:101FA000816106C0282F2171213111F48E7E886154
:101FB00094FD877E0895CF93C82F90E00E945A37F2
:101FC0008093A4029093A502282FFC019BEF8E2FF3
:101FD000821B8C1710F49193FACFCF9108950F9331
:101FE0001F93CF93DF93A62F1092A3023091A402E8
:101FF000E32FF091A50220E0C62FD0E0BBEF0BEF5E
:1020000010E09E2F931B981700F590819B3FD9F00D
:10201000492F50E0A91728F0BE01641B750BAB01D6
:1020200006C0B801641B750BAB014C0F5D1F052E7C
:10203000000C660B770B4E3151056105710510F0F0
:10204000B08301C021E03196DCCF2093A302DF9161
:10205000CF911F910F910895CF93DF931092A60215
:102060005091A4023091A302DB01EC01E52FF09125
:10207000A50290E08E2F851B841778F489916C91CE
:10208000681741F060816B3F21F420838C9331E02D
:1020900001C091E031961196EDCF3093A302909359
:1020A000A602DF91CF910895DF92EF92FF920F93F6
:1020B0001F93CF93DF93EC018B01E42ED22E0E946D
:1020C000082CAC016091A1027091A2029093A2022F
:1020D0008093A1029091A002292F30E0261B370B9C
:1020E000C901840F951F6BEF70E00E942C37F82E0A
:1020F0008093A0028091A302882319F16F2D8E2D69
:102100000E94EF0FDD2069F02F2D4E2DB801CE017A
:10211000DF91CF911F910F91FF90EF90DF900C9482
:102120002C108091A302882379F38091A60281115B
:10213000EBCFDF91CF911F910F91FF90EF90DF9048
:102140000895D110E1CFF1CFEF92FF920F931F933B
:10215000CF93DF93F62E472FE82FF0E0711106C0E2
:10216000E15BF74F6491762F862F72C0272F30E006
:10217000E15BF74FE4910E2F10E056E0659FC00140
:102180001124CFEFD0E0BE010E942C375BEA56034A
:10219000C001579F900D11248F0D911D8F0D911D22
:1021A000982F990F890F7E01E21AF30AE09ED00161
:1021B000E19EB00DF09EB00D1124489FA0011124A6
:1021C000452F55277E01E41AF50AE09EA001E19E05
:1021D000500DF09E500D11247E01E81AF108E29E88
:1021E000C001E39E900DF29E900D1124892F992736
:1021F000C81BD90BC09FC001C19F900DD09F900DEF
:1022000011246230710591F048F461157105E1F017
:1022100061307105A9F48B2F752F19C064307105D9
:1022200061F038F06630710579F00AC0892F7B2F94
:102230000EC08E2F7B2FE52F0AC08E2F792F02C064
:10224000852F7E2FEB2F03C08B2F7E2FE92F6E2F34
:10225000DF91CF911F910F91FF90EF900895089516
:10226000CF93DF93762FE901682F842F0E94A4106B
:10227000798368838A83DF91CF9108958091F203F7
:10228000282F269530E02115310519F481708260E0
:1022900005C02B32310524F0817084658093F203F0
:1022A000089588E090E00C94933BCF92DF92EF92F8
:1022B000FF926B017C010E943E11B701A60188E0EC
:1022C00090E0FF90EF90DF90CF900C94B13BE2EF65
:1022D000F3E083E0808311828FEF82838383148213
:1022E00060817181828193810C9455118091C50325
:1022F00080FF08C08CE197E09F938F930E94620952
:102300000F900F908091C50380FF0FC08091F20362
:1023100081701F928F938FEF96E09F938F930E940F
:1023200062090F900F900F900F908091C50380FF6E
:102330000FC08091F20386951F928F9384EE96E0F2
:102340009F938F930E9462090F900F900F900F90B0
:102350008091C50380FF0EC08091F3031F928F937D
:102360008AEC96E09F938F930E9462090F900F90E2
:102370000F900F908091C50380FF0EC08091F403F1
:102380001F928F9380EB96E09F938F930E94620938
:102390000F900F900F900F908091C50380FF0EC09B
:1023A0008091F5031F928F9386E996E09F938F9318
:1023B0000E9462090F900F900F900F908091C503BB
:1023C00080FF0EC08091F6031F928F938AE796E0FC
:1023D0009F938F930E9462090F900F900F900F9020
:1023E00008958091F20380FF02C08695089580E0F1
:1023F00008958091F603833018F48F5F8093F6037D
:102400006091F2037091F3038091F4039091F503CE
:102410000C9455118091F603882319F08150809314
:10242000F6036091F2037091F3038091F4039091AD
:10243000F5030C94551160910F018091F20380FF18
:102440000AC080910E0123E0829FC00111248950AF
:102450009C4F0C94120B80911001909111018917DF
:1024600080F7E82FF0E09F01220F331FE20FF31FE8
:10247000E950FC4F1182108212828F5FF0CF909151
:10248000F20390FF16C09091100120911101921754
:1024900070F4E92FF0E0DF01AA0FBB1FEA0FFB1F6A
:1024A000E950FC4F8183608342839F5FF0CF0C949F
:1024B0001B120895CF93DF9300D01F92CDB7DEB7E4
:1024C0009091F20390FF0AC09E012F5F3F4F0E9440
:1024D00030114B8169818A810E943F120F900F90C9
:1024E0000F90DF91CF910895CF93DF93EC01EC81B2
:1024F000F0E0E65BF84F4491E2EFF3E06281818126
:102500000E945A128C818F5F8C83DF91CF91089546
:10251000CF93DF93EC01E2EFF3E0438162818C81A2
:102520000E945A128C818F5F8C83DF91CF91089526
:102530000F931F93CF93DF9300D01F92CDB7DEB7D9
:102540008C018091A70281110AC09E012F5F3F4F2D
:102550004FEF6FEF0E9430118A818093A702F8013C
:102560008481813051F028F0823061F44091A702DB
:102570000AC08091A70240E007C06091A70240E036
:1025800080E003C040E080E060E00E943F12F8017C
:10259000848190E0019663E070E00E94403784837C
:1025A0000F900F900F90DF91CF911F910F91089591
:1025B0004F925F926F927F928F929F92AF92BF9253
:1025C000CF92DF92EF92FF920F931F93CF93DF93FF
:1025D00000D01F92CDB7DEB7F82EB62EE42E622EB5
:1025E0009091F20390FFB4C0E92FE695AE2FB0E0D2
:1025F000AB5EBD4F8C918093FC029E7F923061F464
:102600009E012F5F3F4F8F2D0E9430114B816981BA
:102610008A810E943F1262C0823019F4E090F50373
:102620005DC0863019F4F090F30358C08930D9F3B7
:10263000893109F053C0E9518E2F8170782E81E0E5
:10264000A72CA826E695F0E0E65BF74FC590D4905E
:10265000412CDD2495ED892E94E0992E6091120194
:102660004616D0F5042D10E00C9DC0010D9D900D77
:102670001C9D900D112470E00E942C375F2C71106E
:1026800002C0560E01C0561A8091C50380FF11C0CA
:10269000DF92CF921F92AF921F925F921F924F9242
:1026A0009F928F920E9462090FB6F894DEBF0FBE10
:1026B000CDBF80911001080F111D9801220F331F0B
:1026C000020F131F980129503C4F4E2D6B2D852D65
:1026D0000E9430114394C2CF0E941B12F092F30368
:1026E000B092F403E092F5036620E9F06091F20302
:1026F0007091F3038091F4039091F5030E945511BA
:102700008091C50380FF24C08091F5031F928F93B1
:102710008091F4031F928F938091F3031F928F9304
:1027200080EB94E00CC08091C50380FF11C01F9224
:10273000EF921F92BF921F92FF9289E894E09F93BD
:102740008F930E9462090FB6F894DEBF0FBECDBF13
:102750000F900F900F90DF91CF911F910F91FF90ED
:10276000EF90DF90CF90BF90AF909F908F907F9031
:102770006F905F904F900895E2EFF3E09181282FE2
:10278000438162818CE0890F0C94D81281E00C9413
:10279000BC13E2EFF3E09181282F4381628184EF43
:1027A000890F0C94D81281E00C94C913E2EFF3E086
:1027B00062812FEF620F08F46FEF282F4381818130
:1027C0000C94D81281E00C94D613E2EFF3E062810E
:1027D0002FEF621B08F460E0282F438181810C9465
:1027E000D81281E00C94E513E2EFF3E043812CE092
:1027F000420F08F44FEF282F628181810C94D81288
:1028000081E00C94F413E2EFF3E043812CE0421BEF
:1028100008F440E0282F628181810C94D81281E075
:102820000C94031420E00C94D812FF920F931F9382
:10283000CF93DF93EC01F12C0FEF10E060911201C8
:10284000F616F0F4809110012F2D30E0280F311D85
:10285000C901880F991F280F391F29503C4F70E07C
:10286000C8010E944037962F8C814091F5036091FA
:10287000F403F99E800D11240E943011F394DECFF1
:102880000E941B129A818C8190FF02C08F5F01C051
:1028900081508C83DF91CF911F910F91FF9008950C
:1028A000AF92BF92CF92DF92EF92FF920F931F935E
:1028B000CF93DF93FC01828180FF02C00FEF01C044
:1028C00001E010E04FE0A42E80911201181708F0EB
:1028D00043C080911001C12ED12CE601C80FD11D3B
:1028E000CE01880F991FC80FD91FC950DC4F19821C
:1028F00018821A8234E0E32EF12CB12C8091A902C7
:102900008B0D80312CF06A2D0E941E37892F05C057
:1029100087FF03C090911201890F082E000C990BBC
:10292000C816D90691F48091F5038E9DA0018F9D64
:10293000500D112455954795559547959E016091E9
:10294000F4038091F3030E943011B00EF1E0EF1A0E
:10295000F108A1F61F5FB8CF0E941B128091A90257
:10296000013031F4811102C080911201815007C001
:1029700090E001966091120170E00E9440378093D0
:10298000A902DF91CF911F910F91FF90EF90DF90FF
:10299000CF90BF90AF900895CF9380911001909108
:1029A0001101891770F4E82FF0E09F01220F331F07
:1029B000E20FF31FE950FC4F1182108212828F5FE9
:1029C000F0CFC0E060911201C617C0F5EC2FF0E027
:1029D00070E0CF010E94403720911001820F2091BA
:1029E000A802022E000C330B90E0E217F307CCF0A4
:1029F00020910D01022E000C330B2E173F078CF097
:102A00009C01220F331F820F931F9C0129503C4FC2
:102A10004091F5036091F4038091F3030E9430111B
:102A20000BC0FC01EE0FFF1F8E0F9F1FFC01E95032
:102A3000FC4F118210821282CF5FC4CF0E941B1202
:102A400020910C018091A802820F8093A80290919E
:102A50000D01920F90930D0119165CF4082E000CD5
:102A6000990B4091120150E041505109841795078C
:102A70001CF0219520930C01CF9108950F931F9383
:102A8000CF93DF938C01FC01848195810196817045
:102A9000992795838483C0E0D5E580911201C817FA
:102AA00000F5809110012C2F30E0280F311DC90155
:102AB000880F991F280F391F29503C4F4C2F4695DE
:102AC000F80184819581840F911D81704091F503F7
:102AD0006091F4038D9F802D11240E943011CF5FEF
:102AE000DCCFDF91CF911F910F910C941B120F93AC
:102AF0001F93CF93DF93EC0100E010E0809112016F
:102B0000282F30E00217130724F590911001980147
:102B1000290F311DA901440F551F240F351F2950BE
:102B20003C4F869590E04C81081719071CF444230C
:102B300031F002C0411103C04091F50301C040E0F3
:102B40006091F4038091F3030E9430110F5F1F4FD7
:102B5000D5CF0E941B128C8190E00196817099273D
:102B60008C83DF91CF911F910F9108958F929F9247
:102B7000AF92BF92CF92DF92EF92FF920F931F938B
:102B8000CF93DF93FC01B280948081E0848300E0E6
:102B900015E05BE4A52E88248394EE24EA94F12CBE
:102BA0007BE4C72ED12C80911201081708F08FC04A
:102BB000C02FD0E01C9FF0011D9FF00D1124E655A1
:102BC000FD4F911003C01382128267C0238122231C
:102BD00089F1215023833481332319F09A2D921BDC
:102BE00001C0922F8091F5031C9FF0011D9FF00DF5
:102BF0001124E655FD4F899FC0011124B6010E94A2
:102C00002C376283211104C0332311F01482A38274
:102C100022E02B1508F441C01C9FF0011D9FF00D10
:102C20001124E655FD4F8091F30380838091F403D6
:102C3000818333C00E94C7388230914074F582E0AE
:102C40008B1530F40E94C738B7010E94403702C08C
:102C50008091F3031C9FF0011D9FF00D1124E65598
:102C6000FD4F808322E02B1558F40E94C738209135
:102C7000F4032695622F70E00E944037820F02C055
:102C80008091F4031C9FF0011D9FF00D1124E65567
:102C9000FD4F81831282A3828482809110019E0164
:102CA000280F311DC901880F991F280F391F29507E
:102CB0003C4F1C9FF0011D9FF00D1124E655FD4F68
:102CC0004281618180810E9430110F5F6CCFDF9162
:102CD000CF911F910F91FF90EF90DF90CF90BF9019
:102CE000AF909F908F900C941B126091F2036695A9
:102CF00070E04BE050E083E191E00E94D738892BEF
:102D000019F481E08093FD020E94082C9093F60252
:102D10008093F5028091C50380FF08C080E794E0AE
:102D20009F938F930E9462090F900F9008951092C5
:102D3000FD028091C50380FF08C087E594E09F9362
:102D40008F930E9462090F900F9008959091F20363
:102D500090FF54C09170811102C0926006C08B3206
:102D600010F0946502C0880F982B9093F2036623AD
:102D7000B1F06091F2037091F3038091F4039091AC
:102D8000F5030E9455118091C50380FF1BC08091FF
:102D9000F20386951F928F9380EC95E00BC0809193
:102DA000C50380FF0FC08091F20386951F928F9319
:102DB00082EA95E09F938F930E9462090F900F9093
:102DC0000F900F906091F203669570E04BE050E039
:102DD00083E191E00E94D738892B19F00E94971661
:102DE00002C00E94751681E08093F8024091F503BD
:102DF0006091F4038091F3030C9412140895682FEA
:102E00009091F203969581E0890F8B3208F081E072
:102E10000C94A61681E00C94FF16682F9091F20393
:102E200096958FEF890F09F48AE20C94A61681E03B
:102E30000C940D1761E00C94A6168091F20381604A
:102E40008093F2038091C50380FF0DC01F9281E043
:102E50008F9384E395E09F938F930E9462090F9074
:102E60000F900F900F908091F20386950C941A1793
:102E700060E00C94A6168091FB02811160C08091E5
:102E8000C50380FF08C083E696E09F938F930E945E
:102E900062090F900F908091C50380FF08C08DE4F8
:102EA00096E09F938F930E9462090F900F900E946B
:102EB000FD29811110C08091C50380FF08C085E203
:102EC00096E09F938F930E9462090F900F900E944B
:102ED0009A2A0E9467110E9451116093F203709325
:102EE000F3038093F4039093F5036E7FC1F4809114
:102EF000C50380FF08C08CED95E09F938F930E94DF
:102F000062090F900F900E9467110E945111609307
:102F1000F2037093F3038093F4039093F5030E94FC
:102F20003E110E9476111092FD028091F20380FF03
:102F300003C086950E94381781E08093FB020895B4
:102F40008091F2038E7F8093F2036091F20370917F
:102F5000F3038091F4039091F5030E945511809141
:102F6000C50380FF0FC08091F20381701F928F9381
:102F70008CEF94E09F938F930E9462090F900F90C3
:102F80000F900F900E9497162FEF80E792E021504C
:102F900080409040E1F700C000000C941B1280912B
:102FA000C50380FF10C08091F203809581701F924D
:102FB0008F938BE695E09F938F930E9462090F9009
:102FC0000F900F900F908091F20380FD0C94A0174A
:102FD0000C941D170F931F93CF93DF938091FD02E5
:102FE000882309F49CC08091FC02E091F203E695ED
:102FF000E81BE093F702823049F4F0E0EA5BF84F17
:10300000E491CE2FD0E004E712E159C0863049F4B4
:10301000F0E0ED5BF84FE491CE2FD0E008E812E14C
:103020004EC0893051F4E695F0E0E05CF84FE49151
:10303000CE2FD0E005E114E142C08F3051F4E69587
:10304000F0E0E35CF84FE491CE2FD0E000E514E12E
:1030500036C0853149F4F0E0E65CF84FE491CE2FBC
:10306000D0E00CEC14E12BC08831D9F0833239F474
:10307000E8E3F7E0C591D49108E912E120C0843279
:10308000A9F08532C1F48E2F63E00E941237E92F38
:10309000F0E0EB5CF84FE491CE2FD0E006EB15E1C9
:1030A0000EC0C8EED3E00EE315E109C0C4EFD1E0D5
:1030B00007E715E104C0C0EDD7E00FE211E1809110
:1030C000F802882389F01092F8020E94082C9E01D1
:1030D00020953095820F931F9093F6028093F5020E
:1030E0001092FA021092F9028091F5029091F60284
:1030F0000E94202C8C179D0790F0E091F502F09132
:10310000F602CE0FDF1FD093F602C093F50285EFD3
:1031100092E0F801DF91CF911F910F910994DF9117
:10312000CF911F910F910895882311F0FA0101C0EA
:10313000FB010994CF93DF93C82FD62F0E94F11182
:103140008C1740F00E94F1118D1720F4DF91CF9180
:103150000C940A178C2FDF91CF910C941A170F93B0
:103160001F93CF93FB01C281CC2309F463C08C0170
:103170000E941F298272F801E25CFC45E431F105EE
:1031800008F059C0E35AFF4F0C9454370E94CF17F0
:1031900006C047E157E16AE077E10E949418C0E079
:1031A0004AC04AE057E167E177E1F7CF43ED53E1E9
:1031B00066EC73E1F2CF46EC53E163ED73E1EDCFE2
:1031C00041EF53E162EE73E1E8CF42EE53E161EF8C
:1031D00073E1E3CF4FE054E160E074E1DECF40E023
:1031E00054E16FE074E1D9CF4AE052E169EF71E157
:1031F000D4CF49EF51E16AE072E1CFCF81E017C04F
:1032000065E082E010C068E086E00DC06EE089E015
:103210000AC064E18FE007C067E185E104C088E18E
:1032200006C062E289E10E949A18B9CF83E20E9447
:103230001A17B5CFC1E08C2FCF911F910F91089530
:10324000579A2BB12F773BB130684FB7F894FC01F8
:10325000CB01880F991F680F791F6E0F7F1FE6172C
:10326000F70789F0819198E03BB9000000C087FF23
:103270002BB9880F000000C000C000C02BB900C0EF
:103280009A9591F7ECCF4FBF8FE594E00197F1F756
:1032900000C000000895CF93DF9397FF0DC0FB019E
:1032A0002281222349F0EC010E949F19CE019F77D1
:1032B0000E94E0190E94C91981E0DF91CF91089521
:1032C0008CE090E00E948B3B90E0A0E0B0E0809327
:1032D000240490932504A0932604B093270480919E
:1032E000C50380FF0EC0809124041F928F938EE649
:1032F00099E09F938F930E9462090F900F900F9017
:103300000F900895609124048CE090E00C949F3B12
:10331000809324040E9482198091C50380FF0EC00F
:10332000809124041F928F938FE499E09F938F9351
:103330000E9462090F900F900F900F9008950E94C5
:103340001F29809328040E9432298091240481300F
:1033500071F048F0823081F08430A1F486EE0E9452
:10336000EF1F88E10DC082EE0E94E91E0BC088E1CC
:1033700093E00E94C70C06C082EE0E94E91E87E51A
:103380000E94EF1F8FE39CE90197F1F700C0000056
:10339000089580912404813039F040F0823031F07A
:1033A000843051F488E206C08CE204C082EE0E94B0
:1033B000901F02C00E94EF1F809128040C942F29B7
:1033C0000F931F93CF93DF938C01CCE0D0E0C80123
:1033D0000C2E02C0969587950A94E2F78F700E9492
:1033E0002D0D0E94EF1F2497CC3F8FEFD80779F760
:1033F000DF91CF911F910F9108950F931F93CF935A
:10340000DF93EC018B01FB018281882351F00E9444
:103410001F29CE01815E9C458530910510F40E94E4
:103420008819B801CE01DF91CF911F910F910C94B3
:103430004B190F931F93CF93DF93C62FD42F122FC7
:10344000FC0182818823C9F0609300030E94082C4C
:103450009093FF028093FE0280E28C0F883008F088
:1034600057C0C77081E001C0880FCA95EAF7DF91A5
:10347000CF911F910F910C9402208091000368134B
:1034800030C08091FE029091FF020E94202C883C67
:10349000910538F500E20D0FCD17B9F080E28C0FE1
:1034A000883040F4C77081E001C0880FCA95EAF700
:1034B0000E940920083028F581E09D2F977001C0F7
:1034C000880F9A95EAF70E940220812F0E94EF1F31
:1034D0000830F0F4D77081E001C0880FDA95EAF780
:1034E0000AC080E28C0F883098F4C77081E001C078
:1034F000880FCA95EAF7DF91CF911F910F910C9435
:103500000920812FDF91CF911F910F910C94EF1F14
:10351000DF91CF911F910F9108959C01CB01233F23
:103520004CE53407F9F078F4283DFCE53F07B9F0A5
:10353000293D4CE5340711F1273D3C4531F526E2A4
:1035400041EE61EE1EC0253FFCE53F0799F070F0AB
:10355000263F3C45D1F427E245EE66EE12C027E255
:1035600045EE0EC026E241EE60EE0BC027E245EECE
:1035700064EE07C026E241EE62EE03C028E241E0BD
:1035800065EE0E94191A80E00895FC01828188236B
:1035900019F010920003089581E00895CF93DF930E
:1035A000EC01FB018281882309F41FC1C230FCE5D4
:1035B000DF0708F41BC1C6319CE5D90738F09E012E
:1035C0002A5F3C452930310508F010C10E94102ABD
:1035D00090932E0480932D04C031ECE5DE0709F4AE
:1035E000C3C008F041C0C8308CE5D80709F49AC0C0
:1035F000F0F4C430ECE5DE0709F487C068F4C230AB
:103600008CE5D80709F477C0C330DC4509F0E3C086
:1036100080912D04826076C0C630ECE5DE0709F4A7
:103620006EC008F07BC080912D0488606BC0CC30E8
:103630008CE5D80709F485C068F4CA30ECE5DE07EC
:1036400009F474C008F079C00E94292380912D04E8
:10365000806858C0CE308CE5D80709F476C008F0F1
:103660007FC080912D048BC0CB3FECE5DE0709F4D1
:103670004FC018F5C3318CE5D80709F47DC078F444
:10368000C131ECE5DE0709F473C0C231DC4509F055
:10369000A2C00E94292380912D048F7733C0C531A9
:1036A0008CE5D80709F472C008F486C0CA3FDC452F
:1036B00009F091C080912E043EC0CF3FFCE5DF07AA
:1036C00009F45FC058F4CD3F9CE5D90709F444C024
:1036D00008F43FC080912E0482602DC0C130FDE50A
:1036E000DF0709F475C008F45DC0C230DD4509F09C
:1036F00072C080E06EC080912D04816003C0809113
:103700002D04806180932D0466C080912D0411C02A
:1037100080912E04826080932E045DC080912D04E0
:103720008062F0CF80912D048064ECCF80912D04D5
:1037300088608460E7CF8160EECF80912D048E7F1A
:10374000E1CF80912D048D7FDDCF80912D04877F87
:10375000D9CF80912E0418C080912E048D7FDBCFAD
:1037600080912D048F7ECECF80912D048F7DCACF86
:1037700080912D048F7BC6CF80912D04877F8B7F16
:10378000C1CF80912E048D7F8E7FC5CF80912D0477
:1037900082FB222720F991E0922790FB82F990FB8F
:1037A00083F9B0CF80912E04982F909591708E7FE1
:1037B000892B90FB81F9AFCF0E94292380912D04A2
:1037C00087FB222720F991E0922790FB87F99ACF77
:1037D00081E00E949C2A80912D0490912E040E94E9
:1037E000212A0E94292380E001C081E0DF91CF914E
:1037F0000895CF93DF9386319C4541F5EB010E94FC
:103800001F29982F8A8120911E0130911F01882342
:1038100079F09A7A81E009F480E0809301039111B4
:1038200002C069E201C065E3C9010E94592B0AC0C8
:1038300080910103811102C069E201C065E3C90101
:103840000E94642B0E94702980E001C081E0DF911A
:10385000CF9108951092B90088E48093B80008953C
:10386000EF92FF920F931F93CF93DF93182FEB01EB
:103870001092BC0084EA8093BC000E94082C7C015A
:103880008091BC0087FD0EC0CF3F8FEFD807C1F3FA
:103890000E94082C8E199F098C179D0788F38EEFC4
:1038A0009FEF2EC08091B900887F883041F08091D1
:1038B000B900887F803119F08FEF9FEF21C01093FE
:1038C000BB0084E88093BC000E94082C8C0180918E
:1038D000BC0087FD0CC0CF3F8FEFD807C1F30E941B
:1038E000082C801B910B8C179D0788F3D8CF8091F3
:1038F000B900887F883111F08034F1F680E090E0E3
:10390000DF91CF911F910F91FF90EF9008950F934A
:103910001F93CF93DF93EB018093BB0084E88093E8
:10392000BC000E94082C8C018091BC0087FD0EC059
:10393000CF3F8FEFD807C1F30E94082C801B910B5B
:103940008C179D0788F38EEF9FEF0CC02091B90074
:10395000287F81E090E0283211F480E090E091959A
:1039600081959109DF91CF911F910F9108950F9348
:103970001F93CF93DF93EC0184E88093BC000E94F7
:10398000082C8C018091BC0087FD0EC0CF3F8FEFCB
:10399000D807C1F30E94082C801B910B8C179D0740
:1039A00088F38EEF9FEF03C08091BB0090E0DF9122
:1039B000CF911F910F91089584E98093BC000895E1
:1039C00090930703809306030895E0910603F09116
:1039D0000703309721F00190F081E02D099480E0F9
:1039E0000895EF92FF921F93CF93DF93FC01A09174
:1039F0000603B0910703109709F442C080912A0191
:103A0000882341F080912D0487FF04C08081818349
:103A100085E08083EF011296ED91FC911397CE0122
:103A200009958091C50382FF2BC080FF04C086E901
:103A300099E00E94C90818E080E9E82E89E0F82E94
:103A40008091C50380FF0BC088811F928F93FF92E6
:103A5000EF920E9462090F900F900F900F901150FB
:103A600021961111EDCF8091C50380FF09C08EE82A
:103A700099E0DF91CF911F91FF90EF900C94C908CE
:103A8000DF91CF911F91FF90EF9008952091040353
:103A9000309105032817390771F09093050380933F
:103AA0000403E0910603F0910703309721F00680AC
:103AB000F781E02D099408952091020330910303CA
:103AC0002817390771F09093030380930203E09164
:103AD0000603F0910703309721F00084F185E02D73
:103AE0000994089585B7806885BF85B7806885BFCC
:103AF000089508950C94791D0C947A1D0C94791DE9
:103B00000C94791D0E94721D0E947E1D0C947C1DD8
:103B100081E008950C94881D0E94FF2B0E94110AD9
:103B20000E94872C0E943B170C94801DCF93C82FB6
:103B30008091C50382FF1EC080FF04C08FEA99E018
:103B40000E94C9088091C50380FF0CC01F92CF93CB
:103B50008AEA99E09F938F930E9462090F900F90D9
:103B60000F900F908091C50380FF04C088EA99E010
:103B70000E94C9088C2FCF910C94420DAF92BF9236
:103B8000CF92DF92EF92FF920F931F93CF93DF9329
:103B9000CDB7DEB72A970FB6F894DEBF0FBECDBF04
:103BA0000E944B0A0E948A1D811111C08FEF8983E8
:103BB0008A831B820E94082C8160782F9D838C83CE
:103BC00049815A816B818D810E94921E40C089E09B
:103BD000A82E83E0B82E00E010E0C02E802F0E94B7
:103BE000C50AE82EF501D1905F01D82631F40F5FA8
:103BF0001F4F0E30110589F7D9CF8091C50381FD84
:103C00000E94CB0A80E0FF24F3949D2D9F21D1F0E8
:103C10008E83CF82EF2081E009F480E088870E94C4
:103C2000082C8160782F9A8789874E815F8168850B
:103C30008A850E94921EF801E75FFC4F8081F8267A
:103C4000F08205C08F5FFF0C8630F9F6D0CF0E945E
:103C5000EA170E94E51C909108038917B1F00E94B1
:103C6000E51C809308032A960FB6F894DEBF0FBEBA
:103C7000CDBFDF91CF911F910F91FF90EF90DF901B
:103C8000CF90BF90AF900C94961D2A960FB6F894E3
:103C9000DEBF0FBECDBFDF91CF911F910F91FF907F
:103CA000EF90DF90CF90BF90AF900895DC01119618
:103CB0002C9111978C91682F70E041E050E001C089
:103CC000440F8A95EAF712968C91129730E0882378
:103CD00029F0809127038823E9F006C0F901E95E05
:103CE000FC4F90819423B1F086E0829FF001839F86
:103CF000F00D1124E60FF71FEE0FFF1FE45CFE4FDF
:103D0000808191818D939C93F901E95EFC4F8081C4
:103D1000482B06C0F901E95EFC4F4095808148239D
:103D200040830895CF93DF93CDB7DEB72B970FB6BF
:103D3000F894DEBF0FBECDBF942F4F83252F588739
:103D400069877A878B874A855B85452B31F02F3FC2
:103D500031F481E09F3F19F403C081E001C080E0AD
:103D600080FD04C0CE0107960E94561EDE0111960A
:103D700086E0FD0111928A95E9F785E0FE0137960C
:103D800001900D928A95E1F749815A816B817C817E
:103D90008D819E810E94E2252B960FB6F894DEBF9E
:103DA0000FBECDBFDF91CF910895FC01808191813D
:103DB0000E94B82892959F70963051F4863F41F04A
:103DC0008091270391E0892780932703909326030E
:103DD0000895CF93882309F4A1C0C82F8238C1F475
:103DE0000E94E51C81FD9AC069E380911E019091BB
:103DF0001F010E94592B0E9470292FEF81EE94E041
:103E0000215080409040E1F700C0000069E319C0F4
:103E1000833801F50E94E51C80FD80C063E5809138
:103E20001E0190911F010E94592B0E9470292FEFB3
:103E300081EE94E0215080409040E1F700C0000006
:103E400063E580911E0190911F010E94642BCF9128
:103E50000C9470298438C1F40E94E51C82FD5EC078
:103E600067E480911E0190911F010E94592B0E94CE
:103E700070292FEF81EE94E0215080409040E1F7CF
:103E800000C0000067E4DDCF8CEF8C0F813AF8F4BE
:103E90008C2F0E942A2F811141C06C2F80911E010E
:103EA00090911F010E94B72A882349F06C2F8091BE
:103EB0001E0190911F010E94642B0E9470296C2F9B
:103EC00080911E0190911F010E94592BC0CF80E26A
:103ED0008C0F883048F4C77081E001C0880FCA9504
:103EE000EAF70E942229B3CFEBE5EC0FE33040F470
:103EF000F0E0E259FD4F808190E0CF910C94461D97
:103F0000C85AC73158F4EC2FF0E0EE0FFF1FE05C09
:103F1000FD4F80819181CF910C945C1DCF910895CC
:103F2000882309F45BC0682F823879F40E94E51C6D
:103F300081FF54C069E380911E0190911F010E948E
:103F4000592B0E94702969E310C08338B1F40E9494
:103F5000E51C80FF43C063E580911E0190911F0125
:103F60000E94592B0E94702963E580911E01909157
:103F70001F010E94642B0C947029843879F40E94EC
:103F8000E51C82FF2BC067E480911E0190911F0108
:103F90000E94592B0E94702967E4E7CF8CEF860FAF
:103FA000813A18F380E2860F883048F4677081E028
:103FB00001C0880F6A95EAF70E942829DCCF8BE5BB
:103FC000860F833020F480E090E00C94461D685A00
:103FD000673120F480E090E00C945C1D0895CF934D
:103FE000C82F0E94E91EC93349F42FEF87EE93E0F2
:103FF000215080409040E1F700C000008C2FCF910D
:104000000C94901F882321F00E9422290C9470297F
:104010000895882321F00E9428290C94702908957E
:104020006F927F928F929F92BF92CF92DF92EF9288
:10403000FF920F931F93CF93DF936C01C62F172F1F
:10404000FC01058102950F70D281D1110E94422995
:104050000E9418298823B9F0DD23A9F0812F807FE1
:10406000803441F090E29C0F983068F0803611F473
:10407000C63F49F082E00E94BA290E94182991E0C7
:10408000B82EB92601C0B12CE12EE2949FE0E922BE
:104090008E2D90E0FC01EF58FF4F0C945437012F08
:1040A0000F70812F807F11F00295007FDD2399F042
:1040B000002309F498C180E28C0F883010F0C11100
:1040C00004C0802F0E94222903C0802F0E9435291E
:1040D0000E94702988C18C2F0E94901F002309F430
:1040E00039C280E28C0F883010F0C11104C0802FDB
:1040F0000E94282903C0802F0E943B290E9470291A
:1041000029C2912F9F70812F807FF92E803219F064
:10411000F29480EFF822CC2319F0C130C9F021C00D
:10412000DD2371F0002341F0013031F40E94552964
:104130008F290E945D2909C20E9455298F2916C026
:10414000002319F0013009F405C20E9466291EC03F
:10415000DD2321F0023008F0F8C107C00111FAC1D7
:1041600015C0DD2331F001113EC18F2D0E940220C8
:10417000ECC1002359F0C93309F044C1FFEF27EE29
:1041800083E0F15020408040E1F73AC18F2D0E943A
:104190000920E0C1812F86958695837019F08130C2
:1041A00071F0A2C1DD2331F08C2F912F93700E940A
:1041B000461DA4C180E090E00E94461DA6C1DD23FB
:1041C00031F08C2F912F93700E945C1D97C180E07D
:1041D00090E00E945C1D99C1812F837009F048C056
:1041E000D11186C12C2F229526952770220F220FE0
:1041F0006C2F6F70862F90E0A0E0B0E0022E04C01C
:10420000880F991FAA1FBB1F0A94D2F7C4FF10C0C2
:104210004FE050E060E070E004C0440F551F661F9F
:10422000771F2A95D2F7409550956095709503C0F9
:1042300040E050E0BA01212F2695269523703A01DF
:104240004B01682A792A8A2A9B2AC401B3012230A9
:1042500049F058F4213019F00E94332749C10E94D7
:10426000212746C10E94452743C10E941F2740C104
:10427000DD2319F0812F817001C08695882309F410
:1042800037C12C2F229526952770220F220F6C2FD5
:104290006F70862F90E0A0E0B0E0022E04C0880F7F
:1042A000991FAA1FBB1F0A94D2F7C4FF10C04FE08A
:1042B00050E060E070E004C0440F551F661F771F98
:1042C0002A95D2F7409550956095709503C040E0CF
:1042D00050E0BA01212F2695269523703A014B0113
:1042E000682A792A8A2A9B2AC401B301223049F01C
:1042F00058F4213019F00E94F827FAC00E94E627EE
:10430000F7C00E940A28F4C00E945927F1C0012F6B
:104310000F70DD2339F0802F0E947F278C2F0E94A1
:104320000220E6C08C2F0E940920802F0E94A02727
:10433000DFC0C23F61F128F4C03F41F0C13FB9F096
:104340001DC0C33F71F1C43FB1F118C0DD2339F086
:104350000111FBC0812F8F710E94C527F6C002306A
:1043600008F0F8C0812F8F710E94C527F3C0DD23AC
:1043700049F0812F8F710E947F27E7C0D11131C092
:10438000011135C0812F8F710E94A027E3C0812FBA
:104390008F71DD2319F00E94A027D7C00E947F27CC
:1043A000D9C0DD2329F0812F8F710E946A27CDC0EB
:1043B0000E946527CFC0DD2351F0012F0F71802FA0
:1043C0000E947F2763E0802F0E94A529BEC081E064
:1043D0000E94BA29023008F4BDC082E00E94BA29C6
:1043E000B9C0002331F28C2F0E94E91EAEC0C93340
:1043F00049F42FEF87EE93E0215080409040E1F7A1
:1044000000C000008C2F0E94901FA4C0412F4F704D
:104410006C2FC6010E94C10D0E9490266DC08C2F8A
:1044200090E0FC01E05FF109E730F10578F5EF5726
:10443000FF4F0C945437DD2309F450C090912703AB
:1044400081E0892705C0D093270348C081E08D27EC
:104450008093270343C0D11141C081E0F9CFD1112E
:104460003DC0109227033AC0DD2319F00E94F028C6
:1044700035C00E94FC2832C0DD2329F0809126033C
:104480008823E1F229C00023C9F228C080912603C5
:104490000023C1F0882341F09091270381E0892710
:1044A00080932703109226038C2FDD2319F00E949E
:1044B000E91E14C00E94901F86E0F60111928A95B1
:1044C000E9F70CC0882351F0D11108C0909127035F
:1044D00081E089278093270310922603412F4F7094
:1044E0006C2FC6010E94C40D88EF8E0D843020F41D
:1044F0000E94E51C0E94420DDD2339F0107F10362A
:1045000011F4C63F11F00E940A29BB2041F10E941C
:10451000EC2880FD24C0F60112820E94E6280E9449
:104520007F27C6010E94D5220E94E628DF91CF9105
:104530001F910F91FF90EF90DF90CF90BF909F90D1
:104540008F907F906F900C94A02788EF8E0D843011
:10455000A8F6CECF88EF8E0D8430B8F6C9CFDF91A4
:10456000CF911F910F91FF90EF90DF90CF90BF9070
:104570009F908F907F906F9008950F931F93CF938C
:10458000DF93EC01688179818A810E94C3288C01C4
:104590000E941C280E940D27B801CE010E94102005
:1045A000DF91CF911F910F910895CF93DF93EC018D
:1045B000988189812B813C81232B31F08F3F31F40D
:1045C00081E09F3F19F403C081E001C080E080FDDD
:1045D00019C0CE010E945B0D81110CC00E941829E8
:1045E000882381F08A81882369F082E0DF91CF916E
:1045F0000C94BA29CE010E94BD22CE01DF91CF9149
:104600000C94160DDF91CF910895882321F00E941C
:1046100035290C9470290895882321F00E943B29A4
:104620000C94702908950E9442290E9452290E94E8
:10463000702980E090E00E94461D80E090E00C949C
:104640005C1D80911E0190911F010E946F2B0C94A4
:1046500013230E9432290C942123E92FE295EF7055
:104660004E2F50E0FA013297EE30F105B0F4E857E2
:10467000FF4F0C945437803F91F018F4883E68F453
:104680000EC0843F51F40BC0883E48F0813F29F4AE
:1046900006C093FB882780F9089580E0089581E0A3
:1046A00008950E94B8280E942D230895CF93DF9388
:1046B00000D000D01F92CDB7DEB70F900F900F90B3
:1046C0000F900F90DF91CF910895CF93DF9300D09B
:1046D00000D000D0CDB7DEB726960FB6F894DEBF77
:1046E0000FBECDBFDF91CF9108951F93CF93DF937E
:1046F000C091280316E080912903C81799F0D0E0F3
:104700001C9FF0011D9FF00D1124E65DFC4F4081C0
:10471000518162817381848195810E9465232196F4
:10472000C770E9CFDF91CF911F91089540915A034F
:1047300050915B0360915C0370915D0380915E0317
:1047400090915F030C9465230F931F93CF93DF9396
:1047500080915F0382958F7009F05DC080915C034A
:10476000882309F458C0809128031091290360918F
:104770005A0370915B03C0915D03D0915E0391E099
:104780006F3F09F090E0292F06E0811709F443C03C
:10479000209721F07F3F21F030E003C031E001C0DD
:1047A000322F90E030FD34C0089FF001099FF00DDA
:1047B0001124DF01A65DBC4F11963C911197371370
:1047C00027C03C91361324C012963C9112973111A8
:1047D0001FC013964D915C9114974C1B5D0B483C88
:1047E0005105B0F480915F038F70806180935F0307
:1047F000E15DFC4F80818F70806180838AE593E06A
:104800000E94D522DF91CF911F910F910C947523B7
:1048100001968770BACFDF91CF911F910F910895C4
:104820009F92AF92BF92CF92DF92EF92FF920F933F
:104830001F93CF93DF93CDB7DEB761970FB6F89490
:10484000DEBF0FBECDBF8C0185E0F801DE011D96F5
:1048500001900D928A95E1F7F80140815181E28043
:1048600090915A0360915B0320915D0330915E0348
:104870002115310531F06F3F31F481E09F3F19F48C
:1048800003C081E001C080E0F82FF1709F2E80FD11
:1048900046C1F801A380B4808AE5C82E83E0D82EF3
:1048A000F0905C03F501E21BF30BFF2009F4DFC07D
:1048B00080915F03E83CF10508F09BC0282F207F22
:1048C00009F052C0561313C0491311C0FE2CE11059
:1048D0000EC08F70806180935F030E949623C60193
:1048E0000E94D52280915F03F801858358C1AB28CF
:1048F00031F05F3F31F481E04F3F19F403C081E0B4
:1049000001C080E080FD03C081E08E2502C080E010
:1049100090E0F82FF170FF2E80FF1CC080912803DB
:104920002091290336E0821709F417C190E0389FDF
:10493000F001399FF00D1124E65DFC4F61815613A3
:1049400006C06081461303C06281E61203C001966F
:104950008770E9CFFE2CEE2009F421C180915F031E
:10496000816080935F035AC0561306C0491304C088
:10497000E11002C0F8019FC04D875E878D859E853E
:104980000E945123882379F1EE2069F120915F0381
:10499000822F82958F7090E0029774F080915A0375
:1049A00090915B0398878F831986BB86AA862C8794
:1049B000CE0107960E94D52286E0F801AAE5B3E071
:1049C00001900D928A95E1F70E94A4230E949623FC
:1049D0000DC0561729F14D875E878D859E850E94F3
:1049E000512381112CC0C8010E94D522FF24F394C9
:1049F000D6C0282F207F69F77A2DB98AA88A6E2D14
:104A000089890E9456238AE593E00E94D52286E098
:104A1000F60111928A95E9F70E949623F12CBFC006
:104A20004913D9CFE110D7CFF8018583C8010E947F
:104A3000D52286E0F60111928A95E9F7B0C0EE2002
:104A400091F220915F03822F82958F7090E0029700
:104A50000CF4B2CF80915A0390915B039A838983BF
:104A60001B82BD82AC822E83CE010196A3CFE83C8F
:104A7000F10508F047C0FE2CEE2009F4B4CF561320
:104A800030C049132EC020915F0320FD21C0822F2A
:104A900082958F70482F50E041155105C9F0F801FB
:104AA00025834F30510541F08F5F982F9295907F6D
:104AB000822F8F70892B8583C8010E94D52286E0C2
:104AC000F801AAE5B3E001900D928A95E1F742C0A2
:104AD00086E0F801AAE5B3E001900D928A95E1F72E
:104AE0005EC04D875E878D859E850E945123811112
:104AF00063CF80915F03816080935F03C8010E9450
:104B0000D5224DC07A2DB98AA88A6E2D89890E9436
:104B1000562386E0F60111928A95E9F71BC0EE2034
:104B200009F461CF4D875E878D859E850E94512354
:104B3000F82E882309F457CF86E0F801AAE5B3E000
:104B400001900D928A95E1F78AE593E00E94D51EC7
:104B50000E94A4230E94962322C04D875E878D85E4
:104B60009E850E94B828292F22952F70223028F484
:104B70009F7039F0811105C00BC0243028F49F705C
:104B800049F4805E883020F0C8010E94D5229F2C15
:104B9000F92C05C0F8019581907F99F7F9CF8F2DF9
:104BA00061960FB6F894DEBF0FBECDBFDF91CF91F7
:104BB0001F910F91FF90EF90DF90CF90BF90AF903B
:104BC0009F9008951F93CF93DF93CDB7DEB72C97B7
:104BD0000FB6F894DEBF0FBECDBF4F8358876987ED
:104BE0007A878B879C87CE0107960E9410248823A2
:104BF000D1F09F8188852A853B85232B31F08F3F1B
:104C000031F481E09F3F19F403C081E001C080E0EE
:104C100080FD47C04F81588569857A858B859C8545
:104C20000E9465233EC086E0FE013796DE011196A4
:104C300001900D928A95E1F7FF81E8856A857B8571
:104C40006115710531F0EF3F31F481E0FF3F19F458
:104C500003C081E001C080E080FD23C020912903D2
:104C600030E0C9010196877099274091280350E0F0
:104C700084179507F1F1F983EA837D836C8396E0CD
:104C8000929FD001939FB00D1124A65DBC4FFE01F1
:104C9000319601900D929A95E1F7809329030E9435
:104CA000752316E08091280390912903891771F1EB
:104CB000189FC0011124865D9C4F0E9410248823F8
:104CC00029F1E09128031E9FF0011124E65DFC4FBD
:104CD0004081518162817381848195810E94652325
:104CE0008091280390E0019687709927809328038C
:104CF000D9CF0E9429231092290310922803EAE5B4
:104D0000F3E086E0DF011D928A95E9F72C960FB655
:104D1000F894DEBF0FBECDBFDF91CF911F910895F4
:104D2000EF92FF920F931F93CF93DF938C01892B08
:104D300009F46CC0F12CEE24E394E8012196F8010B
:104D40008491843740F4843008F051C0813081F080
:104D5000823019F15BC0853709F444C0A8F19CE7A3
:104D6000980F903708F052C08F770E94901F41C073
:104D70000E5F1F4FFE01849190E2980F983050F41F
:104D80008770FE2D01C0FF0F8A95EAF78F2F0E94D2
:104D9000452914C00E94E91E2DC00E5F1F4FFE0161
:104DA000849190E2980F983060F48770FE2D01C0D6
:104DB000FF0F8A95EAF78F2F0E944B290E947029D6
:104DC00019C00E94901F16C00E5F1F4FFE01C491B4
:104DD000CC2381F08FE99FE00197F1F700C000003C
:104DE000C150F6CF0E5F1F4FFE01F49003C00E942A
:104DF000E91E8E018F2D882309F49FCFEFE9FFE094
:104E00003197F1F700C000008150F5CFDF91CF91CD
:104E10001F910F91FF90EF900895089508950C94BD
:104E20000E270C940F270E94112760939B03709309
:104E30009C0380939D0390939E030C9413230C94E6
:104E400013270F931F9300919B0310919C032091B4
:104E50009D0330919E03602B712B822B932B1F910E
:104E60000F910C9413270F931F9300919B031091A4
:104E70009C0320919D0330919E0360237123822324
:104E800093231F910F910C9413270F931F9300915D
:104E90009B0310919C0320919D0330919E036027FA
:104EA0007127822793271F910F910C9413270C943D
:104EB0000E270E945727609397037093980380935F
:104EC000990390939A030C94132360E070E0CB0154
:104ED0000C9459270F931F9341E050E060E070E07D
:104EE0008A019B0104C0000F111F221F331F8A95E6
:104EF000D2F7C901B8011F910F910C9459270F9354
:104F00001F9341E050E060E070E004C0440F551F83
:104F1000661F771F8A95D2F7809197039091980327
:104F2000A0919903B0919A038A019B01082B192B38
:104F30002A2B3B2BC901B8011F910F910C945927C3
:104F40000F931F9341E050E060E070E004C0440F15
:104F5000551F661F771F8A95D2F74095509560952B
:104F600070958091970390919803A0919903B091C7
:104F70009A038A019B01082319232A233B23C90191
:104F8000B8011F910F910C9459270F931F9341E083
:104F900050E060E070E004C0440F551F661F771FAB
:104FA0008A95D2F78091970390919803A0919903E5
:104FB000B0919A038A019B01082719272A273B27CA
:104FC000C901B8011F910F910C9459270F931F939A
:104FD00000919703109198032091990330919A03BF
:104FE000602B712B822B932B1F910F910C945927BF
:104FF0000F931F93009197031091980320919903A9
:1050000030919A0360237123822393231F910F9180
:105010000C9459270F931F930091970310919803B5
:105020002091990330919A03602771278227932753
:105030001F910F910C9459270895292F220F920F39
:10504000990F890FE82FE695E695E695877051E070
:1050500001C0550F8A95EAF785E0E89FF001112419
:10506000E05AFC4F20E030E070E04081CB01022E9E
:1050700002C0969587950A94E2F7817081958427FE
:105080008523842781932F5F3F4F2530310569F7B2
:105090000895292F220F920F990F890F682F669577
:1050A00066956695982F977085E0689FB0011124EA
:1050B00040E050E080E0FB01E40FF51FE05AFC4FB8
:1050C000208130E0092E02C0369527950A94E2F738
:1050D00021703327042E01C0220F0A94EAF7822B95
:1050E0004F5F5F4F4530510531F70895BF92CF9222
:1050F000DF92EF92FF920F931F93CF93DF938C0178
:10510000C0909703D0909803E0909903F0909A0391
:1051100080919B0390919C03A0919D03B0919E036D
:10512000C82AD92AEA2AFB2ACFE1D0E0D701C60152
:105130000C2E04C0B695A795979587950A94D2F73B
:1051400080FD04C0219790F7B12C07C0BC2EB80198
:105150008C2F0E94E00D0197A9F38B2DDF91CF9149
:105160001F910F91FF90EF90DF90CF90BF90089527
:10517000CF93DF93EC010E947628BE010E94E00DE0
:10518000DF91CF9108951F93CF93DF93EB0190911F
:105190002503992321F0CB010E94B82813C088234E
:1051A00049F0CB010E947628182F682FCE010E946B
:1051B0001D2804C0CB010E944928182FBE01812F51
:1051C0000E94E00DDF91CF911F9108958091A0037F
:1051D00085958595859508958091A003877008959C
:1051E00082E080939F0381E08093270308951092CB
:1051F0009F0310922703089580919F03823019F432
:1052000081E080939F0380919F03833011F40C947D
:10521000F728089580919F03823019F483E08093EA
:105220009F0380919F03813011F40C94F728089517
:105230009091A003977081E009F480E00895809137
:10524000C40308959091C403892B8093C4030895E7
:1052500080959091C40389238093C403089580931B
:10526000C40308951092C40308959091C303892B39
:105270008093C303089580959091C30389238093FD
:10528000C30308951092C30308959091C203892B1C
:105290008093C203089580959091C20389238093DF
:1052A000C20308951092C20308958091A103089546
:1052B00008950C9458290C9459299091A10398179A
:1052C00021F08093A1030C945B2908958091A103A0
:1052D000882329F01092A10380E00C945B290895A3
:1052E000E0911E01F0911F018091C4038083E09141
:1052F0001E01F0911F0190818091C303892B80834F
:10530000E0911E01F0911F0190818091C203892BD1
:1053100080838091A103882381F0E0911E01F091A8
:105320001F019081892B808380911E0190911F0124
:105330000E94A12A81110E94662980911E019091EC
:105340001F010C94F11C0C94582998E0899F90013E
:105350001124262B2093A0030E947F278091A00375
:105360008595859585950C94A3291092A00380E0DE
:105370000C94A3292091A003809582238093A003FD
:10538000982F977079F430E0482F082E000C550BB9
:105390002417350739F08595859585950E94A027B6
:1053A0000C94B5290895909381028093800208950A
:1053B0008295982F937344E0949F900111248C7CE4
:1053C00086958695282B822F8575880F2A7A2695B3
:1053D000822B0895CF93DF93D92F0E94D829C82F0D
:1053E0008D2F0E94D8292C2F30E0322F2227A9019F
:1053F000482BCA01DF91CF91089580E090E00E9490
:10540000993B21E08C3E9E4F09F020E0822F0895C9
:1054100082E090E00C948B3B83E090E00C948B3B1B
:10542000CF9384E090E00E948B3BC82F81E290E014
:105430000E948B3B2C2F30E0A901582BCA01CF9141
:105440000895CF93C92F682F84E090E00E949F3B7E
:105450006C2F81E290E0CF910C949F3B8FE090E025
:105460000C94933BAB01BC018FE090E00C94B13BFA
:10547000AB01BC0183E190E00C94B13B60E070E0D3
:10548000CB010C94382A6CEE7EEF80E090E00E9415
:10549000BD3B60E082E090E00E949F3B60E083E0E3
:1054A00090E00E949F3B10929B0310929C031092ED
:1054B0009D0310929E0360E084E090E00E949F3B79
:1054C00060E081E290E00E949F3B60E085E090E038
:1054D0000E949F3B60E086E090E00E949F3B6FEF60
:1054E00087E090E00E949F3B40E050E0BA0188E0F6
:1054F00090E00E94B13B60E08DE090E00E949F3B15
:1055000040E050E0BA0188E190E00E94B13B60E0E9
:1055100087E190E00E949F3B40E050E0BA018CE1BF
:1055200090E00E94B13B60E080E290E00E949F3BEF
:105530000C94560C0C94432A682F8EE090E00C9447
:105540009F3BFC01329680912A01882331F08091A3
:105550002D0487FF02C09EE101C096E080E09150DB
:1055600028F021912223D9F38F5FF9CF0895662384
:1055700051F120912A012223E9F020912D0427FFE7
:1055800019C0462F4695469546954E31E0F4677012
:1055900021E030E002C0220F331F6A95E2F7FC01E0
:1055A000E40FF11D828190E02823392381E0232B31
:1055B00069F409C0FC01329608962191621729F01E
:1055C000E817F907D1F780E0089581E008959C017C
:1055D000FC0132969FEF80E04191461789F09F3F92
:1055E00019F4411101C0982F8F5F8630A9F79F3FB2
:1055F00039F0F901E90FF11D97FDFA9562830895DD
:1056000008959C012A5F3F4FFC014281461301C06F
:105610001282019682179307B9F70895262F2695CF
:10562000269526952E3170F4FC01E20FF11D67706E
:1056300021E030E001C0220F6A95EAF78281282B31
:10564000228308958091C50380FF0CC01F926F9341
:1056500080EE99E09F938F930E9462090F900F90C4
:105660000F900F900895262F2695269526952E317A
:1056700078F4FC01E20FF11D677021E030E001C019
:10568000220F6A95EAF720958281282322830895C4
:105690008091C50380FF0CC01F926F9382EC99E04C
:1056A0009F938F930E9462090F900F900F900F901D
:1056B000089520912A01222329F020912D0427FD0D
:1056C0000C940E2B0C94E72A20912A01222329F016
:1056D00020912D0427FD0C94332B0C94012B209149
:1056E0002A01FC013296222331F080912D0487FF9C
:1056F00002C08EE101C086E0DF011D928A95E9F7C4
:10570000089508950C94812BCF930E942B0A0E9438
:105710004B0A0E94822BC0E08C2F0E94C50A811187
:1057200004C0CF5FCE30C1F701C081E0CF910895B2
:105730000C94812B0C94982B0E949A2B809133040B
:10574000843049F11092C60320E488E190E00FB65E
:10575000F894A895809360000FBE2093600080E0CD
:105760000E94420D0E949A2B83B7817F846083BF81
:1057700083B7816083BF7894889583B78E7F83BF1A
:105780000FB6F894A89580916000886180936000BE
:10579000109260000FBE08950C94812B0E94292363
:1057A0000E94E51C0E94420D0C94CC2B1F920F927C
:1057B0000FB60F9211248F939F93AF93BF93809155
:1057C000C603811113C08091290490912A04A091ED
:1057D0002B04B0912C044196A11DB11D8093290486
:1057E00090932A04A0932B04B0932C04BF91AF9103
:1057F0009F918F910F900FBE0F901F90189582E090
:1058000084BD93E095BD9AEF97BD80936E00089597
:105810002FB7F8948091290490912A04A0912B0429
:10582000B0912C042FBF08952FB7F89460912904EC
:1058300070912A0480912B0490912C042FBF08951D
:105840009C014FB7F8948091290490912A04A0916B
:105850002B04B0912C044FBF821B930B08957894B6
:105860001F920F920FB60F9211248F939F93AF93B5
:10587000BF938091290490912A04A0912B04B091A8
:105880002C040196A11DB11D8093290490932A0434
:10589000A0932B04B0932C04BF91AF919F918F9153
:1058A0000F900FBE0F901F901895F89481E0809391
:1058B000E00080E28093D800E9ECF0E010828FE114
:1058C0009EE40197F1F700C000001DBA1092680035
:1058D0001CBC10BE1FBA10927A0010926E0010927B
:1058E0006F0010927100109272001082ECEBF0E0E9
:1058F000108214B817B81AB81DB810BA108215B8AB
:1059000018B81BB81EB811BA0C94003F08950E9435
:10591000FD29811102C00E949A2A0E94082A8093C0
:10592000C5030E94102A90932E0480932D040E9498
:105930000C2A682F70E080E090E00C941F27CF9332
:10594000C82F1F928F9384E09AE09F938F930E94B9
:10595000620981E090E0A0E0B0E0BC01CD0104C0AC
:10596000660F771F881F991FCA95D2F70E941F27BD
:105970000F900F900F900F90CF910C942923CF93FD
:10598000DF93482F50E0FA013597EF33F10508F027
:1059900054C2EA56FF4F0C9454378DE69FE00E94A4
:1059A000C90889EA9EE00E94C9080E940C2A1F9239
:1059B0008F9386EA9EE09F938F930E94620984EA08
:1059C0009EE00E94C9080E94082AC82F81E99EE033
:1059D0000E94C9081F92CF938CE89EE09F938F93FB
:1059E0000E9462098AE89EE00E94C90880E89EE061
:1059F0000E94C9088C2F81701F928F938DE79EE0C3
:105A00009F938F930E9462098BE79EE00E94C908D2
:105A100081E79EE00E94C908C1FB882780F91F9298
:105A20008F938EE69EE09F938F930E9462098CE68F
:105A30009EE00E94C90880E69EE00E94C908C2FB61
:105A4000882780F91F928F938DE59EE09F938F9317
:105A50000E9462098BE59EE00E94C90882E59EE0F3
:105A60000E94C908C3FBCC27C0F91F92CF938FE4D3
:105A70009EE09F938F930E9462098DE49EE00E94B6
:105A8000C9080E94102AEC0189E39EE00E94C9081F
:105A9000DF93CF9384E39EE09F938F930E946209EC
:105AA00082E39EE00E94C90889E19EE00E94C90845
:105AB0008C2F81701F928F9386E19EE09F938F932E
:105AC0000E9462098DB79EB780960FB6F8949EBF6C
:105AD0000FBE8DBF84E19EE00E94C9088DEF9DE05E
:105AE0000E94C908C1FB882780F91F928F938AEF13
:105AF0009DE09F938F930E94620988EF9DE00E9432
:105B0000C90886EE9DE00E94C9088D2F81701F9202
:105B10008F9383EE9DE09F938F930E94620981EEA5
:105B20009DE00E94C9088FEC9DE00E94C908D695AF
:105B3000D1701F92DF938CEC9DE09F938F930E9416
:105B400062098AEC9DE00E94C90888EB9DE00E94F2
:105B5000C908C2FB882780F91F928F9385EB9DE0CF
:105B60009F938F930E94620983EB9DE00E94C90876
:105B700081EA9DE00E94C908C3FB882780F91F9233
:105B80008F938EE99DE09F938F930E9462098CE929
:105B90009DE00E94C90882E99DE00E94C908C4FBFB
:105BA000882780F91F928F938FE89DE09F938F93B2
:105BB0000E9462098DE89DE00E94C9088BE79DE084
:105BC0000E94C908C5FB882780F91F928F9388E738
:105BD0009DE09F938F930E94620986E79DE00E945B
:105BE000C9088AE59DE00E94C908C6FB882780F99C
:105BF0001F928F9387E59DE09F938F930E94620988
:105C00008DB79EB780960FB6F8949EBF0FBE8DBF1E
:105C100085E59DE00E94C9088DE49DE00E94C908C9
:105C2000C7FBCC27C0F91F92CF938AE49DE09F93D6
:105C30008F930E94620988E49DE00E94C9080F903A
:105C40000F900F900F9006C08CE59FE00E94C9084E
:105C50000E949A2AC1E0F6C086E99BE074C0809158
:105C6000C503817F8E7F8093C5038BE79BE00E94F5
:105C7000C90888E59FE00E94C90881E08093C703B6
:105C8000E9CF8CE39FE00E94C9080E944C0DE2CF4F
:105C90008091C503C82FC095C170C0FB80F9809367
:105CA000C503CC2319F080E39FE0B9C083E29FE0F5
:105CB0000E94C9088091C503897F877F8093C503AF
:105CC000C9CF9091C50391FBCC27C0F981E0C827CB
:105CD000892FC0FB81F98093C503CC2319F086E19D
:105CE0009FE027C088E09FE02EC09091C50392FB03
:105CF000CC27C0F981E0C827892FC0FB82F98093A7
:105D0000C503CC2319F089EF9EE013C089EE9EE015
:105D10001AC09091C50393FBCC27C0F981E0C82736
:105D2000892FC0FB83F98093C503CC2351F08DEDFF
:105D30009EE00E94C9088091C50381608093C503DD
:105D400081C080ED9EE00E94C90884CF8CE69BE074
:105D50000E94C9088DE19BE00E94C90886EE9AE086
:105D60000E94C90885EB9AE00E94C9088AE89AE077
:105D7000EACF8CE79AE00E94C9080E94E51C1F92B6
:105D80008F9382E69AE09F938F930E94620980919D
:105D90002A011F928F938BE49AE09F938F930E9426
:105DA00062098091EC031F928F9388E39AE09F939E
:105DB0008F930E94620980912D0487FB882780F9C8
:105DC0001F928F9380E29AE09F938F930E946209C3
:105DD0000E94142C9F938F937F936F9389E09AE096
:105DE0009F938F930E9462098DB79EB746960FB618
:105DF000F8949EBF0FBE8DBF2DCF0E942923909196
:105E00002D0497FBCC27C0F981E0C827892FC0FB60
:105E100087F980932D04CC2329F086EC9EE00E9424
:105E2000C90810C08BEB9EE08ECF895303C08D5103
:105E300001C080E00E949F2C0DCF89EB9EE00E9464
:105E4000C908C0E08C2FDF91CF91089580E00895BC
:105E50000C94262FCF93C82F8091C703882319F065
:105E6000813051F041C00E941F29813149F00E94C8
:105E70001F298232D9F504C00E941F29813149F4BB
:105E80008C2F0E94282F811109C08C2F0E94BF2CBB
:105E900029C00E941F29823221F4F2CF81E090E0D4
:105EA00021C08C2F0E94262F81111BC0C43189F084
:105EB00018F4CB3029F010C0C93259F0C83361F45E
:105EC0008BE79BE00E94C90880E09AE00E94C90825
:105ED00008C01092C7030CC08EEF99E00E94C90859
:105EE00007C081E0817006C01092C70380E002C045
:105EF00080E0F8CFCF9108958091EB030895089545
:105F00009FB7F8941092CA039FBF909133049430C6
:105F100009F057C09091E9009F703091EC00232F59
:105F2000217030FD20E8922B23E02093E90020919E
:105F3000EB0020FF43C02091EE0027FF3FC02091DF
:105F4000C803222321F02091E80025FF37C01092DA
:105F5000C80326E03091E80035FD15C030913304C8
:105F6000343061F53091EB0035FD28C0215021F42B
:105F700081E08093C80322C0EFE9FFE03197F1F799
:105F800000C00000E7CF8093F1008091E80085FD1C
:105F90000AC08091E80080FFFCCF8091E8008E77F6
:105FA0008093E80006C08FB7F89421E02093CA03DD
:105FB0008FBF9F709093E90080E008959F70909349
:105FC000E9008FEF0895CF93DF9300D01F92CDB7F4
:105FD000DEB790913304943019F589837B836A830B
:105FE00082E08093E9008FEF9091E800815095FD69
:105FF00006C095ED9A95F1F700008111F5CF8091DB
:10600000E80085FF0DC040E050E063E070E0CE01A5
:1060100001960E9475328091E8008E778093E800A7
:106020000F900F900F90DF91CF910895CF93DF9352
:10603000EC010E945832823011F0843031F4BE01FC
:1060400084E0DF91CF910C94E32FDF91CF910895FD
:10605000BC0183E00C94E32FCF93DF93EC010E940B
:106060005832823011F08430D9F580912A0188238A
:1060700039F080912D0487FF03C060E282E002C006
:1060800068E081E08093E9008FEF9091E800815013
:1060900095FD06C095ED9A95F1F700008111F5CFB9
:1060A0008091E80085FF1CC080912A01811105C004
:1060B00040E050E068E070E003C070E040E050E095
:1060C000CE010E9475328091E8008E778093E800BF
:1060D00080E2FE01ABECB3E001900D928A95E1F70E
:1060E000DF91CF9108958DE99FE00E94C9088091CA
:1060F0003204811109C00E9406340E9463348091E9
:10610000E20084608093E200089589E99FE00E94A4
:10611000C90810923204089585E99FE00C94C908DB
:1061200081E99FE00C94C9088DE89FE00E94C908AE
:106130000C94CE2B2091C9032F5F822F62E30E9423
:106140001237992319F02093C90308951092C903B7
:106150008091CA03882371F180913304843041F522
:106160008091E9008F702091EC00922F917020FDBA
:1061700090E8892B93E09093E9009091EB0090FFD9
:1061800014C09091EE0097FF10C09091E80095FF29
:1061900003C01092F100F9CF9091E80090FF05C084
:1061A0009091E8009E779093E8008F708093E900CB
:1061B0001092CA03089542E061EC81E00E947F33AF
:1061C00042E261EC82E00E947F3342E261EC83E0D4
:1061D0000C947F3380913504833009F460C030F42F
:1061E000813071F0823009F499C008958A3009F441
:1061F00085C08B3009F46BC0893009F0A7C020C07E
:1062000080913404813A09F0A1C08091E800877F31
:106210008093E8008091380490913904892B21F40F
:1062200060E28BEC93E003C060E080E090E070E01F
:106230000E94C0328091E8008B778093E800089537
:1062400080913404813209F081C0809138049091AA
:106250003904029708F07AC08091E800877F809324
:10626000E8008091E80082FD05C08091330481112F
:10627000F8CF6CC02091F3008091F20090E0922B57
:10628000029729F48091F1008B7F813021F4809175
:10629000F1008093EB038091E8008B7753C08091ED
:1062A0003404813A09F052C0809138049091390445
:1062B000892B09F04BC08091E800877F8093E8002C
:1062C0008091E80080FFFCCF80912A0136C0809148
:1062D00034048132D9F58091380490913904892BA6
:1062E000A9F58091E800877F8093E8000E94B4338D
:1062F0008091360480932A010C94292380913404E0
:10630000813221F58091E800877F8093E8000E9428
:10631000B433809137048093EC0308958091340462
:10632000813AA1F48091E800877F8093E800809112
:10633000E80080FFFCCF8091EC038093F100809116
:10634000E8008E778093E8000C94B433089584B706
:10635000877F84BF0FB6F894A8958091600088610C
:1063600080936000109260000FBE90E080E80FB64E
:10637000F89480936100909361000FBE0E94821D8B
:106380000E9406340E9463348091E200846080930E
:10639000E20080E89FE20E94D32978940E94F736B9
:1063A0000E948C1D80E291E00E94E01C8CE79FE03F
:1063B0000E94C90880913304853089F488E79FE002
:1063C0000E94C9080E949C2B80913104882391F37C
:1063D0000E94842B882371F30E945F32EBCF0E94CE
:1063E000BE1DE8CF0C94F431292F3327233031051B
:1063F000C9F060F42130310581F02230310509F017
:1064000047C08BE590E02FEF3FE046C021323105D9
:1064100011F12232310561F13BC082E190E02AE5C1
:1064200030E13AC099278130910561F040F0823027
:10643000910559F0039761F5E1EAFFE008C0EBEF41
:10644000FFE005C0E9ECFFE002C0E7EAFFE084916D
:1064500090E09F0121C063307105D0F4660F771F73
:10646000FB01E658FD4F2081318189E090E014C0A6
:106470006330710568F4FB01EE0FFF1FEC58FD4F10
:1064800020813181FB01EF58FD4F808190E004C0F5
:1064900080E090E020E030E0FA013183208308952D
:1064A00080913304843011F081E0089582E00895F2
:1064B0008091ED03811102C00C945032089580E167
:1064C00089BD82E189BD09B400FEFDCF8091D8006D
:1064D0008F7D8093D8008091E00082608093E000FF
:1064E0008091E00081FDFCCF0895CF92DF92EF9282
:1064F000FF920F931F93CF93DF93EC018B017A01EF
:106500000E94D333811133C0E114F10439F0F70153
:1065100080819181081B190BC80FD91FC12CD12C68
:106520000115110519F18091E80085FD16C08091D3
:10653000E8008E778093E800E114F10449F0F70158
:1065400080819181C80ED91ED182C08285E00FC0A2
:106550000E94D333882321F30AC089918093F100EC
:1065600001501109FFEFCF1ADF0ADACF80E0DF9187
:10657000CF911F910F91FF90EF90DF90CF900895F2
:1065800020913A0430913B042617370748F06115F3
:10659000710539F42091E8002E772093E80001C0BE
:1065A000B901FC0120E06115710579F18091330496
:1065B0008823F1F18530F1F18091E80083FD3CC042
:1065C0008091E80082FD2EC08091E80080FFEBCF33
:1065D0002091F3008091F20090E0922B61157105FB
:1065E00051F08830910538F421912093F1006150E9
:1065F00071090196F3CF21E0089709F020E080911E
:10660000E8008E778093E800CECF2111CFCF0AC06B
:1066100080913304882361F0853061F08091E80037
:1066200083FD0AC08091E80082FFF2CF80E00895E8
:1066300082E0089583E0089581E0089520913A046E
:1066400030913B042617370748F06115710539F47E
:106650002091E8002E772093E80001C0B901FC01E9
:1066600020E06115710591F180913304882309F4CC
:1066700040C0853009F43FC08091E80083FD3DC0F3
:106680008091E80082FD2FC08091E80080FFE9CF73
:106690002091F3008091F20090E0922B611571053A
:1066A00059F08830910540F424912093F1003196FF
:1066B000615071090196F2CF21E0089709F020E0BE
:1066C0008091E8008E778093E800CBCF2111CCCF6A
:1066D0000AC080913304882361F0853061F0809195
:1066E000E80083FD0AC08091E80082FFF2CF80E0DD
:1066F000089582E0089583E0089581E00895982F39
:10670000973068F59093E900981739F07091EC0094
:106710002091ED005091F00003C0242F762F50E01F
:1067200021FD02C09F5FECCF3091EB003E7F3093A4
:10673000EB003091ED003D7F3093ED003091EB00A8
:1067400031603093EB007093EC002093ED00509398
:10675000F0002091EE0027FDE5CF80E008958F70D6
:106760008093E90081E008958091340487FF11C08F
:106770008091E80082FD05C0809133048111F8CF3B
:1067800011C08091E8008B770BC08091330488237F
:1067900049F08091E80080FFF8CF8091E8008E7783
:1067A0008093E80008952091E4003091E50095E69B
:1067B0004091EC00842F817040FF23C08091E8005D
:1067C00080FD1DC080913304882399F0853099F0B5
:1067D0008091EB0085FD11C04091E4005091E500EF
:1067E0002417350729F3915011F09A01E1CF84E085
:1067F000089582E0089583E0089581E0089580E09F
:1068000008954091E80042FFDDCF08950E9474345E
:106810000E947C34E0EEF0E0808181608083E8EDCE
:10682000F0E080818F77808319BCA7EDB0E08C9178
:106830008E7F8C9380818F7E8083109232040895A6
:106840000F931F93CF93DF930E9474340E947C3484
:10685000C8EDD0E088818F778883888180688883BD
:1068600088818F7D888319BC1092330410922F0485
:10687000109231041092300400EE10E0F801808193
:106880008B7F808388818160888342E060E080E044
:106890000E947F33E1EEF0E080818E7F8083E2EE24
:1068A000F0E0808181608083808188608083F8014E
:1068B00080818E7F8083888180618883DF91CF9102
:1068C0001F910F910895E8EDF0E080818F7E808325
:1068D000E7EDF0E080818160808384E082BF81E029
:1068E000809332040C942034E8EDF0E080818E7FB8
:1068F00080831092E20008951092DA001092E10075
:1069000008951F920F920FB60F9211242F933F9369
:106910004F935F936F937F938F939F93AF93BF93A7
:10692000EF93FF938091E10082FF0BC08091E20022
:1069300082FF07C08091E1008B7F8093E1000E947D
:106940009A308091DA0080FF1FC08091D80080FFCC
:106950001BC08091DA008E7F8093DA008091D9008D
:1069600080FF0DC080E189BD82E189BD09B400FED0
:10697000FDCF81E0809333040E94733005C019BCC1
:10698000109233040E9485308091E10080FF19C08D
:106990008091E20080FF15C08091E2008E7F80939D
:1069A000E2008091E20080618093E2008091D80053
:1069B00080628093D80019BC85E0809333040E94E4
:1069C00090308091E10084FF30C08091E20084FF2C
:1069D0002CC080E189BD82E189BD09B400FEFDCFF4
:1069E0008091D8008F7D8093D8008091E1008F7EC8
:1069F0008093E1008091E2008F7E8093E20080919D
:106A0000E20081608093E20080912F04882311F0DE
:106A100084E007C08091E30087FD02C081E001C0EF
:106A200083E0809333040E9494308091E10083FFDF
:106A300029C08091E20083FF25C08091E100877F1B
:106A40008093E10082E08093330410922F048091C0
:106A5000E1008E7F8093E1008091E2008E7F809341
:106A6000E2008091E20080618093E20042E060E019
:106A700080E00E947F338091F00088608093F00076
:106A80000E948C30FF91EF91BF91AF919F918F91B8
:106A90007F916F915F914F913F912F910F900FBE1A
:106AA0000F901F9018951F920F920FB60F921124FE
:106AB0002F933F934F935F936F937F938F939F9306
:106AC000AF93BF93CF93DF93EF93FF93C091E90010
:106AD000CF708091EC00D82FD17080FDD0E810925B
:106AE000E9008091F000877F8093F00078940E9405
:106AF00097351092E9008091F00088608093F00053
:106B0000CD2BCF70C093E900FF91EF91DF91CF9132
:106B1000BF91AF919F918F917F916F915F914F91B5
:106B20003F912F910F900FBE0F901F9018951F93BC
:106B3000CF93DF93CDB7DEB7AA970FB6F894DEBF39
:106B40000FBECDBFE4E3F4E08091F100819324E037
:106B5000EC33F207C9F70E94EA308091E80083FF26
:106B60002EC18091340490913504492F50E04A3071
:106B7000510508F024C1FA01EB52FF4F0C94543731
:106B8000803821F0823809F01AC108C080913004A1
:106B900090913104992389F082600FC0809138046C
:106BA0008F70873008F00BC18093E9008091EB0073
:106BB00085FB882780F91092E9009091E800977F83
:106BC0009093E8008093F1001092F100D1C0282F3B
:106BD0002D7F09F0F4C0882319F0823061F0EFC0F6
:106BE00080913604813009F0EAC0933009F080E0EA
:106BF000809331042EC08091360481112AC0809187
:106C000038048F702FEF280F263008F0D8C08093FB
:106C1000E9002091EB0020FF1CC0933021F480910B
:106C2000EB00806214C09091EB0090619093EB00B8
:106C300021E030E0A90102C0440F551F8A95E2F718
:106C40004093EA001092EA008091EB008860809304
:106C5000EB001092E9008091E800877F8093E800C4
:106C60000E94B433ACC08111AAC0109136041F77C2
:106C70008091E3008078812B8093E3008091E8008D
:106C8000877F8093E8000E94B4338091E80080FF02
:106C9000FCCF8091E30080688093E300111102C073
:106CA00082E001C083E08093330489C08058823041
:106CB00008F085C080913604909137048C3D53E0F4
:106CC000950779F583E08A838AE289834FB7F89440
:106CD000DE01139620E03EE051E2E32FF0E0509316
:106CE0005700E49120FF03C0E295EF703F5FEF7023
:106CF0008E2F90E0EA3010F0C79601C0C0968D93B9
:106D00009D932F5F243149F74FBF8091E800877F23
:106D10008093E8006AE270E0CE0101960E94C032E2
:106D200016C06091380470913904AE014F5F5F4F17
:106D30000E94F231BC01892B09F441C09091E80016
:106D4000977F9093E80089819A810E941E338091F9
:106D5000E8008B778093E80032C0803881F580911D
:106D6000E800877F8093E80080912F048093F100F2
:106D70008091E8008E7772CF811121C08091360416
:106D80009091370499270297D4F48091E800877F87
:106D90008093E8008091360480932F040E94B433DE
:106DA00080912F04811106C08091E30087FD02C00D
:106DB00081E001C084E0809333040E94DB30809145
:106DC000E80083FF0AC08091E800877F8093E80095
:106DD0008091EB0080628093EB00AA960FB6F89446
:106DE000DEBF0FBECDBFDF91CF911F910895CF932E
:106DF000809133048823A1F0C091E900CF70909175
:106E0000EC00892F817090FD80E8C82B1092E9007A
:106E10008091E80083FD0E949735CF70C093E90010
:106E2000CF910895991B79E004C0991F961708F037
:106E3000961B881F7A95C9F78095089587FB082EC1
:106E4000062687FD819567FD61950E9412370EF435
:106E5000919507FC81950895AA1BBB1B51E107C0C2
:106E6000AA1FBB1FA617B70710F0A61BB70B881FDA
:106E7000991F5A95A9F780959095BC01CD01089569
:106E800097FB072E16F4009407D077FD09D00E94D7
:106E90002C3707FC05D03EF4909581959F4F0895BF
:106EA000709561957F4F0895EE0FFF1F0590F49147
:106EB000E02D09940F931F93CF93DF9382309105B8
:106EC00010F482E090E0E0913E04F0913F0420E075
:106ED00030E0A0E0B0E0309719F1408151810281AB
:106EE000138148175907C8F08417950769F410975C
:106EF00031F012960C93129713961C9327C00093AF
:106F00003E0410933F0422C02115310519F04217A9
:106F1000530718F49A01BD01EF01DF01F801DBCF3F
:106F200021153105F9F0281B390B2430310580F487
:106F30008A819B816115710521F0FB019383828316
:106F400004C090933F0480933E04FE01329644C0F7
:106F5000FE01E20FF31F819391932250310939838F
:106F600028833AC020913C0430913D04232B41F406
:106F7000209102013091030130933D0420933C04A1
:106F800020910001309101012115310541F42DB707
:106F90003EB74091040150910501241B350BE0914F
:106FA0003C04F0913D04E217F307A0F42E1B3F0BC5
:106FB0002817390778F0AC014E5F5F4F241735076B
:106FC00048F04E0F5F1F50933D0440933C04819363
:106FD000919302C0E0E0F0E0CF01DF91CF911F91EB
:106FE0000F910895CF93DF93009709F481C0FC01BE
:106FF000329713821282A0913E04B0913F04109701
:1070000081F420813181820F931F20913C043091C3
:107010003D042817390751F5F0933D04E0933C04F3
:1070200067C0ED0120E030E0CE17DF0740F44A8171
:107030005B819E0141155105F1F0EA01F5CFD38343
:10704000C28340815181840F951FC817D90759F415
:1070500088819981840F951F0296918380838A810C
:107060009B81938382832115310529F4F0933F049A
:10707000E0933E043DC0E901FB83EA8349915991C5
:10708000C40FD51FEC17FD0761F480819181840F37
:10709000951F0296E90199838883828193819B835E
:1070A0008A83E0E0F0E012968D919C91139700970F
:1070B00019F0FD01DC01F7CF8D919C9111979D0195
:1070C0002E5F3F4F820F931F20913C0430913D046F
:1070D0002817390769F4309729F410923F04109269
:1070E0003E0402C013821282B0933D04A0933C047C
:1070F000DF91CF9108958F929F92AF92BF92CF92DE
:10710000DF92EF92FF92CF93DF93EC016881798158
:107110008A819B81611571058105910521F464E2E5
:1071200079ED8BE597E02DE133EF41E050E00E94EF
:10713000D33B49015A019B01AC01A7EAB1E40E948B
:10714000F23B6B017C01ACEEB4EFA50194010E940F
:10715000003CDC01CB018C0D9D1DAE1DBF1DB7FF9A
:1071600003C00197A109B04888839983AA83BB8390
:107170009F77DF91CF91FF90EF90DF90CF90BF90FE
:10718000AF909F908F9008950E947B38089586E07D
:1071900091E00E947B380895A0E0B0E08093060162
:1071A00090930701A0930801B09309010895FC0191
:1071B0004150504030F001900616D1F73197CF0181
:1071C0000895882799270895A0E0B0E0EAEEF8E353
:1071D0000C94153CAE014B5F5F4FFA0161917191C8
:1071E000AF0180914204909143040E94FA38E2E09A
:1071F0000C94313CABE0B0E0E0E0F9E30C94053CEA
:107200006C017B018A01FC0117821682838181FF58
:10721000CCC1CE0101963C01F6019381F70193FDAB
:10722000859193FF81917F01882309F4BAC185324A
:1072300039F493FD859193FF81917F01853229F483
:10724000B60190E00E94F13AE7CF912C212C312C2D
:10725000FFE1F315D8F08B3279F038F4803279F011
:107260008332A1F4232D20611DC08D3261F0803363
:1072700069F4232D216016C0832D8260382EE32D02
:10728000E4603E2E2AC0F32DF8601DC037FC2DC0EF
:1072900020ED280F2A3040F08E32B9F436FC81C13F
:1072A000232D2064322E19C036FE06C08AE0989E37
:1072B000200D1124922E11C0EAE02E9E200D1124E3
:1072C000222EF32DF0623F2E08C08C3621F4832D40
:1072D0008068382E02C0883641F4F70193FD85910D
:1072E00093FF81917F018111B3CF982F9F7D95549A
:1072F000933028F40C5F1F4F9FE399830DC08336B2
:1073000031F0833771F0833509F059C021C0F8019D
:10731000808189830E5F1F4F88248394912C5301B1
:1073200013C02801F2E04F0E511CF801A080B1807B
:1073300036FE03C0692D70E002C06FEF7FEFC5011C
:107340000E94E63A4C018201F32DFF773F2E16C0D2
:10735000280122E0420E511CF801A080B18036FEC7
:1073600003C0692D70E002C06FEF7FEFC5010E947E
:10737000DB3A4C01F32DF0683F2E820133FC1BC039
:10738000822D90E088169906B0F4B60180E290E074
:107390000E94F13A2A94F4CFF50137FC859137FE2B
:1073A00081915F01B60190E00E94F13A21102A9488
:1073B00021E0821A91088114910471F7E8C08436A3
:1073C00011F0893641F5F80137FE07C060817181FF
:1073D000828193810C5F1F4F08C060817181072EED
:1073E000000C880B990B0E5F1F4FF32DFF763F2E7D
:1073F00097FF09C090958095709561957F4F8F4F4D
:107400009F4FF0683F2E2AE030E0A3010E942D3B01
:10741000882E861845C0853731F4232D2F7EB22E55
:107420002AE030E025C0932D997FB92E8F36C1F028
:1074300018F4883579F0B5C0803719F0883721F015
:10744000B0C0E92FE061BE2EB4FE0DC0FB2DF4608C
:10745000BF2E09C034FE0AC0292F2660B22E06C0F6
:1074600028E030E005C020E130E002C020E132E059
:10747000F801B7FE07C060817181828193810C5F42
:107480001F4F06C06081718180E090E00E5F1F4F4A
:10749000A3010E942D3B882E8618FB2DFF773F2EDF
:1074A00036FE0DC0232D2E7FA22E891458F434FEF3
:1074B0000BC032FC09C0832D8E7EA82E05C0B82CCF
:1074C000A32C03C0B82C01C0B92CA4FE0FC0FE0130
:1074D000E80DF11D8081803321F49A2D997EA92E2B
:1074E00009C0A2FE06C0B394B39404C08A2D867866
:1074F00009F0B394A3FC11C0A0FE06C0B21488F436
:10750000280C922C9B180EC0B21460F4B60180E2D5
:1075100090E00E94F13AB394F7CFB21418F42B180C
:1075200002C0982C212CA4FE10C0B60180E390E08C
:107530000E94F13AA2FE17C0A1FC03C088E790E0C8
:1075400002C088E590E0B6010CC08A2D867859F01B
:10755000A1FE02C08BE201C080E2A7FC8DE2B60171
:1075600090E00E94F13A891438F4B60180E390E08B
:107570000E94F13A9A94F7CF8A94F301E80DF11D35
:107580008081B60190E00E94F13A8110F5CF22206F
:1075900009F442CEB60180E290E00E94F13A2A94CA
:1075A000F6CFF6018681978102C08FEF9FEF2B9671
:1075B000E2E10C94213CFC01059061507040011007
:1075C000D8F7809590958E0F9F1F0895FC0161500C
:1075D000704001900110D8F7809590958E0F9F1FF5
:1075E00008950F931F93CF93DF93FB01238121FD18
:1075F00003C08FEF9FEF2CC022FF16C0468157813A
:10760000248135814217530744F4A081B1819D0143
:107610002F5F3F4F318320838C93268137812F5FEB
:107620003F4F3783268314C08B01EC01FB0100849C
:10763000F185E02D0995892BE1F6D80116968D91FB
:107640009C911797019617969C938E931697CE014F
:10765000DF91CF911F910F910895FA01AA27283049
:1076600051F1203181F1E8946F936E7F6E5F7F4F0F
:107670008F4F9F4FAF4FB1E03ED0B4E03CD0670F8B
:10768000781F891F9A1FA11D680F791F8A1F911DDE
:10769000A11D6A0F711D811D911DA11D20D009F42E
:1076A00068943F912AE0269F11243019305D319370
:1076B000DEF6CF010895462F4770405D4193B3E059
:1076C0000FD0C9F7F6CF462F4F70405D4A3318F000
:1076D000495D31FD4052419302D0A9F7EACFB4E0B1
:1076E000A6959795879577956795BA95C9F7009769
:1076F0006105710508959B01AC010A2E069457950A
:10770000479537952795BA95C9F7620F731F841F60
:10771000951FA01D0895F999FECF92BD81BDF89ADD
:10772000992780B50895A6E1B0E044E050E00C94BC
:10773000C53BA8E1B0E042E050E00C94C53B262FE9
:10774000F999FECF92BD81BDF89A019700B4021657
:1077500039F01FBA20BD0FB6F894FA9AF99A0FBE05
:1077600008950396272F0E94A03B0E949F3B252F40
:107770000E94A03B242F0C94A03B0196272F0E942F
:10778000A03B0C949F3BDC01CB01FC01F999FECF9F
:1077900006C0F2BDE1BDF89A319600B40D92415099
:1077A0005040B8F70895052E97FB1EF400940E94F0
:1077B000EA3B57FD07D00E943C3C07FC03D04EF447
:1077C0000C94EA3B50954095309521953F4F4F4F93
:1077D0005F4F089590958095709561957F4F8F4F7D
:1077E0009F4F08950E945E3CA59F900DB49F900D01
:1077F000A49F800D911D11240895B7FF0C94F23BB6
:107800000E94F23B821B930B08952F923F924F925E
:107810005F926F927F928F929F92AF92BF92CF9220
:10782000DF92EF92FF920F931F93CF93DF93CDB729
:10783000DEB7CA1BDB0B0FB6F894DEBF0FBECDBFA1
:1078400009942A88398848885F846E847D848C8472
:107850009B84AA84B984C884DF80EE80FD800C817B
:107860001B81AA81B981CE0FD11D0FB6F894DEBF5E
:107870000FBECDBFED010895A1E21A2EAA1BBB1BBE
:10788000FD010DC0AA1FBB1FEE1FFF1FA217B307EC
:10789000E407F50720F0A21BB30BE40BF50B661F02
:1078A000771F881F991F1A9469F7609570958095C6
:1078B00090959B01AC01BD01CF010895A29FB0013D
:1078C000B39FC001A39F700D811D1124911DB29F14
:0E78D000700D811D1124911D0895F894FFCFB5
:1078DE000000460420000100000020000102000FFD
:1078EE00000F0F01191A1B1C1D1E1F202122A2039F
:1078FE007C2F2C307F2F28301630014D43502053D3
:10790E0074617475733A202564200A00000D010D10
:10791E00020D030D040D050D000C010C020C030CE1
:10792E00040C050C000B010B020B030B040B050BD7
:10793E00000A010A020A030A040A050A00090109DB
:10794E0002090309040905090008010802080308D1
:10795E0004080508000701070207030704070507C7
:10796E0000060106020603060406050600050105CB
:10797E0002050305040505050004010402040304C1
:10798E0004040504000301030203030304030503B7
:10799E0000020102020203020402050200010101BB
:1079AE0002010301040105010000010002000300B1
:1079BE0004000500E200E900EA00B500B600B700D9
:1079CE00CD008301CC008A01920194012102230291
:1079DE0024022502260227022A02B300B4006F00F9
:1079EE007000818283000102020202060606090966
:1079FE00090909090F0F0F0F0F0F15151518191972
:107A0E00191919191919191923242525252525257B
:107A1E00E200E900EA00B500B600B700CD00830130
:107A2E00CC008A0192019401210223022402250234
:107A3E00260227022A02B300B4006F007000818272
:107A4E0083406D22FB108E106C1011102A10431003
:00000001FF
