:100000000C94CF010C9463090C9416020C94160204
:100010000C9416020C9416020C9416020C94160200
:100020000C9416020C9416020C94AF200C948121AF
:100030000C940B170C9416020C9416020C941602D6
:100040000C9416020C9416020C9416020C941602D0
:100050000C9416020C9458170C9416020C94160269
:100060000C9416020C9416020C9416020C941602B0
:100070000C9416020C9416020C9416020C941602A0
:100080000C9416020C9416020C9416020C94160290
:100090000C9416020C9416020C9416020C94160280
:1000A0000C9416020C9416020C941602B10CB10CAE
:1000B000E30CE30C300D4E0D6F0E6F0E590DEE0D6F
:1000C000FF0DFF0D5F0E6F0E6F0E680E0F0F0F0FFF
:1000D000210F210F180F210F210F210F0F0F0F0FCD
:1000E0001D0F210F210F1D0FEE2115220D231522AB
:1000F0000D23612284220D23DB22EA222900140031
:100100001A000800150017002B0004001600070055
:1001100009000A00E1001D001B000600190005008F
:10012000000000002F00300001512C0000000000F2
:100130002A0035002B004A001C0018000C00120099
:1001400013002D000B000D000E000F0033003400D3
:10015000110010003600370038003100280002512D
:100160002E022E00000000004D004C00E300E200D3
:10017000000000000100005C0100010001002F00F0
:1001800001005000520051004F0026020100010002
:100190000100010001000100000000000100010059
:1001A0000100010000000000010001000100010049
:1001B00030000100530049004700A8002702AC00AE
:1001C000AE00AB000100A900010001000100010028
:1001D0000100AA00010001002E0001000000000043
:1001E0000100010001000100000000000100010009
:1001F0000100010001002F0001004A004B004E00E9
:100200004D00260201000100010001000100010073
:100210000000000001004600010001000000000095
:10022000010001000100010030005F00600061007A
:10023000005C2E0227025C005D005E002D00310292
:10024000010059005A005B002E002D020100010040
:100250000100620000000000010001000100010037
:1002600000000000040330000000100350005200A2
:100270004F00440055004300540000000E0374007A
:10028000730068006F00720074000000040309042A
:1002900009023B00020100A0FA0904000001030169
:1002A0000100092111010001224000070581030816
:1002B000000A0904010001030000000921110100E6
:1002C000012281000705820320000A1201100100AB
:1002D0000000084D44363401000102030105010904
:1002E00002A10185020901A10005091901290515CD
:1002F00000250195057501810295017503810105B0
:1003000001093009311581257F950275088106099B
:10031000381581257F950175088106050C0A38027C
:100320001581257F950175088106C0C005010980EA
:10033000A101850319012AB700150126B70095010F
:1003400075108100C0050C0901A101850419012A5D
:10035000A002150126A002950175108100C00501BB
:100360000906A101050719E029E7150025019508EF
:10037000750181029501750881010507190029FFA2
:10038000150026FF0095067508810005081901294A
:1003900005950575019102950175039101C0112420
:1003A0001FBECFEFDAE0DEBFCDBF04B603FE27C02D
:1003B0008091780290917902A0917A02B0917B02AB
:1003C0008730904BA740B04BD1F410927802109236
:1003D000790210927A0210927B0214BE84B7877F52
:1003E00084BF0FB6F894A8958091600088618093CF
:1003F0006000109260000FBEE0E0F8E3099511E0A4
:10040000A0E0B1E0E6E6F7E402C005900D92A8395D
:10041000B107D9F722E0A8E9B1E001C01D92A837E1
:10042000B207E1F70E94DE1D0C94B1230C9400008A
:100430000C94EF0481E0089581E008950C941C026F
:1004400008950C9420021F93CF93DF9300D000D027
:100450001F92CDB7DEB749835A836B833091BA01BF
:1004600089819A81311114C0662359F0222349F001
:100470000E948414182F682F89819A810E942B145E
:1004800003C00E945714182F69817A81812F04C0FC
:100490000E94841469817A810F900F900F900F90C1
:1004A0000F90DF91CF911F910C94D502FC01262F64
:1004B000408151816281738184810C942302CF93A6
:1004C000DF93EC0160E00E945602BE01DF91CF9104
:1004D0000C9421020E94B615811102C00E9456168A
:1004E0000C9418020C94ED0408950C94740281E0AD
:1004F00008950C947702CF93C82F0E9475028C2F19
:100500000E947902CF91089508950E94FD0E0E94E5
:1005100084022FEF84E39CE0215080409040E1F77B
:1005200000C000000C947E170F931F93CF93DF93AE
:10053000EC0161E00E9456028C01BE010E941E0285
:10054000882349F1BE01C8010E941D07882319F1C3
:10055000BE01C8010E945E078823E9F0BE01C80100
:100560000E9489088823B9F08A81882369F00115DF
:100570008CE5180731F00E3D1C4531F40E945616EB
:100580000AC00E94850207C0CE01DF91CF911F9162
:100590000F910C941A0280E0DF91CF911F910F917F
:1005A000089580E090E0089508952CE3829FC001B3
:1005B0001124FC0126E0729FE00DF11D1124E60FCD
:1005C000F11DEE0FFF1FE450FF4F859194910895A8
:1005D000880F991FFC01EC59FD4F85919491089566
:1005E000CF93DF930E94D5020E940804EC0181158D
:1005F000904508F041C0C11580E4D80708F0D1C08B
:10060000C83ED10510F5C03ED10508F0FDC0C83A7E
:10061000D10578F4C53AD10508F0A2C0C130D105A2
:1006200009F4F2C008F4EEC0C430D10508F0ECC003
:10063000E9C0CF3BD10508F49BC0C03CD10508F40C
:10064000E1C0CE01805C91099EC0C11590E2D9073E
:1006500058F4C11521E0D20708F0D6C0C03FD1053B
:1006600008F4D0C0D065D0C0C11580E3D80708F029
:100670008EC0CE019F7087C0C11595E5D90708F0DF
:1006800043C0C11524E5D20708F0A2C0C11582E518
:10069000D80708F5C11591E5D90708F085C0CE0146
:1006A00074E0969587957A95E1F783709C2F937007
:1006B00021E030E002C0220F331F9A95E2F73C6838
:1006C000382BCF70C695C69580E2C89FE0011124F3
:1006D000C22BD32B99C09E01237033278C2F869574
:1006E0008695C115D34508F064C0C1E0D0E002C0D2
:1006F000CC0FDD1F2A95E2F720E2829FC001112472
:10070000C82BD92BDC6880C0C11529E5D207A0F41D
:10071000C11588E5D80708F060C0C11596E5D9076E
:1007200008F070C08C2F0E949C048F71C82FD0E0FD
:10073000DC2FCC27D06268C0C1152AE5D20708F4A7
:1007400051C0CE0190568115904208F05BC08D2FAC
:100750008F710E949C04DD27D0628F71D82B54C00A
:10076000C55AD0E0C65BDE4FC881D0E0D0644CC033
:10077000C85AD0E0CC0FDD1FC45EDE4F0990D8818F
:10078000C02DD46441C00E94E802EC013DC0CE01FE
:100790009927D3FF03C0EC01D86C36C0EC01D06CB4
:1007A00033C0DF70D06A30C0DC2FCC27C16FD06A75
:1007B0002BC0C1E0D0E002C0CC0FDD1F2A95E2F7CC
:1007C00020E2829FC0011124C82BD92BDA681CC0FB
:1007D000DC2FCC27C46FD06A17C0DC2FCC27C06FAA
:1007E000D06A12C08C2F8F700E949C0494E0D69522
:1007F000C7959A95E1F7CF70D0E0DC2FCC27D06970
:10080000C82B02C0C0E0D0E0CE01DF91CF910895A7
:100810008238910569F1B0F48133910509F46DC016
:1008200048F48932910509F463C08A32910509F4CC
:1008300069C008958533910509F455C08933910540
:10084000B9F00895833E910569F138F4803E910531
:10085000B1F0823E910509F10895863E9105A9F116
:10086000873E9105B9F1843E910509F064C023C02B
:100870002091690220FD4FC021FD4DC00895809157
:10088000690280FD44C080916A0280FF44C080916B
:10089000690284FD42C083EE4DC08091690282FFEF
:1008A00038C0F5CF8091690282FD33C080916A0221
:1008B00080FD31C0ECCF80916A0281FF32C080910F
:1008C000690284FD2AC087EE35C08091690283FFEA
:1008D00026C0F5CF8091690283FD21C080916A0214
:1008E00081FD1FC0ECCF8091690285FD1CC01DC039
:1008F0008091690285FD19C016C08091690286FD4C
:1009000016C017C08091690286FD13C010C089E32C
:1009100011C082EE0FC080EE0DC080E00BC086EEED
:1009200009C084EE07C089E205C085E303C08AE2FE
:1009300001C081E390E008959091690292FF0DC09B
:10094000282F2871283019F4877F846006C0282F4B
:100950002471243011F48B7F886093FF0DC0282F01
:100960002871283119F4877E846106C0282F2471EC
:10097000243111F48B7E886120916A0220FF0DC022
:10098000382F3871383019F4877F816006C0382FCE
:100990003171313011F48E7F886021FF0DC0282F16
:1009A0002871283119F4877E816106C0282F2171B2
:1009B000213111F48E7E886194FD877E0895E82FA1
:1009C000F0E0E75AFD4F80810895089580EA8A9506
:1009D000F1F7089508950C94EA040C94EB040C9438
:1009E000EA040895CF93DF930E946206809100018C
:1009F00080910001811102C095E001C090E09093C8
:100A0000640285E0891B80936302A3E5B1E048E5B9
:100A100051E061E070E08D91E82FE295EF70F0E039
:100A200021A18F70EB0102C0CC0FDD1F8A95E2F788
:100A3000CE019C2F9095922391A392A1892B82A302
:100A40004A175B0741F7ADE4B1E043E551E061E0EF
:100A500070E08D91E82FE295EF70F0E021A18F70AA
:100A6000EB0102C0CC0FDD1F8A95E2F7CE019C2F6F
:100A70009095922391A392A1892B82A34A175B0799
:100A800041F7EFE4F2E0A9E5B2E089E592E01192E6
:100A90001D928E179F07D9F785E00E940C060E94D1
:100AA0006A02DF91CF910C946C060E944506882360
:100AB00009F18091630290E0875A9D4F0E947F0662
:100AC000811114C0809198018F5F809398018630C6
:100AD00078F0E0916302F0E0E75AFD4F80E090E0AB
:100AE0001192019685309105D9F702C010929801B4
:100AF0000C9472028091640290E0875A9D4F0E948C
:100B00009A060C94F1046F927F928F929F92AF920B
:100B1000BF92CF92DF92EF92FF920F931F93CF93EA
:100B2000DF9383E5882E81E0982E0FE412E094E5B0
:100B3000A92E92E0B92E712CCC24C394D12CF401AF
:100B400081914F01C82FC295CF70D0E099A18F70CD
:100B5000760101C0EE0C8A95EAF7892F8E2989A3C8
:100B60008AA16E2C609486218AA30E94E604EDE49B
:100B7000F1E040E050E020E03191A32FA295AF706A
:100B8000B0E090968C9190E03F7002C0959587956B
:100B90003A95E2F780FD07C08C2D042E01C0880F26
:100BA0000A94EAF701C080E0282B4F5F5F4F463080
:100BB000510511F789A1682269A28AA1E82AEAA24F
:100BC000F8018081281719F0208381E001C080E0BE
:100BD000782A0F5F1F4FA016B10609F0B0CF6091C1
:100BE000640270E0675A7D4F272D45E08FE492E064
:100BF0000E940D060E945505872DDF91CF911F9110
:100C00000F91FF90EF90DF90CF90BF90AF909F90AB
:100C10008F907F906F9008950895FF920F931F9388
:100C2000CF93DF938C01F62ED72FC42F222349F0C8
:100C300081E080939B010E943D1790939A018093DD
:100C4000990180919B018823C1F080919901909135
:100C50009A010E944917069780F0EF2DFD2FD801C9
:100C60004C2F50E0CD01801B910B841795071CF48D
:100C70008D918193F7CF10929B01DF91CF911F91BE
:100C80000F91FF9008950C94581680919C0181114A
:100C900012C08091D80080618093D8008AE18A9543
:100CA000F1F700C08091D90080FD02C082E001C050
:100CB00081E080939C0181E090919C01913009F04A
:100CC00080E008950E944306809300010E9445063B
:100CD00081110C94730608950E944506811102C08B
:100CE0000C947906089561E070E081E091E00C9445
:100CF000150961E070E081E091E00C941C09CF934C
:100D0000DF93D82FC92F0E94B409892B79F4ED2FD6
:100D1000FC2F80E090E0DC01A256BE4F2C91219385
:100D2000019685309105B9F781E001C080E0DF913F
:100D3000CF91089520E030E0FC014191CF01F9010D
:100D4000E256FE4F40832F5F3F4F25303105A1F71C
:100D500008950F931F93CF93DF93C62FD42F122F95
:100D6000FC0182818823C9F06093A5010E943D1790
:100D70009093A4018093A30180E28C0F883008F047
:100D800057C0C77081E001C0880FCA95EAF7DF91AC
:100D9000CF911F910F910C946D0C8091A501681358
:100DA00030C08091A3019091A4010E944917883C12
:100DB000910538F500E20D0FCD17B9F080E28C0FE8
:100DC000883040F4C77081E001C0880FCA95EAF707
:100DD0000E94740C083028F581E09D2F977001C0A7
:100DE000880F9A95EAF70E946D0C812F0E945A0C89
:100DF0000830F0F4D77081E001C0880FDA95EAF787
:100E00000AC080E28C0F883098F4C77081E001C07E
:100E1000880FCA95EAF7DF91CF911F910F910C943B
:100E2000740C812FDF91CF911F910F910C945A0C6C
:100E3000DF91CF911F910F9108959C01CB01233F2A
:100E40004CE53407F9F078F4283DFCE53F07B9F0AC
:100E5000293D4CE5340711F1273D3C4531F526E2AB
:100E600041EE61EE1EC0253FFCE53F0799F070F0B2
:100E7000263F3C45D1F427E245EE66EE12C027E25C
:100E800045EE0EC026E241EE60EE0BC027E245EED5
:100E900064EE07C026E241EE62EE03C028E241E0C4
:100EA00065EE0E94A90680E00895FC0182818823F6
:100EB00019F01092A501089581E00895CF93DF9372
:100EC000EC01FB018281882309F41FC1C230FCE5DB
:100ED000DF0708F41BC1C6319CE5D90738F09E0135
:100EE0002A5F3C452930310508F010C10E94C91520
:100EF00090936A0280936902C031ECE5DE0709F441
:100F0000C3C008F041C0C8308CE5D80709F49AC0C6
:100F1000F0F4C430ECE5DE0709F487C068F4C230B1
:100F20008CE5D80709F477C0C330DC4509F0E3C08D
:100F300080916902826076C0C630ECE5DE0709F474
:100F40006EC008F07BC08091690288606BC0CC30B5
:100F50008CE5D80709F485C068F4CA30ECE5DE07F3
:100F600009F474C008F079C00E94FD0E80916902F6
:100F7000806858C0CE308CE5D80709F476C008F0F8
:100F80007FC0809169028BC0CB3FECE5DE0709F49E
:100F90004FC018F5C3318CE5D80709F47DC078F44B
:100FA000C131ECE5DE0709F473C0C231DC4509F05C
:100FB000A2C00E94FD0E809169028F7733C0C531B7
:100FC0008CE5D80709F472C008F486C0CA3FDC4536
:100FD00009F091C080916A023EC0CF3FFCE5DF0777
:100FE00009F45FC058F4CD3F9CE5D90709F444C02B
:100FF00008F43FC080916A0282602DC0C130FDE5D7
:10100000DF0709F475C008F45DC0C230DD4509F0A2
:1010100072C080E06EC080916902816003C08091DF
:10102000690280618093690266C08091690211C083
:1010300080916A02826080936A025DC08091690239
:101040008062F0CF809169028064ECCF8091690268
:1010500088608460E7CF8160EECF809169028E7FE7
:10106000E1CF809169028D7FDDCF80916902877F1A
:10107000D9CF80916A0218C080916A028D7FDBCF40
:10108000809169028F7ECECF809169028F7DCACF19
:10109000809169028F7BC6CF80916902877F8B7FA9
:1010A000C1CF80916A028D7F8E7FC5CF809169020A
:1010B00082FB222720F991E0922790FB82F990FB96
:1010C00083F9B0CF80916A02982F909591708E7FAE
:1010D000892B90FB81F9AFCF0E94FD0E80916902B0
:1010E00087FB222720F991E0922790FB87F99ACF7E
:1010F00081E00E9462168091690290916A020E94CA
:10110000DA150E94FD0E80E001C081E0DF91CF91F1
:101110000895CF93DF9386319C4541F5EB010E9402
:101120000515982F8A812091090130910A018823A1
:1011300079F09A7A81E009F480E08093A601911118
:1011400002C069E201C065E3C9010E94A9160AC094
:101150008091A601811102C069E201C065E3C90165
:101160000E94AB160E94531580E001C081E0DF9120
:10117000CF9108958EE1489B02C08150E1F7489BD2
:10118000FECF0895589880E28A95F1F7589A08950D
:10119000FC012AE02A95F1F728E090E080E031E0B8
:1011A00040E14A95F1F7880F489B02C08160932780
:1011B00000C0000040E14A95F1F7215089F720E195
:1011C0002A95F1F729B100C0000030E13A95F1F716
:1011D000217092272081920F90830895EF92FF92C1
:1011E0000F931F93CF93DF931F92CDB7DEB7198272
:1011F0008C017C01E60EF11C0E151F0551F00E94BA
:10120000BA08CE0101960E94C808F80181938F01A7
:10121000F3CF81E09981911180E00F90DF91CF9120
:101220001F910F91FF90EF9008959093A8018093E4
:10123000A701509A589A08959093A8018093A70106
:101240005098589AE89AE9E6F0E080818C7F808394
:101250000895615091E001C0990F6A95EAF720E086
:1012600031E0992361F0492F482319F0589A232738
:1012700001C0589840E24A95F1F79695F2CF2223A3
:1012800011F0589A01C0589880E28A95F1F7589861
:101290000895FF920F931F93CF93DF93EC018C017E
:1012A000060F111DC017D10741F0F9900E94C20826
:1012B00068E08F2D0E942909F5CFDF91CF911F9112
:1012C0000F91FF9008951F920F920FB60F92112465
:1012D0002F933F934F935F936F937F938F939F933E
:1012E000AF93BF93CF93DF93EF93FF935898509AA8
:1012F000C091A701D091A8016D81662321F08E8154
:101300009F810E9449090E94C20880E18A95F1F7F5
:1013100058985098589A80E18A95F1F76A81662327
:1013200051F08B819C810E94EE08E881F981811146
:1013300004C082E003C0E881F98188E080830E94D4
:10134000BA08FF91EF91DF91CF91BF91AF919F913B
:101350008F917F916F915F914F913F912F910F905E
:101360000FBE0F901F901895CF93DF93C091A701E8
:10137000D091A801F894509A589885E08A95F1F791
:1013800000005098589A80E28A95F1F7489B0AC06D
:10139000509A589AE881F98181E08083789481E0BD
:1013A00090E02CC06D81662381F08E819F810E9428
:1013B000EE0881110AC0509A589AE881F98182E0BA
:1013C0008083789482E090E019C00E94BA0880E29D
:1013D0008A95F1F75898509A80E18A95F1F76A81D9
:1013E000662321F08B819C810E9449090E94C208DA
:1013F000E881F9811082789480E090E0DF91CF91CC
:1014000008959093AE018093AD010895E091AD01F0
:10141000F091AE01309721F00190F081E02D099418
:1014200080E00895E091AD01F091AE01309721F098
:101430000280F381E02D09940895E091AD01F091CF
:10144000AE01309739F022E0DC012C930480F58165
:10145000E02D099408952091AB013091AC0128173B
:10146000390771F09093AC018093AB01E091AD012D
:10147000F091AE01309721F00680F781E02D0994BC
:1014800008952091A9013091AA012817390771F018
:101490009093AA018093A901E091AD01F091AE0172
:1014A000309721F00084F185E02D0994089585B7E7
:1014B000806885BF85B7806885BF089508950C94BE
:1014C0005E0A0C945F0A0C945E0A0C945E0A0E94F9
:1014D000570A0E94630A0C94610A0C9445060E9404
:1014E00034170E94F2040E948F170C94650AAF9281
:1014F000BF92CF92DF92EF92FF920F931F93CF9301
:10150000DF93CDB7DEB72A970FB6F894DEBF0FBED4
:10151000CDBF0E9483050E946D0A811111C08FEF1B
:1015200089838A831B820E943D178160782F9D8367
:101530008C8349815A816B818D810E940F0B40C041
:1015400080EBA82E81E0B82E00E010E0C02E802FA6
:101550000E94DF04E82EF501D1905F01D82631F416
:101560000F5F1F4F0A30110589F7D9CF80913002E4
:1015700081FD0E94E50480E0FF24F3949D2D9F21CE
:10158000D1F08E83CF82EF2081E009F480E088875C
:101590000E943D178160782F9A8789874E815F81ED
:1015A00068858A850E940F0BF801E055FE4F808107
:1015B000F826F08205C08F5FFF0C8630F9F6D0CF99
:1015C0000E9421190E94060A9091AF018917B1F07B
:1015D0000E94060A8093AF012A960FB6F894DEBFE8
:1015E0000FBECDBFDF91CF911F910F91FF90EF9074
:1015F000DF90CF90BF90AF900C947B022A960FB6ED
:10160000F894DEBF0FBECDBFDF91CF911F910F9138
:10161000FF90EF90DF90CF90BF90AF900895CF9361
:10162000DF93CDB7DEB72B970FB6F894DEBF0FBEB2
:10163000CDBF4F83588769877A878B87DE011196E4
:1016400086E0FD0111928A95E9F785E0FE01379663
:1016500001900D928A95E1F749815A816B817C81D5
:101660008D819E810E94F0112B960FB6F894DEBFFB
:101670000FBECDBFDF91CF910895FC018081918194
:101680000E94C6140895CF93882309F4A9C0C82FD7
:101690008238C1F40E94060A81FDA2C069E38091EC
:1016A000090190910A010E94A9160E9453152FEF7B
:1016B00081EE94E0215080409040E1F700C00000AE
:1016C00069E319C0833801F50E94060A80FD88C0CD
:1016D00063E58091090190910A010E94A9160E9478
:1016E00053152FEF81EE94E0215080409040E1F7B8
:1016F00000C0000063E58091090190910A010E94F9
:10170000AB16CF910C9453158438C1F40E94060A8D
:1017100082FD66C067E48091090190910A010E94F0
:10172000A9160E9453152FEF81EE94E021508040BE
:101730009040E1F700C0000067E4DDCF8CEF8C0F34
:10174000813AF8F48C2F0E94C91B811149C06C2F7B
:101750008091090190910A010E947316882349F033
:101760006C2F8091090190910A010E94AB160E9492
:1017700053156C2F8091090190910A010E94A916BE
:10178000C0CF80E28C0F883048F4C77081E001C080
:10179000880FCA95EAF70E940815B3CFEBE5EC0F66
:1017A000E33040F4F0E0E557FE4F808190E0CF91C8
:1017B0000C942B0AE8E5EC0FE73150F4F0E0EE0F63
:1017C000FF1FE35AFE4F80819181CF910C94410A13
:1017D000C03F30F08C2F0E942918CF910C9416191D
:1017E000CF910895882309F464C0823879F40E9467
:1017F000060A81FF5EC069E38091090190910A01A8
:101800000E94A9160E94531569E310C08338B1F4F1
:101810000E94060A80FF4DC063E580910901909106
:101820000A010E94A9160E94531563E580910901DF
:1018300090910A010E94AB160C945315843879F4E8
:101840000E94060A82FF35C067E4809109019091E9
:101850000A010E94A9160E94531567E4E7CF9CEF86
:10186000980F913A10F4682FE1CF90E2980F9830DA
:1018700050F4877091E001C0990F8A95EAF7892F9B
:101880000E940E15D9CF9BE5980F933020F480E08D
:1018900090E00C942B0A98E5980F973120F480E0A3
:1018A00090E00C94410A803F20F00E9491180C9423
:1018B00016190895CF93C82F0E94430BC93349F4DA
:1018C0002FEF87EE93E0215080409040E1F700C079
:1018D00000008C2FCF910C94F20B882321F00E94F2
:1018E00008150C9453150895882321F00E940E15B5
:1018F0000C9453150895CF92DF92EF92FF920F93BD
:101900001F93CF93DF937C01062FC72FFC01158116
:1019100012951F70D281D1110E9425150E94FE14CC
:10192000882399F0DD2389F08C2F807F803421F08B
:1019300080E2800F883048F082E00E949D150E946E
:10194000FE1491E0D82ED92601C0D12CCC2EC29401
:101950008FE0C8228C2D90E0FC01EA5AFF4F0C94D6
:1019600055238C2F807FCF70882311F0C295C07FC4
:10197000DD2399F0CC2309F48DC180E2800F8830FB
:1019800010F0011104C08C2F0E94081503C08C2F89
:101990000E9418150E9453157DC1802F0E94F20BE2
:1019A000CC2309F49CC180E2800F883010F0011133
:1019B00004C08C2F0E940E1503C08C2F0E941E1590
:1019C0000E9453158CC18C2F807FCF70803211F014
:1019D000C295C07F002319F00130C9F022C0DD2379
:1019E00071F0112341F0113031F40E9438158C2B25
:1019F0000E94401574C10E9438158C2B1DC0112304
:101A000019F0113009F46BC10E94491525C0DD237E
:101A100021F0163008F063C10EC0153008F05FC128
:101A20001BC0DD2361F0112331F0F701858180FFB8
:101A300031C18F7085838C2F0E946D0C50C1112392
:101A400059F0093309F037C1FFEF27EE83E0F15079
:101A500020408040E1F72DC18C2F0E94740C3FC1C3
:101A60008C2F86958695837019F0813061F037C18F
:101A7000DD2321F0802F9C2F937002C080E090E046
:101A80000E942B0A34C1DD2321F0802F9C2F9370FC
:101A900002C080E090E00E94410A29C1802FDD232E
:101AA00019F00E94291802C00E9491180E9416196C
:101AB0001EC18C2F837009F045C0D11114C1402F75
:101AC000429546954770440F440F602F6F70862FE4
:101AD00090E0A0E0B0E0042E04C0880F991FAA1F78
:101AE000BB1F0A94D2F704FF10C00FE010E020E003
:101AF00030E004C0000F111F221F331F4A95D2F798
:101B0000009510952095309503C000E010E09801F5
:101B1000C695C695C370BC01CD01602B712B822B7D
:101B2000932BC23049F058F4C13019F00E94411390
:101B3000DAC00E942F13D7C00E945313D4C00E9452
:101B40002D13D1C0DD2319F08C2F817001C0869533
:101B5000882309F4C8C0402F429546954770440F2A
:101B6000440F602F6F70862F90E0A0E0B0E0042E4D
:101B700004C0880F991FAA1FBB1F0A94D2F704FF45
:101B800010C00FE010E020E030E004C0000F111F93
:101B9000221F331F4A95D2F7009510952095309556
:101BA00003C000E010E09801C695C695C370BC0163
:101BB000CD01602B712B822B932BC23049F058F44E
:101BC000C13019F00E9406148EC00E94F4138BC01D
:101BD0000E94181488C00E94671385C0CF70DD234F
:101BE00039F08C2F0E948D13802F0E946D0C7BC0CA
:101BF000802F0E94740C8C2F0E94AE1374C0023F81
:101C000001F128F4003F41F0013FA1F03FC0033F44
:101C1000F9F0043F39F13AC0DD2341F0153008F006
:101C20005EC08C2F8F710E94D31359C0163008F0FC
:101C300056C0F7CFDD2339F08C2F8F710E948D13A2
:101C40004EC0DD23C9F38C2F8F710E94AE1347C0A5
:101C5000DD2329F08C2F8F710E94781340C00E94E1
:101C600073133DC0DD2349F0CF718C2F0E948D137B
:101C700063E08C2F0E94881532C081E00E949D1580
:101C8000123068F182E00E949D1529C0DD2331F0F9
:101C9000112391F2802F0E94430B21C0112399F24E
:101CA000093349F49FEFE7EEF3E09150E040F04054
:101CB000E1F700C00000802F0E94F20B10C04C2FF3
:101CC0004F70602FC7010E94D1020E949E120FC068
:101CD0004C2F4F70602FC7010E94D40208C088EFBC
:101CE0008C0D843020F40E94060A0E947B02DD20C5
:101CF000C9F00E94FA1480FD15C0F70112820E94FB
:101D0000F4140E948D13C7010E94B30E0E94F414B4
:101D1000DF91CF911F910F91FF90EF90DF90CF90C7
:101D20000C94AE13DF91CF911F910F91FF90EF9024
:101D3000DF90CF9008950F931F93CF93DF93EC0123
:101D4000688179818A810E94D1148C010E942A14B1
:101D50000E941B13B801CE010E947B0CDF91CF9132
:101D60001F910F910895CF93DF93EC0198818981A2
:101D70002B813C81232B31F08F3F31F481E09F3F59
:101D800019F403C081E001C080E080FD19C0CE01DC
:101D90000E94940281110CC00E94FE14882381F0DD
:101DA0008A81882369F082E0DF91CF910C949D15A0
:101DB000CE010E949B0ECE01DF91CF910C945F0269
:101DC000DF91CF9108950E9425150E9435150E943C
:101DD00053150E94401A0E94161980E090E00E945C
:101DE0002B0A80E090E00C94410A809109019091C7
:101DF0000A010E94AD160C94E30E0E9415150C9476
:101E0000F50EE92FE295EF704E2F50E0FA01329770
:101E1000EE30F105B0F4EA59FF4F0C945523803FA2
:101E200091F018F4883E68F40EC0843F51F40BC062
:101E3000883E48F0813F29F406C093FB882780F94B
:101E4000089580E0089581E008950E94C6140E94DC
:101E5000010F0895CF93DF9300D000D01F92CDB72C
:101E6000DEB70F900F900F900F900F90DF91CF91F2
:101E70000895CF93DF9300D000D000D0CDB7DEB768
:101E800026960FB6F894DEBF0FBECDBFDF91CF917F
:101E900008951F93CF93DF93C091BB0116E080910B
:101EA000BC01C81799F0D0E01C9FF0011D9FF00DF8
:101EB0001124E354FE4F40815181628173818481FA
:101EC00095810E94390F2196C770E9CFDF91CF919C
:101ED0001F9108954091ED015091EE016091EF0145
:101EE0007091F0018091F1019091F2010C94390F01
:101EF0002091BB019091BC0156E02917A9F030E078
:101F0000529FF001539FF00D1124E354FE4F718155
:101F1000761306C07081781303C07281741306C0F3
:101F20002F5F3F4F2770E9CF80E0089581E008954B
:101F30000F931F93CF93DF938091F20182958F705F
:101F400009F05DC08091EF01882309F458C08091A9
:101F5000BB011091BC016091ED017091EE01C09147
:101F6000F001D091F10191E06F3F09F090E0292F4D
:101F700006E0811709F443C0209721F07F3F21F04C
:101F800030E003C031E001C0322F90E030FD34C0BA
:101F9000089FF001099FF00D1124DF01A354BE4FEB
:101FA00011963C911197371327C03C91361324C0EA
:101FB00012963C91129731111FC013964D915C916E
:101FC00014974C1B5D0B483C5105B0F48091F20115
:101FD0008F7080618093F201EE53FE4F80818F708D
:101FE000806180838DEE91E00E94B30EDF91CF91EE
:101FF0001F910F910C94490F01968770BACFDF9112
:10200000CF911F910F9108958F929F92AF92BF929F
:10201000CF92DF92EF92FF920F931F93CF93DF93B4
:10202000CDB7DEB761970FB6F894DEBF0FBECDBF58
:102030008C0185E0F801DE011D9601900D928A95D4
:10204000E1F7D801DC901196EC9011971296CC90A4
:102050009091ED012091EE014091F0015091F1013C
:102060004115510531F02F3F31F481E09F3F19F4C4
:1020700003C081E001C080E080FD81C1F801838060
:1020800094808DEEA82E81E0B82EF090EF01B4017F
:10209000641B750BFF2009F418C18091F201382FE1
:1020A000307F683C710508F0D1C031118AC0E2125E
:1020B00014C0D91212C0FC2CC1100FC08F708061E7
:1020C0008093F2010E946A0FC5010E94B30E8091B5
:1020D000F201D80115968C936FC18114910439F0E7
:1020E000BFEFEB1206C081E0DB1203C003C081E04A
:1020F00001C080E080FD03C081E08C2502C080E04B
:1021000090E080FF10C04C2D6E2D8D2D0E94780F19
:10211000882349F08DEE91E00E94B30EEDEEF1E0E0
:1021200086E0DF01A4C0892839F0BFEFEB1206C0BA
:1021300081E0DB1203C003C081E001C080E080FDCC
:1021400003C081E08C2502C080E090E0E82FE170C0
:10215000BE2E80FF2CC04C2D6E2D8D2D0E94780F31
:10216000F82E811124C0DD86EE868D859E850E9425
:10217000C614292F22952F70223018F0243090F4A5
:1021800005C09F7059F0811109C016C19F7031F0D0
:10219000D80115969C91907F09F40EC1805E88301D
:1021A00008F40AC1C8010E94B30EFB2C05C1FC2C27
:1021B000CC2009F401C18091F20181608093F20189
:1021C0005BC0E21206C0D91204C0C11002C0F801FF
:1021D000A0C0DD86EE868D859E850E94250F882312
:1021E00079F1CC2069F12091F201822F82958F70D4
:1021F00090E0029774F08091ED019091EE01988744
:102200008F8319869B868A862C87CE0107960E942B
:10221000B30E86E0F801ADEEB1E001900D928A9523
:10222000E1F70E94980F0E946A0F0DC0E21631F18B
:10223000DD86EE868D859E850E94250F81112DC03D
:10224000C8010E94B30EFF24F394B6C03111EECF43
:10225000782D998A888A4D2D5E2D6C2D89890E9452
:102260002A0F8DEE91E00E94B30E86E0D5011D92FB
:102270008A95E9F70E946A0FF12C9EC0D912D8CF37
:10228000C110D6CFF8018583C8010E94B30E86E045
:10229000D5011D928A95E9F78FC0CC2089F2209153
:1022A000F201822F82958F7090E002970CF4B1CFEB
:1022B0008091ED019091EE019A8389831B829D822A
:1022C0008C822E83CE010196A2CF683C710508F066
:1022D00047C0FC2CCC2009F4B3CFE21230C0D91295
:1022E0002EC02091F20120FD21C0822F82958F7097
:1022F000482F50E041155105C9F0F80125834F30B2
:10230000510541F08F5F982F9295907F822F8F70AB
:10231000892B8583C8010E94B30E86E0F801ADEEDB
:10232000B1E001900D928A95E1F744C086E0F80192
:10233000ADEEB1E001900D928A95E1F73DC0DD86EA
:10234000EE868D859E850E94250F811162CF80913A
:10235000F20181608093F201C8010E94B30E2CC08B
:10236000782D998A888A4D2D5E2D6C2D89890E9441
:102370002A0F86E0D5011D928A95E9F71BC0CC2073
:1023800009F45ECFDD86EE868D859E850E94250F41
:10239000F82E882309F454CF86E0F801ADEEB1E0C1
:1023A00001900D928A95E1F78DEE91E00E943D0B30
:1023B0000E94980F0E946A0F8F2D61960FB6F894B5
:1023C000DEBF0FBECDBFDF91CF911F910F91FF9068
:1023D000EF90DF90CF90BF90AF909F908F90089537
:1023E0001F93CF93DF93CDB7DEB72C970FB6F8943A
:1023F000DEBF0FBECDBF4F83588769877A878B8733
:102400009C87CE0107960E9404108823D1F09F81FB
:1024100088852A853B85232B31F08F3F31F481E07D
:102420009F3F19F403C081E001C080E080FD47C0F8
:102430004F81588569857A858B859C850E94390FE7
:102440003EC086E0FE013796DE01119601900D92A6
:102450008A95E1F7FF81E8856A857B8561157105BD
:1024600031F0EF3F31F481E0FF3F19F403C081E028
:1024700001C080E080FD23C02091BC0130E0C90193
:102480000196877099274091BB0150E0841795070A
:10249000F1F1F983EA837D836C8396E0929FD0010A
:1024A000939FB00D1124A354BE4FFE0131960190AD
:1024B0000D929A95E1F78093BC010E94490F16E0B6
:1024C0008091BB019091BC01891771F1189FC001E7
:1024D000112483549E4F0E940410882329F1E09117
:1024E000BB011E9FF0011124E354FE4F4081518136
:1024F00062817381848195810E94390F8091BB0133
:1025000090E00196877099278093BB01D9CF0E94F4
:10251000FD0E1092BC011092BB01EDEEF1E086E0E1
:10252000DF011D928A95E9F72C960FB6F894DEBF6D
:102530000FBECDBFDF91CF911F910895EF92FF9213
:102540000F931F93CF93DF938C01892B09F46CC0F9
:10255000F12CEE24E394E8012196F801849184376C
:1025600040F4843008F051C0813081F0823019F19C
:102570005BC0853709F444C0A8F19CE7980F9037F9
:1025800008F052C08F770E94F20B41C00E5F1F4FC0
:10259000FE01849190E2980F983050F48770FE2DE0
:1025A00001C0FF0F8A95EAF78F2F0E94281514C0EB
:1025B0000E94430B2DC00E5F1F4FFE01849190E2DD
:1025C000980F983060F48770FE2D01C0FF0F8A9538
:1025D000EAF78F2F0E942E150E94531519C00E94F2
:1025E000F20B16C00E5F1F4FFE01C491CC2381F089
:1025F0008FE99FE00197F1F700C00000C150F6CFCE
:102600000E5F1F4FFE01F49003C00E94430B8E012A
:102610008F2D882309F49FCFEFE9FFE03197F1F781
:1026200000C000008150F5CFDF91CF911F910F9135
:10263000FF90EF900895089508950C941C130C9446
:102640001D130E941F1360931F027093200280933A
:102650002102909322020C94E30E0C9421130F9309
:102660001F9300911F0210912002209121023091AE
:102670002202602B712B822B932B1F910F910C94B4
:1026800021130F931F9300911F021091200220919C
:1026900021023091220260237123822393231F9110
:1026A0000F910C9421130F931F9300911F0210910F
:1026B0002002209121023091220260277127822777
:1026C00093271F910F910C9421130C941C130E94BB
:1026D000651360931B0270931C0280931D029093FC
:1026E0001E020C94E30E60E070E0CB010C946713C3
:1026F0000F931F9341E050E060E070E08A019B017E
:1027000004C0000F111F221F331F8A95D2F7C90181
:10271000B8011F910F910C9467130F931F9341E021
:1027200050E060E070E004C0440F551F661F771F43
:102730008A95D2F780911B0290911C02A0911D02F4
:10274000B0911E028A019B01082B192B2A2B3B2BCF
:10275000C901B8011F910F910C9467130F931F9338
:1027600041E050E060E070E004C0440F551F661F78
:10277000771F8A95D2F74095509560957095809116
:102780001B0290911C02A0911D02B0911E028A01B1
:102790009B01082319232A233B23C901B8011F9158
:1027A0000F910C9467130F931F9341E050E060E08A
:1027B00070E004C0440F551F661F771F8A95D2F73B
:1027C00080911B0290911C02A0911D02B0911E02EB
:1027D0008A019B01082719272A273B27C901B8012D
:1027E0001F910F910C9467130F931F9300911B027D
:1027F00010911C0220911D0230911E02602B712B42
:10280000822B932B1F910F910C9467130F931F939F
:1028100000911B0210911C0220911D0230911E029A
:1028200060237123822393231F910F910C946713CC
:102830000F931F9300911B0210911C0220911D0207
:1028400030911E0260277127822793271F910F91D5
:102850000C9467130895292F220F920F990F890F57
:10286000E82FE695E695E695877051E001C0550F93
:102870008A95EAF785E0E89FF0011124ED50FE4FBC
:1028800020E030E070E04081CB01022E02C096953E
:1028900087950A94E2F781708195842785238427A0
:1028A00081932F5F3F4F2530310569F70895292F18
:1028B000220F920F990F890F682F6695669566957E
:1028C000982F977085E0689FB001112440E050E098
:1028D00080E0FB01E40FF51FED50FE4F208130E05A
:1028E000092E02C0369527950A94E2F72170332706
:1028F000042E01C0220F0A94EAF7822B4F5F5F4F2C
:102900004530510531F70895BF92CF92DF92EF9293
:10291000FF920F931F93CF93DF938C01C0901B0204
:10292000D0901C02E0901D02F0901E0280911F02C8
:1029300090912002A0912102B0912202C82AD92AA6
:10294000EA2AFB2ACFE1D0E0D701C6010C2E04C051
:10295000B695A795979587950A94D2F780FD04C000
:10296000219790F7B12C07C0BC2EB8018C2F0E9484
:10297000F0020197A9F38B2DDF91CF911F910F9159
:10298000FF90EF90DF90CF90BF900895CF93DF93AB
:10299000EC010E948414BE010E94F002DF91CF91ED
:1029A00008951F93CF93DF93EB019091BA01992380
:1029B00021F0CB010E94C61413C0882349F0CB013B
:1029C0000E948414182F682FCE010E942B1404C07B
:1029D000CB010E945714182FBE01812F0E94F002D4
:1029E000DF91CF911F910895809123028595859560
:1029F0008595089580912302877008959091230210
:102A0000977081E009F480E0089580912F02089585
:102A100090912F02892B80932F0208958095909199
:102A20002F02892380932F02089510922F02089578
:102A300090912E02892B80932E020895809590917B
:102A40002E02892380932E02089510922E0208955B
:102A500090912D02892B80932D020895809590915D
:102A60002D02892380932D02089510922D0208953E
:102A700080912402089508950C943B150C943C1504
:102A800090912402981721F0809324020C943E1513
:102A9000089580912402882329F01092240280E076
:102AA0000C943E150895E0910901F0910A0180917E
:102AB0002F028083E0910901F0910A0190818091B9
:102AC0002E02892B8083E0910901F0910A01908107
:102AD00080912D02892B808380912402882381F0AC
:102AE000E0910901F0910A019081892B8083809106
:102AF000090190910A010E94671681110E944915EF
:102B00008091090190910A010C94120A0C943B15D2
:102B100098E0899F90011124262B209323020E9484
:102B20008D13809123028595859585950C94861546
:102B30001092230280E00C94861520912302809548
:102B4000822380932302982F977079F430E0482FE6
:102B5000082E000C550B2417350739F085958595FF
:102B600085950E94AE130C949815089580E090E02E
:102B70000E94772321E08C3E9E4F09F020E0822FB7
:102B8000089582E090E00C946F2383E090E00C9431
:102B90006F23CF9384E090E00E946F23C82F81E2DF
:102BA00090E00E946F232C2F30E0A901582BCA011E
:102BB000CF910895CF93C92F682F84E090E00E94B1
:102BC0007D236C2F81E290E0CF910C947D23AB01AB
:102BD000BC018FE090E00C948F23AB01BC0183E13A
:102BE00090E00C948F2360E070E0CB010C94ED1525
:102BF00060E070E0CB010E94E7150C94F3156CEED9
:102C00007EEF80E090E00E949B2360E082E090E015
:102C10000E947D2360E083E090E00E947D2310927B
:102C20001F0210922002109221021092220260E0F4
:102C300084E090E00E947D2360E081E290E00E94C9
:102C40007D2360E085E090E00E947D2360E086E0E7
:102C500090E00E947D236FEF87E090E00E947D234B
:102C600040E050E0BA0188E090E00E948F2360E0ED
:102C70008DE090E00E947D2340E050E0BA0188E1C1
:102C800090E00E948F2360E087E190E00E947D2326
:102C900040E050E0BA018CE190E00E948F2360E0B8
:102CA00080E290E00E947D230C94F8150C94FF15AF
:102CB0008EE090E00E946F2391E0811101C090E0CE
:102CC000892F0895682F8EE090E00C947D23FC01FD
:102CD000329697E080E0915029F021912223D9F398
:102CE0008F5FF9CF0895662349F0FC01329608966C
:102CF0002191621729F0E817F907D1F780E00895CC
:102D000081E008959C01FC0132969FEF80E04191A3
:102D1000461789F09F3F19F4411101C0982F8F5F2A
:102D20008630A9F79F3F39F0F901E90FF11D97FDB2
:102D3000FA956283089508959C012A5F3F4FFC0134
:102D40004281461301C01282019682179307B9F798
:102D500008950C9482160C949C16029626E0FC01B1
:102D600011922A95E9F7089508950C94B4160C94DD
:102D7000B416CF930E94B7160E9483050E94B51621
:102D8000C0E08C2F0E94DF04811104C0CF5FCA30E5
:102D9000C1F701C081E0CF9108950C94B4160C9452
:102DA000CD160E94CF1680916F02843049F11092A7
:102DB000310220E488E190E00FB6F894A895809362
:102DC00060000FBE2093600080E00E947B020E94A2
:102DD000CF1683B7817F846083BF83B7816083BF51
:102DE0007894889583B78E7F83BF0FB6F894A895A3
:102DF00080916000886180936000109260000FBE37
:102E000008950C94B4160E94FD0E0E94060A0E94BA
:102E10007B020C9401171F920F920FB60F92112490
:102E20008F939F93AF93BF9380913102811113C011
:102E30008091650290916602A0916702B09168024C
:102E40004196A11DB11D8093650290936602A093E7
:102E50006702B0936802BF91AF919F918F910F90DD
:102E60000FBE0F901F90189582E084BD93E095BD32
:102E70009AEF97BD80936E0008952FB7F8948091D4
:102E8000650290916602A0916702B09168022FBF1F
:102E900008959C014FB7F894809165029091660265
:102EA000A0916702B09168024FBF821B930B0895F7
:102EB00078941F920F920FB60F9211248F939F93C5
:102EC000AF93BF938091650290916602A0916702D3
:102ED000B09168020196A11DB11D80936502909387
:102EE0006602A0936702B0936802BF91AF919F9171
:102EF0008F910F900FBE0F901F90189587E797E75F
:102F000090930108809300089AE088E10FB6F89446
:102F1000A895809360000FBE90936000FFCF0E9441
:102F2000B615811102C00E9456160E94C1158093E9
:102F300030020E94C91590936A02809369020E9430
:102F4000C515682F70E080E090E00C942D138091FF
:102F50003B0280FF0BC060910F0185E0689FB001CC
:102F6000112475956795759567952BC081FF09C0EC
:102F700060910F0185E0689FB001112475956795F8
:102F800020C082FF07C060910F0185E0689FB001FB
:102F9000112417C090913A029923D1F060910E014B
:102FA000961788F720910F0185E0289F9001112442
:102FB000929FA001939F500D112470E0CA010E94BE
:102FC00041236038710540F46115710519F406C09C
:102FD00065E070E0862F08958FE7089581E00895F9
:102FE00080913B0280FF08C060910C0170E07595F4
:102FF00067957595679521C081FF06C060910C01AA
:1030000070E07595679519C082FF04C060910C014E
:1030100070E010C090913A02992399F060910B01F1
:103020009617A0F780910C01899FC001112470E0D0
:103030000E9441236038710540F46115710519F44F
:1030400006C061E070E0862F08958FE7089581E063
:103050000895803F21F40E94A717819504C0813F05
:1030600029F40E94A71780933F020895823F21F41C
:103070000E94A717819504C0833F29F40E94A717D7
:1030800080933E020895893F19F40E94F01705C00D
:103090008A3F31F40E94F017819580934002089591
:1030A0008B3F21F40E94F017819504C08C3F29F4D6
:1030B0000E94F017809341020895843F21F480918B
:1030C0003D02816017C0853F21F480913D028260FE
:1030D00011C0863F21F480913D0284600BC0873F80
:1030E00021F480913D02886005C0883F31F48091D1
:1030F0003D02806180933D0208958D3F21F48091CF
:103100003B0281600BC08E3F21F480913B028260C4
:1031100005C08F3F29F480913B02846080933B027D
:103120000895803F39F480913F0287FF6CC0109270
:103130003F0269C0813F29F480913F021816BCF319
:1031400062C090913E02823F29F497FF5CC01092CA
:103150003E0259C0833F19F41916CCF354C0893F7D
:1031600041F48091400218160CF04DC010924002BC
:103170004AC08A3F29F48091400287FF44C0F6CFBD
:103180008B3F39F48091410287FF3DC0109241028C
:103190003AC08C3F29F4809141021816BCF333C029
:1031A000843F21F480913D028E7F17C0853F21F43A
:1031B00080913D028D7F11C0863F21F480913D02B8
:1031C0008B7F0BC0873F21F480913D02877F05C034
:1031D000883F31F480913D028F7E80933D0213C081
:1031E0008D3F21F480913B028E7F0BC08E3F21F4F6
:1031F00080913B028D7F05C08F3F29F480913B0277
:103200008B7F80933B0280913E0281110EC08091A2
:103210003F0281110AC080914002811106C0809155
:103220004102811102C010923A0208958CE392E0AB
:103230000E941D0A0E943D17909339028093380224
:103240000895CF93DF9300D000D000D0CDB7DEB784
:1032500086E0ECE3F2E0DE01119601900D928A9592
:10326000E1F780913E02811105C080913F028823E1
:1032700009F47AC080913602909137020E94491772
:10328000AC0190913A02992339F02091100130E07D
:103290002417350758F068C0209133028AE0289F30
:1032A000900111242417350718F05EC09F3F19F0D4
:1032B0009F5F90933A0210924002109241028091D7
:1032C0003E02181624F40E94A71780933E028091B4
:1032D0003E0287FF05C00E94A717819580933E029A
:1032E00080913F02181624F40E94A71780933F0292
:1032F00080913F0287FF05C00E94A71781958093A8
:103300003F0230913E023323E1F020913F0222231D
:10331000C1F045EB3403C0011124992319F09093B7
:103320003E0203C081E080933E0235EB2303C001DF
:103330001124992319F090933F0203C081E08093F8
:103340003F020E94161980913802909139029093A1
:1033500037028093360286E0FE013196ACE3B2E09C
:1033600001900D928A95E1F780914002811105C08C
:1033700080914102882309F47AC0809134029091AF
:1033800035020E944917AC0190913A02992339F015
:1033900020910D0130E02417350758F068C02091C6
:1033A00032028AE0289F900111242417350718F073
:1033B0005EC09F3F19F09F5F90933A0210923E02C9
:1033C00010923F0280914002181624F40E94F017D8
:1033D000809340028091400287FF05C00E94F01751
:1033E00081958093400280914102181624F40E9436
:1033F000F017809341028091410287FF05C00E942F
:10340000F017819580934102309140023323E1F01F
:10341000209141022223C1F045EB3403C001112465
:10342000992319F09093400203C081E080934002F9
:1034300035EB2303C0011124992319F09093410225
:1034400003C081E0809341020E94161980913802E6
:1034500090913902909335028093340286E0FE0108
:103460003196ACE3B2E001900D928A95E1F7269691
:103470000FB6F894DEBF0FBECDBFDF91CF91089598
:10348000ECE3F2E086E0DF011D928A95E9F7109205
:103490003A0210923B020895833081F128F4813082
:1034A00059F08230D1F00895853009F449C0B8F15F
:1034B000863009F456C0089580913302262F30E0FB
:1034C000280F311D2F3F310524F4680F609333021C
:1034D00008958FEF80933302089580911001262F75
:1034E00030E0280F311D2F3F310524F4680F609321
:1034F000100108958FEF80931001089580910F01BE
:10350000262F30E0280F311D2F3F310524F4680F9E
:1035100060930F0108958FEF80930F0108958091BC
:103520000E01262F30E0280F311D2F3F310524F4E6
:10353000680F60930E0108958FEF80930E01089538
:1035400080910C01262F30E0280F311D2F3F3105CF
:1035500024F4680F60930C0108958FEF80930C01A1
:10356000089580910B01262F30E0280F311D2F3F49
:10357000310524F4680F60930B0108958FEF809359
:103580000B010895833011F128F4813049F0823025
:1035900091F00895853081F120F18630C1F10895D0
:1035A00080913302681720F4861B809333020895BC
:1035B00010923302089580911001681720F4861B41
:1035C00080931001089510921001089580910F01C9
:1035D000681720F4861B80930F01089510920F0145
:1035E000089580910E01681720F4861B80930E01C8
:1035F000089510920E01089580910C01681720F42F
:10360000861B80930C01089510920C0108958091FF
:103610000B01681720F4861B80930B01089510920C
:103620000B0108950F931F9341E050E060E070E0BC
:103630008A019B0104C0000F111F221F331F8A95AE
:10364000D2F7C901B8010E942D131F910F910C945C
:10365000FD0E8B3109F468C058F58B3009F486C033
:1036600078F4863009F445C020F4853009F44BC065
:103670007FC0873009F44AC0883009F477C078C029
:10368000803109F464C068F48E3009F071C0809113
:10369000300282FB222720F991E0922790FB82F9E9
:1036A0004CC0863109F462C0893109F45FC060C042
:1036B0008A32E1F060F4873209F455C028F48E3183
:1036C00008F456C08D5150C08932E9F051C083349E
:1036D00050F48A3308F045C0853309F444C0883378
:1036E00009F444C045C08334F1F142C00E9456162B
:1036F0003DC080913002817F8E7F8093300281E0D7
:103700008093430208950E94850230C08091300268
:10371000982F9095917090FB80F9809330029111D1
:1037200025C0897F877F10C08091300281FB2227CE
:1037300020F991E0922790FB81F980933002992340
:10374000A9F0809130028160809330020FC0809197
:10375000300283FB222720F991E0922790FB83F926
:10376000ECCF895301C080E00E94121B81E00895D4
:1037700080E0089580E008950C94BA1B8E518A3041
:1037800030F4E82FF0E0E257FE4F8081089580E0AA
:103790000895CF93C82F80914302813051F018F0E3
:1037A000823099F17BC00E940515823209F078C001
:1037B00004C00E940515823261F48C2F0E94BC1B4C
:1037C000811104C08C2F0E94291B1DC081E090E054
:1037D0001AC08C2F0E94BA1B811114C0C43179F019
:1037E00048F4CB3079F0C03109F05EC082E08093BC
:1037F000430208C0C93219F0C83321F055C01092F5
:10380000430252C081E0817051C0C93279F108F59C
:10381000C43161F1A0F4C73009F044C01092330202
:1038200084E180931001C0930F018CE380930E011B
:1038300088E080930C0188E280930B0133C082EE14
:103840008C0F863078F58C2F0E94BE1B809342022D
:1038500029C0CE34E9F020F4CB3421F56AE013C05E
:10386000C13579F0C235F1F461E00DC080914202BA
:10387000882319F01092420215C081E08093430220
:1038800015C061E006C0809142020E944C1A0AC035
:103890006AE0809142020E94C21A04C01092430260
:1038A00080E004C081E002C080E0ADCFCF910895F8
:1038B00080914C020895CF93DF9300D01F92CDB733
:1038C000DEB790916F02943019F589837B836A8308
:1038D00082E08093E9008FEF9091E800815095FDA0
:1038E00006C095ED9A95F1F700008111F5CF809112
:1038F000E80085FF0DC040E050E063E070E0CE01DD
:1039000001960E94A31E8091E8008E778093E800C4
:103910000F900F900F90DF91CF910895CF93DF9389
:10392000EC010E94861E823011F0843031F4BE0119
:1039300084E0DF91CF910C945B1CDF91CF910895CF
:10394000BC0183E00C945B1CCF93DF93EC010E94DD
:10395000861E823011F08430F9F482E08093E90011
:103960008FEF9091E800815095FD06C095ED9A95F6
:10397000F1F700008111F5CF8091E80085FF0CC0C0
:1039800040E050E066E070E0CE010E94A31E80910E
:10399000E8008E778093E800DF91CF910895CF9370
:1039A000DF93EC010E94861E823011F0843039F5DD
:1039B00081E08093E9008FEF9091E800815095FDC0
:1039C00006C095ED9A95F1F700008111F5CF809131
:1039D000E80085FF14C040E050E068E070E0CE01F0
:1039E0000E94A31E8091E8008E778093E80088E013
:1039F000FE01A4E4B2E001900D928A95E1F7DF9117
:103A0000CF91089580916E02811109C00E943420E7
:103A10000E9491208091E20084608093E2000895EA
:103A200010926E020895089508950C94031742E0D1
:103A300061EC81E00E94AD1F42E261EC82E00C94F7
:103A4000AD1F80917102833009F460C030F4813081
:103A500071F0823009F499C008958A3009F485C064
:103A60008B3009F46BC0893009F0A7C020C0809169
:103A70007002813A09F0A1C08091E800877F8093AD
:103A8000E8008091740290917502892B21F468E01E
:103A900084E492E003C060E080E090E070E00E9487
:103AA000EE1E8091E8008B778093E8000895809166
:103AB0007002813209F081C0809174029091750288
:103AC000029708F07AC08091E800877F8093E80031
:103AD0008091E80082FD05C080916F028111F8CFCE
:103AE0006CC02091F3008091F20090E0922B02973D
:103AF00029F48091F1008B7F813021F48091F100D5
:103B000080934C028091E8008B7753C080917002C3
:103B1000813A09F052C08091740290917502892B0C
:103B200009F04BC08091E800877F8093E800809186
:103B3000E80080FFFCCF80911B0136C080917002AD
:103B40008132D9F58091740290917502892BA9F583
:103B50008091E800877F8093E8000E94E21F8091B7
:103B6000720280931B010C94FD0E809170028132D1
:103B700021F58091E800877F8093E8000E94E21F92
:103B80008091730280934D02089580917002813A72
:103B9000A1F48091E800877F8093E8008091E8009D
:103BA00080FFFCCF80914D028093F1008091E8006E
:103BB0008E778093E8000C94E21F089584B7877F86
:103BC00084BF0FB6F894A8958091600088618093B7
:103BD0006000109260000FBE90E080E80FB6F8948D
:103BE00080936100909361000FBE0E94670A0E945B
:103BF00034200E9491208091E20084608093E20052
:103C000078940E9426230E946F0A81E191E00E942D
:103C1000010A80916F02853069F40E94D11680916B
:103C20006D028823B1F30E94B916882391F30E9494
:103C30008D1EEFCF0E94770AECCF0C941F1E292F08
:103C4000332723303105C9F060F42130310581F08C
:103C50002230310509F04AC08BE390E020E932E0E0
:103C600049C02132310511F12232310579F13EC0CE
:103C700082E190E02BEC32E03DC099278130910544
:103C800061F040F08230910559F0039779F5E4E650
:103C9000F2E008C0ECE8F2E005C0ECE7F2E002C0B8
:103CA000EAE6F2E0849190E09F0124C0611571057D
:103CB00041F061307105D1F489E090E02BEB32E006
:103CC00019C089E090E022EA32E014C06115710564
:103CD00041F06130710551F481E890E02DED32E062
:103CE00009C080E490E02EE533E004C080E090E07D
:103CF00020E030E0FA0131832083089580916F0243
:103D0000843011F081E0089582E0089580914E02A0
:103D1000811102C00C947E1E089580E189BD82E16C
:103D200089BD09B400FEFDCF8091D8008F7D8093BE
:103D3000D8008091E00082608093E0008091E000F4
:103D400081FDFCCF0895CF92DF92EF92FF920F9307
:103D50001F93CF93DF93EC018B017A010E94012026
:103D6000811133C0E114F10439F0F70180819181B0
:103D7000081B190BC80FD91FC12CD12C0115110517
:103D800019F18091E80085FD16C08091E8008E77DA
:103D90008093E800E114F10449F0F70180819181FA
:103DA000C80ED91ED182C08285E00FC00E940120BA
:103DB000882321F30AC089918093F10001501109F1
:103DC000FFEFCF1ADF0ADACF80E0DF91CF911F91AA
:103DD0000F91FF90EF90DF90CF90089520917602A1
:103DE000309177022617370748F06115710539F4CD
:103DF0002091E8002E772093E80001C0B901FC0172
:103E000020E06115710579F180916F028823F1F14D
:103E10008530F1F18091E80083FD3CC08091E8009D
:103E200082FD2EC08091E80080FFEBCF2091F3004F
:103E30008091F20090E0922B6115710551F088306D
:103E4000910538F421912093F10061507109019698
:103E5000F3CF21E0089709F020E08091E8008E7709
:103E60008093E800CECF2111CFCF0AC080916F029E
:103E7000882361F0853061F08091E80083FD0AC0FD
:103E80008091E80082FFF2CF80E0089582E00895FB
:103E900083E0089581E008952091760230917702C1
:103EA0002617370748F06115710539F42091E800AD
:103EB0002E772093E80001C0B901FC0120E06115D4
:103EC000710591F180916F02882309F440C085301B
:103ED00009F43FC08091E80083FD3DC08091E80077
:103EE00082FD2FC08091E80080FFE9CF2091F30090
:103EF0008091F20090E0922B6115710559F08830A5
:103F0000910540F424912093F1003196615071099C
:103F10000196F2CF21E0089709F020E08091E800B7
:103F20008E778093E800CBCF2111CCCF0AC080914F
:103F30006F02882361F0853061F08091E80083FD95
:103F40000AC08091E80082FFF2CF80E0089582E00D
:103F5000089583E0089581E00895982F973068F5DB
:103F60009093E900981739F07091EC002091ED00E2
:103F70005091F00003C0242F762F50E021FD02C0A5
:103F80009F5FECCF3091EB003E7F3093EB003091A0
:103F9000ED003D7F3093ED003091EB0031603093C8
:103FA000EB007093EC002093ED005093F000209113
:103FB000EE0027FDE5CF80E008958F708093E90043
:103FC00081E008958091700287FF11C08091E80020
:103FD00082FD05C080916F028111F8CF11C08091E0
:103FE000E8008B770BC080916F02882349F08091A5
:103FF000E80080FFF8CF8091E8008E778093E8009A
:1040000008952091E4003091E50095E64091EC00A0
:10401000842F817040FF23C08091E80080FD1DC087
:1040200080916F02882399F0853099F08091EB00A0
:1040300085FD11C04091E4005091E500241735073B
:1040400029F3915011F09A01E1CF84E0089582E0C4
:10405000089583E0089581E0089580E008954091F7
:10406000E80042FFDDCF08950E94A2200E94AA200E
:10407000E0EEF0E0808181608083E8EDF0E0808117
:104080008F77808319BCA7EDB0E08C918E7F8C93E5
:1040900080818F7E808310926E0208950F931F930C
:1040A000CF93DF930E94A2200E94AA20C8EDD0E007
:1040B00088818F77888388818068888388818F7DD5
:1040C000888319BC10926F0210926B0210926D02DD
:1040D00010926C0200EE10E0F80180818B7F8083EB
:1040E00088818160888342E060E080E00E94AD1FAB
:1040F000E1EEF0E080818E7F8083E2EEF0E080816F
:1041000081608083808188608083F80180818E7FD8
:104110008083888180618883DF91CF911F910F9187
:104120000895E8EDF0E080818F7E8083E7EDF0E098
:1041300080818160808384E082BF81E080936E0211
:104140000C944E20E8EDF0E080818E7F8083109209
:10415000E20008951092DA001092E10008951F9293
:104160000F920FB60F9211242F933F934F935F93AB
:104170006F937F938F939F93AF93BF93EF93FF932F
:104180008091E10082FF0BC08091E20082FF07C0B6
:104190008091E1008B7F8093E1000E942523809134
:1041A000DA0080FF1FC08091D80080FF1BC0809183
:1041B000DA008E7F8093DA008091D90080FF0DC0F5
:1041C00080E189BD82E189BD09B400FEFDCF81E0B7
:1041D00080936F020E94021D05C019BC10926F02ED
:1041E0000E94101D8091E10080FF19C08091E200C3
:1041F00080FF15C08091E2008E7F8093E200809165
:10420000E20080618093E2008091D8008062809318
:10421000D80019BC85E080936F020E94141D809124
:10422000E10084FF30C08091E20084FF2CC080E177
:1042300089BD82E189BD09B400FEFDCF8091D8001F
:104240008F7D8093D8008091E1008F7E8093E10084
:104250008091E2008F7E8093E2008091E200816095
:104260008093E20080916B02882311F084E007C004
:104270008091E30087FD02C081E001C083E080936C
:104280006F020E94151D8091E10083FF29C080917B
:10429000E20083FF25C08091E100877F8093E100E9
:1042A00082E080936F0210926B028091E1008E7F1A
:1042B0008093E1008091E2008E7F8093E200809104
:1042C000E20080618093E20042E060E080E00E94D2
:1042D000AD1F8091F00088608093F0000E94131D54
:1042E000FF91EF91BF91AF919F918F917F916F91CE
:1042F0005F914F913F912F910F900FBE0F901F90A4
:1043000018951F920F920FB60F9211242F933F937F
:104310004F935F936F937F938F939F93AF93BF93CD
:10432000CF93DF93EF93FF93C091E900CF7080911B
:10433000EC00D82FD17080FDD0E81092E900809178
:10434000F000877F8093F00078940E94C52110923E
:10435000E9008091F00088608093F000CD2BCF7051
:10436000C093E900FF91EF91DF91CF91BF91AF91A1
:104370009F918F917F916F915F914F913F912F917D
:104380000F900FBE0F901F9018951F93CF93DF9340
:10439000CDB7DEB7AA970FB6F894DEBF0FBECDBF7C
:1043A000E0E7F2E08091F100819322E0E837F20744
:1043B000C9F70E94211D8091E80083FF2EC18091E2
:1043C000700290917102492F50E04A30510508F077
:1043D00024C1FA01EC58FF4F0C945523803821F08A
:1043E000823809F01AC108C080916C0290916D0268
:1043F000992389F082600FC0809174028F7087309A
:1044000008F00BC18093E9008091EB0085FB8827C1
:1044100080F91092E9009091E800977F9093E8006E
:104420008093F1001092F100D1C0282F2D7F09F068
:10443000F4C0882319F0823061F0EFC080917202DD
:10444000813009F0EAC0933009F080E080936D027A
:104450002EC08091720281112AC0809174028F70E7
:104460002FEF280F263008F0D8C08093E900209164
:10447000EB0020FF1CC0933021F48091EB008062A0
:1044800014C09091EB0090619093EB0021E030E03C
:10449000A90102C0440F551F8A95E2F74093EA0034
:1044A0001092EA008091EB0088608093EB001092FC
:1044B000E9008091E800877F8093E8000E94E21F76
:1044C000ACC08111AAC0109172021F778091E300E5
:1044D0008078812B8093E3008091E800877F809330
:1044E000E8000E94E21F8091E80080FFFCCF8091ED
:1044F000E30080688093E300111102C082E001C0F4
:1045000083E080936F0289C08058823008F085C0B4
:1045100080917202909173028C3D53E0950779F57A
:1045200083E08A838AE289834FB7F894DE01139689
:1045300020E03EE051E2E32FF0E050935700E49199
:1045400020FF03C0E295EF703F5FEF708E2F90E089
:10455000EA3010F0C79601C0C0968D939D932F5FEF
:10456000243149F74FBF8091E800877F8093E800AE
:104570006AE270E0CE0101960E94EE1E16C06091C4
:10458000740270917502AE014F5F5F4F0E941D1E55
:10459000BC01892B09F441C09091E800977F90936A
:1045A000E80089819A810E944C1F8091E8008B77F6
:1045B0008093E80032C0803881F58091E800877FE1
:1045C0008093E80080916B028093F1008091E80075
:1045D0008E7772CF811121C0809172029091730207
:1045E00099270297D4F48091E800877F8093E800B0
:1045F0008091720280936B020E94E21F80916B0295
:10460000811106C08091E30087FD02C081E001C0F6
:1046100084E080936F020E94171D8091E80083FF61
:104620000AC08091E800877F8093E8008091EB00CA
:1046300080628093EB00AA960FB6F894DEBF0FBE9F
:10464000CDBFDF91CF911F9108950895CF938091B1
:104650006F028823A1F0C091E900CF709091EC0027
:10466000892F817090FD80E8C82B1092E90080911D
:10467000E80083FD0E94C521CF70C093E900CF916F
:10468000089597FB072E16F4009407D077FD09D004
:104690000E945B2307FC05D03EF4909581959F4FC7
:1046A0000895709561957F4F0895EE0FFF1F059057
:1046B000F491E02D0994AA1BBB1B51E107C0AA1F6E
:1046C000BB1FA617B70710F0A61BB70B881F991FB3
:1046D0005A95A9F780959095BC01CD010895F99957
:1046E000FECF92BD81BDF89A992780B50895A8E1C3
:1046F000B0E042E050E00C94A323262FF999FECFBE
:1047000092BD81BDF89A019700B4021639F01FBA24
:1047100020BD0FB6F894FA9AF99A0FBE0895039641
:10472000272F0E947E230E947D23252F0E947E2317
:10473000242F0C947E230196272F0E947E230C9415
:104740007D23DC01CB01FC01F999FECF06C0F2BD4F
:10475000E1BDF89A319600B40D9241505040B8F73F
:064760000895F894FFCF5C
:10476600019D01009E01059E0125022808643C0763
:1047760014581CCF1CA41CA01C8E1C01E200E900CE
:10478600EA00B500B600B700CD008301CC008A016F
:104796009201940121022302240225022602270205
:1047A6002A02B300B4006F0070008182839466977A
:1047B600C63435F7313332360000000000E200E936
:1047C60000EA00B500B600B700CD008301CC008A30
:1047D60001920194012102230224022502260227C6
:1047E600022A02B300B4006F0070008182830102C6
:0847F600030405060708090091
:00000001FF
